{"contracts/Simplefactory.sol":{"StorageFactory":{"abi":[{"inputs":[],"name":"creatSimpleStorageContract","outputs":[],"stateMutability":"nonpayable","type":"function"},{"inputs":[],"name":"getContracts","outputs":[{"internalType":"contract SimpleStorage[]","name":"","type":"address[]"}],"stateMutability":"view","type":"function"},{"inputs":[{"internalType":"uint256","name":"_indexOfAddress","type":"uint256"}],"name":"sfRetrive","outputs":[{"internalType":"uint256","name":"","type":"uint256"}],"stateMutability":"view","type":"function"},{"inputs":[{"internalType":"uint256","name":"_indexOfAddress","type":"uint256"},{"internalType":"uint256","name":"_newSimpleStorageNumber","type":"uint256"}],"name":"sfStore","outputs":[],"stateMutability":"nonpayable","type":"function"},{"inputs":[{"internalType":"uint256","name":"","type":"uint256"}],"name":"simpleStorageContracts","outputs":[{"internalType":"contract SimpleStorage","name":"","type":"address"}],"stateMutability":"view","type":"function"}],"evm":{"bytecode":{"linkReferences":{},"object":"608060405234801561001057600080fd5b506112f9806100206000396000f3fe608060405234801561001057600080fd5b50600436106100575760003560e01c80631563700f1461005c5780634478274714610078578063969c7f5a146100a8578063a5772eba146100b2578063c3a2a93a146100e2575b600080fd5b6100766004803603810190610071919061040a565b610100565b005b610092600480360381019061008d919061044a565b6101ad565b60405161009f9190610486565b60405180910390f35b6100b0610262565b005b6100cc60048036038101906100c7919061044a565b6102f5565b6040516100d99190610520565b60405180910390f35b6100ea610334565b6040516100f791906105f9565b60405180910390f35b600082815481106101145761011361061b565b5b9060005260206000200160009054906101000a900473ffffffffffffffffffffffffffffffffffffffff1673ffffffffffffffffffffffffffffffffffffffff16636057361d826040518263ffffffff1660e01b81526004016101779190610486565b600060405180830381600087803b15801561019157600080fd5b505af11580156101a5573d6000803e3d6000fd5b505050505050565b60008082815481106101c2576101c161061b565b5b9060005260206000200160009054906101000a900473ffffffffffffffffffffffffffffffffffffffff1673ffffffffffffffffffffffffffffffffffffffff16632e64cec16040518163ffffffff1660e01b8152600401602060405180830381865afa158015610237573d6000803e3d6000fd5b505050506040513d601f19601f8201168201806040525081019061025b919061065f565b9050919050565b6000604051610270906103c2565b604051809103906000f08015801561028c573d6000803e3d6000fd5b5090506000819080600181540180825580915050600190039060005260206000200160009091909190916101000a81548173ffffffffffffffffffffffffffffffffffffffff021916908373ffffffffffffffffffffffffffffffffffffffff16021790555050565b6000818154811061030557600080fd5b906000526020600020016000915054906101000a900473ffffffffffffffffffffffffffffffffffffffff1681565b606060008054806020026020016040519081016040528092919081815260200182805480156103b857602002820191906000526020600020905b8160009054906101000a900473ffffffffffffffffffffffffffffffffffffffff1673ffffffffffffffffffffffffffffffffffffffff168152602001906001019080831161036e575b5050505050905090565b610c378061068d83390190565b600080fd5b6000819050919050565b6103e7816103d4565b81146103f257600080fd5b50565b600081359050610404816103de565b92915050565b60008060408385031215610421576104206103cf565b5b600061042f858286016103f5565b9250506020610440858286016103f5565b9150509250929050565b6000602082840312156104605761045f6103cf565b5b600061046e848285016103f5565b91505092915050565b610480816103d4565b82525050565b600060208201905061049b6000830184610477565b92915050565b600073ffffffffffffffffffffffffffffffffffffffff82169050919050565b6000819050919050565b60006104e66104e16104dc846104a1565b6104c1565b6104a1565b9050919050565b60006104f8826104cb565b9050919050565b600061050a826104ed565b9050919050565b61051a816104ff565b82525050565b60006020820190506105356000830184610511565b92915050565b600081519050919050565b600082825260208201905092915050565b6000819050602082019050919050565b610570816104ff565b82525050565b60006105828383610567565b60208301905092915050565b6000602082019050919050565b60006105a68261053b565b6105b08185610546565b93506105bb83610557565b8060005b838110156105ec5781516105d38882610576565b97506105de8361058e565b9250506001810190506105bf565b5085935050505092915050565b60006020820190508181036000830152610613818461059b565b905092915050565b7f4e487b7100000000000000000000000000000000000000000000000000000000600052603260045260246000fd5b600081519050610659816103de565b92915050565b600060208284031215610675576106746103cf565b5b60006106838482850161064a565b9150509291505056fe608060405234801561001057600080fd5b50610c17806100206000396000f3fe608060405234801561001057600080fd5b506004361061007c5760003560e01c8063365b98b21161005b578063365b98b2146100ed57806356a7d90a1461011e5780636057361d1461013a578063df986725146101565761007c565b8062ce8e3e1461008157806306c62c2c1461009f5780632e64cec1146100cf575b600080fd5b610089610174565b60405161009691906105a3565b60405180910390f35b6100b960048036038101906100b4919061070e565b61026f565b6040516100c69190610766565b60405180910390f35b6100d761029d565b6040516100e49190610766565b60405180910390f35b610107600480360381019061010291906107ad565b6102a6565b604051610115929190610824565b60405180910390f35b61013860048036038101906101339190610854565b610362565b005b610154600480360381019061014f91906107ad565b6103eb565b005b61015e6103f5565b60405161016b9190610766565b60405180910390f35b60606001805480602002602001604051908101604052809291908181526020016000905b828210156102665783829060005260206000209060020201604051806040016040529081600082015481526020016001820180546101d5906108df565b80601f0160208091040260200160405190810160405280929190818152602001828054610201906108df565b801561024e5780601f106102235761010080835404028352916020019161024e565b820191906000526020600020905b81548152906001019060200180831161023157829003601f168201915b50505050508152505081526020019060010190610198565b50505050905090565b6002818051602081018201805184825260208301602085012081835280955050505050506000915090505481565b60008054905090565b600181815481106102b657600080fd5b90600052602060002090600202016000915090508060000154908060010180546102df906108df565b80601f016020809104026020016040519081016040528092919081815260200182805461030b906108df565b80156103585780601f1061032d57610100808354040283529160200191610358565b820191906000526020600020905b81548152906001019060200180831161033b57829003601f168201915b5050505050905082565b600160405180604001604052808481526020018381525090806001815401808255809150506001900390600052602060002090600202016000909190919091506000820151816000015560208201518160010190816103c19190610abc565b505050816002826040516103d59190610bca565b9081526020016040518091039020819055505050565b8060008190555050565b60005481565b600081519050919050565b600082825260208201905092915050565b6000819050602082019050919050565b6000819050919050565b61043a81610427565b82525050565b600081519050919050565b600082825260208201905092915050565b60005b8381101561047a57808201518184015260208101905061045f565b60008484015250505050565b6000601f19601f8301169050919050565b60006104a282610440565b6104ac818561044b565b93506104bc81856020860161045c565b6104c581610486565b840191505092915050565b60006040830160008301516104e86000860182610431565b50602083015184820360208601526105008282610497565b9150508091505092915050565b600061051983836104d0565b905092915050565b6000602082019050919050565b6000610539826103fb565b6105438185610406565b93508360208202850161055585610417565b8060005b858110156105915784840389528151610572858261050d565b945061057d83610521565b925060208a01995050600181019050610559565b50829750879550505050505092915050565b600060208201905081810360008301526105bd818461052e565b905092915050565b6000604051905090565b600080fd5b600080fd5b600080fd5b600080fd5b7f4e487b7100000000000000000000000000000000000000000000000000000000600052604160045260246000fd5b61061b82610486565b810181811067ffffffffffffffff8211171561063a576106396105e3565b5b80604052505050565b600061064d6105c5565b90506106598282610612565b919050565b600067ffffffffffffffff821115610679576106786105e3565b5b61068282610486565b9050602081019050919050565b82818337600083830152505050565b60006106b16106ac8461065e565b610643565b9050828152602081018484840111156106cd576106cc6105de565b5b6106d884828561068f565b509392505050565b600082601f8301126106f5576106f46105d9565b5b813561070584826020860161069e565b91505092915050565b600060208284031215610724576107236105cf565b5b600082013567ffffffffffffffff811115610742576107416105d4565b5b61074e848285016106e0565b91505092915050565b61076081610427565b82525050565b600060208201905061077b6000830184610757565b92915050565b61078a81610427565b811461079557600080fd5b50565b6000813590506107a781610781565b92915050565b6000602082840312156107c3576107c26105cf565b5b60006107d184828501610798565b91505092915050565b600082825260208201905092915050565b60006107f682610440565b61080081856107da565b935061081081856020860161045c565b61081981610486565b840191505092915050565b60006040820190506108396000830185610757565b818103602083015261084b81846107eb565b90509392505050565b6000806040838503121561086b5761086a6105cf565b5b600061087985828601610798565b925050602083013567ffffffffffffffff81111561089a576108996105d4565b5b6108a6858286016106e0565b9150509250929050565b7f4e487b7100000000000000000000000000000000000000000000000000000000600052602260045260246000fd5b600060028204905060018216806108f757607f821691505b60208210810361090a576109096108b0565b5b50919050565b60008190508160005260206000209050919050565b60006020601f8301049050919050565b600082821b905092915050565b6000600883026109727fffffffffffffffffffffffffffffffffffffffffffffffffffffffffffffffff82610935565b61097c8683610935565b95508019841693508086168417925050509392505050565b6000819050919050565b60006109b96109b46109af84610427565b610994565b610427565b9050919050565b6000819050919050565b6109d38361099e565b6109e76109df826109c0565b848454610942565b825550505050565b600090565b6109fc6109ef565b610a078184846109ca565b505050565b5b81811015610a2b57610a206000826109f4565b600181019050610a0d565b5050565b601f821115610a7057610a4181610910565b610a4a84610925565b81016020851015610a59578190505b610a6d610a6585610925565b830182610a0c565b50505b505050565b600082821c905092915050565b6000610a9360001984600802610a75565b1980831691505092915050565b6000610aac8383610a82565b9150826002028217905092915050565b610ac582610440565b67ffffffffffffffff811115610ade57610add6105e3565b5b610ae882546108df565b610af3828285610a2f565b600060209050601f831160018114610b265760008415610b14578287015190505b610b1e8582610aa0565b865550610b86565b601f198416610b3486610910565b60005b82811015610b5c57848901518255600182019150602085019450602081019050610b37565b86831015610b795784890151610b75601f891682610a82565b8355505b6001600288020188555050505b505050505050565b600081905092915050565b6000610ba482610440565b610bae8185610b8e565b9350610bbe81856020860161045c565b80840191505092915050565b6000610bd68284610b99565b91508190509291505056fea264697066735822122081c8a2f21b1f63fda365c18ab48e304327e25935588ef0b4217439bf5f37c50664736f6c63430008120033a2646970667358221220f7ed896ce20cda2cebb41030658a642830d89a1a9a8e0599c5edce928adf9a3464736f6c63430008120033","opcodes":"PUSH1 0x80 PUSH1 0x40 MSTORE CALLVALUE DUP1 ISZERO PUSH2 0x10 JUMPI PUSH1 0x0 DUP1 REVERT JUMPDEST POP PUSH2 0x12F9 DUP1 PUSH2 0x20 PUSH1 0x0 CODECOPY PUSH1 0x0 RETURN INVALID PUSH1 0x80 PUSH1 0x40 MSTORE CALLVALUE DUP1 ISZERO PUSH2 0x10 JUMPI PUSH1 0x0 DUP1 REVERT JUMPDEST POP PUSH1 0x4 CALLDATASIZE LT PUSH2 0x57 JUMPI PUSH1 0x0 CALLDATALOAD PUSH1 0xE0 SHR DUP1 PUSH4 0x1563700F EQ PUSH2 0x5C JUMPI DUP1 PUSH4 0x44782747 EQ PUSH2 0x78 JUMPI DUP1 PUSH4 0x969C7F5A EQ PUSH2 0xA8 JUMPI DUP1 PUSH4 0xA5772EBA EQ PUSH2 0xB2 JUMPI DUP1 PUSH4 0xC3A2A93A EQ PUSH2 0xE2 JUMPI JUMPDEST PUSH1 0x0 DUP1 REVERT JUMPDEST PUSH2 0x76 PUSH1 0x4 DUP1 CALLDATASIZE SUB DUP2 ADD SWAP1 PUSH2 0x71 SWAP2 SWAP1 PUSH2 0x40A JUMP JUMPDEST PUSH2 0x100 JUMP JUMPDEST STOP JUMPDEST PUSH2 0x92 PUSH1 0x4 DUP1 CALLDATASIZE SUB DUP2 ADD SWAP1 PUSH2 0x8D SWAP2 SWAP1 PUSH2 0x44A JUMP JUMPDEST PUSH2 0x1AD JUMP JUMPDEST PUSH1 0x40 MLOAD PUSH2 0x9F SWAP2 SWAP1 PUSH2 0x486 JUMP JUMPDEST PUSH1 0x40 MLOAD DUP1 SWAP2 SUB SWAP1 RETURN JUMPDEST PUSH2 0xB0 PUSH2 0x262 JUMP JUMPDEST STOP JUMPDEST PUSH2 0xCC PUSH1 0x4 DUP1 CALLDATASIZE SUB DUP2 ADD SWAP1 PUSH2 0xC7 SWAP2 SWAP1 PUSH2 0x44A JUMP JUMPDEST PUSH2 0x2F5 JUMP JUMPDEST PUSH1 0x40 MLOAD PUSH2 0xD9 SWAP2 SWAP1 PUSH2 0x520 JUMP JUMPDEST PUSH1 0x40 MLOAD DUP1 SWAP2 SUB SWAP1 RETURN JUMPDEST PUSH2 0xEA PUSH2 0x334 JUMP JUMPDEST PUSH1 0x40 MLOAD PUSH2 0xF7 SWAP2 SWAP1 PUSH2 0x5F9 JUMP JUMPDEST PUSH1 0x40 MLOAD DUP1 SWAP2 SUB SWAP1 RETURN JUMPDEST PUSH1 0x0 DUP3 DUP2 SLOAD DUP2 LT PUSH2 0x114 JUMPI PUSH2 0x113 PUSH2 0x61B JUMP JUMPDEST JUMPDEST SWAP1 PUSH1 0x0 MSTORE PUSH1 0x20 PUSH1 0x0 KECCAK256 ADD PUSH1 0x0 SWAP1 SLOAD SWAP1 PUSH2 0x100 EXP SWAP1 DIV PUSH20 0xFFFFFFFFFFFFFFFFFFFFFFFFFFFFFFFFFFFFFFFF AND PUSH20 0xFFFFFFFFFFFFFFFFFFFFFFFFFFFFFFFFFFFFFFFF AND PUSH4 0x6057361D DUP3 PUSH1 0x40 MLOAD DUP3 PUSH4 0xFFFFFFFF AND PUSH1 0xE0 SHL DUP2 MSTORE PUSH1 0x4 ADD PUSH2 0x177 SWAP2 SWAP1 PUSH2 0x486 JUMP JUMPDEST PUSH1 0x0 PUSH1 0x40 MLOAD DUP1 DUP4 SUB DUP2 PUSH1 0x0 DUP8 DUP1 EXTCODESIZE ISZERO DUP1 ISZERO PUSH2 0x191 JUMPI PUSH1 0x0 DUP1 REVERT JUMPDEST POP GAS CALL ISZERO DUP1 ISZERO PUSH2 0x1A5 JUMPI RETURNDATASIZE PUSH1 0x0 DUP1 RETURNDATACOPY RETURNDATASIZE PUSH1 0x0 REVERT JUMPDEST POP POP POP POP POP POP JUMP JUMPDEST PUSH1 0x0 DUP1 DUP3 DUP2 SLOAD DUP2 LT PUSH2 0x1C2 JUMPI PUSH2 0x1C1 PUSH2 0x61B JUMP JUMPDEST JUMPDEST SWAP1 PUSH1 0x0 MSTORE PUSH1 0x20 PUSH1 0x0 KECCAK256 ADD PUSH1 0x0 SWAP1 SLOAD SWAP1 PUSH2 0x100 EXP SWAP1 DIV PUSH20 0xFFFFFFFFFFFFFFFFFFFFFFFFFFFFFFFFFFFFFFFF AND PUSH20 0xFFFFFFFFFFFFFFFFFFFFFFFFFFFFFFFFFFFFFFFF AND PUSH4 0x2E64CEC1 PUSH1 0x40 MLOAD DUP2 PUSH4 0xFFFFFFFF AND PUSH1 0xE0 SHL DUP2 MSTORE PUSH1 0x4 ADD PUSH1 0x20 PUSH1 0x40 MLOAD DUP1 DUP4 SUB DUP2 DUP7 GAS STATICCALL ISZERO DUP1 ISZERO PUSH2 0x237 JUMPI RETURNDATASIZE PUSH1 0x0 DUP1 RETURNDATACOPY RETURNDATASIZE PUSH1 0x0 REVERT JUMPDEST POP POP POP POP PUSH1 0x40 MLOAD RETURNDATASIZE PUSH1 0x1F NOT PUSH1 0x1F DUP3 ADD AND DUP3 ADD DUP1 PUSH1 0x40 MSTORE POP DUP2 ADD SWAP1 PUSH2 0x25B SWAP2 SWAP1 PUSH2 0x65F JUMP JUMPDEST SWAP1 POP SWAP2 SWAP1 POP JUMP JUMPDEST PUSH1 0x0 PUSH1 0x40 MLOAD PUSH2 0x270 SWAP1 PUSH2 0x3C2 JUMP JUMPDEST PUSH1 0x40 MLOAD DUP1 SWAP2 SUB SWAP1 PUSH1 0x0 CREATE DUP1 ISZERO DUP1 ISZERO PUSH2 0x28C JUMPI RETURNDATASIZE PUSH1 0x0 DUP1 RETURNDATACOPY RETURNDATASIZE PUSH1 0x0 REVERT JUMPDEST POP SWAP1 POP PUSH1 0x0 DUP2 SWAP1 DUP1 PUSH1 0x1 DUP2 SLOAD ADD DUP1 DUP3 SSTORE DUP1 SWAP2 POP POP PUSH1 0x1 SWAP1 SUB SWAP1 PUSH1 0x0 MSTORE PUSH1 0x20 PUSH1 0x0 KECCAK256 ADD PUSH1 0x0 SWAP1 SWAP2 SWAP1 SWAP2 SWAP1 SWAP2 PUSH2 0x100 EXP DUP2 SLOAD DUP2 PUSH20 0xFFFFFFFFFFFFFFFFFFFFFFFFFFFFFFFFFFFFFFFF MUL NOT AND SWAP1 DUP4 PUSH20 0xFFFFFFFFFFFFFFFFFFFFFFFFFFFFFFFFFFFFFFFF AND MUL OR SWAP1 SSTORE POP POP JUMP JUMPDEST PUSH1 0x0 DUP2 DUP2 SLOAD DUP2 LT PUSH2 0x305 JUMPI PUSH1 0x0 DUP1 REVERT JUMPDEST SWAP1 PUSH1 0x0 MSTORE PUSH1 0x20 PUSH1 0x0 KECCAK256 ADD PUSH1 0x0 SWAP2 POP SLOAD SWAP1 PUSH2 0x100 EXP SWAP1 DIV PUSH20 0xFFFFFFFFFFFFFFFFFFFFFFFFFFFFFFFFFFFFFFFF AND DUP2 JUMP JUMPDEST PUSH1 0x60 PUSH1 0x0 DUP1 SLOAD DUP1 PUSH1 0x20 MUL PUSH1 0x20 ADD PUSH1 0x40 MLOAD SWAP1 DUP2 ADD PUSH1 0x40 MSTORE DUP1 SWAP3 SWAP2 SWAP1 DUP2 DUP2 MSTORE PUSH1 0x20 ADD DUP3 DUP1 SLOAD DUP1 ISZERO PUSH2 0x3B8 JUMPI PUSH1 0x20 MUL DUP3 ADD SWAP2 SWAP1 PUSH1 0x0 MSTORE PUSH1 0x20 PUSH1 0x0 KECCAK256 SWAP1 JUMPDEST DUP2 PUSH1 0x0 SWAP1 SLOAD SWAP1 PUSH2 0x100 EXP SWAP1 DIV PUSH20 0xFFFFFFFFFFFFFFFFFFFFFFFFFFFFFFFFFFFFFFFF AND PUSH20 0xFFFFFFFFFFFFFFFFFFFFFFFFFFFFFFFFFFFFFFFF AND DUP2 MSTORE PUSH1 0x20 ADD SWAP1 PUSH1 0x1 ADD SWAP1 DUP1 DUP4 GT PUSH2 0x36E JUMPI JUMPDEST POP POP POP POP POP SWAP1 POP SWAP1 JUMP JUMPDEST PUSH2 0xC37 DUP1 PUSH2 0x68D DUP4 CODECOPY ADD SWAP1 JUMP JUMPDEST PUSH1 0x0 DUP1 REVERT JUMPDEST PUSH1 0x0 DUP2 SWAP1 POP SWAP2 SWAP1 POP JUMP JUMPDEST PUSH2 0x3E7 DUP2 PUSH2 0x3D4 JUMP JUMPDEST DUP2 EQ PUSH2 0x3F2 JUMPI PUSH1 0x0 DUP1 REVERT JUMPDEST POP JUMP JUMPDEST PUSH1 0x0 DUP2 CALLDATALOAD SWAP1 POP PUSH2 0x404 DUP2 PUSH2 0x3DE JUMP JUMPDEST SWAP3 SWAP2 POP POP JUMP JUMPDEST PUSH1 0x0 DUP1 PUSH1 0x40 DUP4 DUP6 SUB SLT ISZERO PUSH2 0x421 JUMPI PUSH2 0x420 PUSH2 0x3CF JUMP JUMPDEST JUMPDEST PUSH1 0x0 PUSH2 0x42F DUP6 DUP3 DUP7 ADD PUSH2 0x3F5 JUMP JUMPDEST SWAP3 POP POP PUSH1 0x20 PUSH2 0x440 DUP6 DUP3 DUP7 ADD PUSH2 0x3F5 JUMP JUMPDEST SWAP2 POP POP SWAP3 POP SWAP3 SWAP1 POP JUMP JUMPDEST PUSH1 0x0 PUSH1 0x20 DUP3 DUP5 SUB SLT ISZERO PUSH2 0x460 JUMPI PUSH2 0x45F PUSH2 0x3CF JUMP JUMPDEST JUMPDEST PUSH1 0x0 PUSH2 0x46E DUP5 DUP3 DUP6 ADD PUSH2 0x3F5 JUMP JUMPDEST SWAP2 POP POP SWAP3 SWAP2 POP POP JUMP JUMPDEST PUSH2 0x480 DUP2 PUSH2 0x3D4 JUMP JUMPDEST DUP3 MSTORE POP POP JUMP JUMPDEST PUSH1 0x0 PUSH1 0x20 DUP3 ADD SWAP1 POP PUSH2 0x49B PUSH1 0x0 DUP4 ADD DUP5 PUSH2 0x477 JUMP JUMPDEST SWAP3 SWAP2 POP POP JUMP JUMPDEST PUSH1 0x0 PUSH20 0xFFFFFFFFFFFFFFFFFFFFFFFFFFFFFFFFFFFFFFFF DUP3 AND SWAP1 POP SWAP2 SWAP1 POP JUMP JUMPDEST PUSH1 0x0 DUP2 SWAP1 POP SWAP2 SWAP1 POP JUMP JUMPDEST PUSH1 0x0 PUSH2 0x4E6 PUSH2 0x4E1 PUSH2 0x4DC DUP5 PUSH2 0x4A1 JUMP JUMPDEST PUSH2 0x4C1 JUMP JUMPDEST PUSH2 0x4A1 JUMP JUMPDEST SWAP1 POP SWAP2 SWAP1 POP JUMP JUMPDEST PUSH1 0x0 PUSH2 0x4F8 DUP3 PUSH2 0x4CB JUMP JUMPDEST SWAP1 POP SWAP2 SWAP1 POP JUMP JUMPDEST PUSH1 0x0 PUSH2 0x50A DUP3 PUSH2 0x4ED JUMP JUMPDEST SWAP1 POP SWAP2 SWAP1 POP JUMP JUMPDEST PUSH2 0x51A DUP2 PUSH2 0x4FF JUMP JUMPDEST DUP3 MSTORE POP POP JUMP JUMPDEST PUSH1 0x0 PUSH1 0x20 DUP3 ADD SWAP1 POP PUSH2 0x535 PUSH1 0x0 DUP4 ADD DUP5 PUSH2 0x511 JUMP JUMPDEST SWAP3 SWAP2 POP POP JUMP JUMPDEST PUSH1 0x0 DUP2 MLOAD SWAP1 POP SWAP2 SWAP1 POP JUMP JUMPDEST PUSH1 0x0 DUP3 DUP3 MSTORE PUSH1 0x20 DUP3 ADD SWAP1 POP SWAP3 SWAP2 POP POP JUMP JUMPDEST PUSH1 0x0 DUP2 SWAP1 POP PUSH1 0x20 DUP3 ADD SWAP1 POP SWAP2 SWAP1 POP JUMP JUMPDEST PUSH2 0x570 DUP2 PUSH2 0x4FF JUMP JUMPDEST DUP3 MSTORE POP POP JUMP JUMPDEST PUSH1 0x0 PUSH2 0x582 DUP4 DUP4 PUSH2 0x567 JUMP JUMPDEST PUSH1 0x20 DUP4 ADD SWAP1 POP SWAP3 SWAP2 POP POP JUMP JUMPDEST PUSH1 0x0 PUSH1 0x20 DUP3 ADD SWAP1 POP SWAP2 SWAP1 POP JUMP JUMPDEST PUSH1 0x0 PUSH2 0x5A6 DUP3 PUSH2 0x53B JUMP JUMPDEST PUSH2 0x5B0 DUP2 DUP6 PUSH2 0x546 JUMP JUMPDEST SWAP4 POP PUSH2 0x5BB DUP4 PUSH2 0x557 JUMP JUMPDEST DUP1 PUSH1 0x0 JUMPDEST DUP4 DUP2 LT ISZERO PUSH2 0x5EC JUMPI DUP2 MLOAD PUSH2 0x5D3 DUP9 DUP3 PUSH2 0x576 JUMP JUMPDEST SWAP8 POP PUSH2 0x5DE DUP4 PUSH2 0x58E JUMP JUMPDEST SWAP3 POP POP PUSH1 0x1 DUP2 ADD SWAP1 POP PUSH2 0x5BF JUMP JUMPDEST POP DUP6 SWAP4 POP POP POP POP SWAP3 SWAP2 POP POP JUMP JUMPDEST PUSH1 0x0 PUSH1 0x20 DUP3 ADD SWAP1 POP DUP2 DUP2 SUB PUSH1 0x0 DUP4 ADD MSTORE PUSH2 0x613 DUP2 DUP5 PUSH2 0x59B JUMP JUMPDEST SWAP1 POP SWAP3 SWAP2 POP POP JUMP JUMPDEST PUSH32 0x4E487B7100000000000000000000000000000000000000000000000000000000 PUSH1 0x0 MSTORE PUSH1 0x32 PUSH1 0x4 MSTORE PUSH1 0x24 PUSH1 0x0 REVERT JUMPDEST PUSH1 0x0 DUP2 MLOAD SWAP1 POP PUSH2 0x659 DUP2 PUSH2 0x3DE JUMP JUMPDEST SWAP3 SWAP2 POP POP JUMP JUMPDEST PUSH1 0x0 PUSH1 0x20 DUP3 DUP5 SUB SLT ISZERO PUSH2 0x675 JUMPI PUSH2 0x674 PUSH2 0x3CF JUMP JUMPDEST JUMPDEST PUSH1 0x0 PUSH2 0x683 DUP5 DUP3 DUP6 ADD PUSH2 0x64A JUMP JUMPDEST SWAP2 POP POP SWAP3 SWAP2 POP POP JUMP INVALID PUSH1 0x80 PUSH1 0x40 MSTORE CALLVALUE DUP1 ISZERO PUSH2 0x10 JUMPI PUSH1 0x0 DUP1 REVERT JUMPDEST POP PUSH2 0xC17 DUP1 PUSH2 0x20 PUSH1 0x0 CODECOPY PUSH1 0x0 RETURN INVALID PUSH1 0x80 PUSH1 0x40 MSTORE CALLVALUE DUP1 ISZERO PUSH2 0x10 JUMPI PUSH1 0x0 DUP1 REVERT JUMPDEST POP PUSH1 0x4 CALLDATASIZE LT PUSH2 0x7C JUMPI PUSH1 0x0 CALLDATALOAD PUSH1 0xE0 SHR DUP1 PUSH4 0x365B98B2 GT PUSH2 0x5B JUMPI DUP1 PUSH4 0x365B98B2 EQ PUSH2 0xED JUMPI DUP1 PUSH4 0x56A7D90A EQ PUSH2 0x11E JUMPI DUP1 PUSH4 0x6057361D EQ PUSH2 0x13A JUMPI DUP1 PUSH4 0xDF986725 EQ PUSH2 0x156 JUMPI PUSH2 0x7C JUMP JUMPDEST DUP1 PUSH3 0xCE8E3E EQ PUSH2 0x81 JUMPI DUP1 PUSH4 0x6C62C2C EQ PUSH2 0x9F JUMPI DUP1 PUSH4 0x2E64CEC1 EQ PUSH2 0xCF JUMPI JUMPDEST PUSH1 0x0 DUP1 REVERT JUMPDEST PUSH2 0x89 PUSH2 0x174 JUMP JUMPDEST PUSH1 0x40 MLOAD PUSH2 0x96 SWAP2 SWAP1 PUSH2 0x5A3 JUMP JUMPDEST PUSH1 0x40 MLOAD DUP1 SWAP2 SUB SWAP1 RETURN JUMPDEST PUSH2 0xB9 PUSH1 0x4 DUP1 CALLDATASIZE SUB DUP2 ADD SWAP1 PUSH2 0xB4 SWAP2 SWAP1 PUSH2 0x70E JUMP JUMPDEST PUSH2 0x26F JUMP JUMPDEST PUSH1 0x40 MLOAD PUSH2 0xC6 SWAP2 SWAP1 PUSH2 0x766 JUMP JUMPDEST PUSH1 0x40 MLOAD DUP1 SWAP2 SUB SWAP1 RETURN JUMPDEST PUSH2 0xD7 PUSH2 0x29D JUMP JUMPDEST PUSH1 0x40 MLOAD PUSH2 0xE4 SWAP2 SWAP1 PUSH2 0x766 JUMP JUMPDEST PUSH1 0x40 MLOAD DUP1 SWAP2 SUB SWAP1 RETURN JUMPDEST PUSH2 0x107 PUSH1 0x4 DUP1 CALLDATASIZE SUB DUP2 ADD SWAP1 PUSH2 0x102 SWAP2 SWAP1 PUSH2 0x7AD JUMP JUMPDEST PUSH2 0x2A6 JUMP JUMPDEST PUSH1 0x40 MLOAD PUSH2 0x115 SWAP3 SWAP2 SWAP1 PUSH2 0x824 JUMP JUMPDEST PUSH1 0x40 MLOAD DUP1 SWAP2 SUB SWAP1 RETURN JUMPDEST PUSH2 0x138 PUSH1 0x4 DUP1 CALLDATASIZE SUB DUP2 ADD SWAP1 PUSH2 0x133 SWAP2 SWAP1 PUSH2 0x854 JUMP JUMPDEST PUSH2 0x362 JUMP JUMPDEST STOP JUMPDEST PUSH2 0x154 PUSH1 0x4 DUP1 CALLDATASIZE SUB DUP2 ADD SWAP1 PUSH2 0x14F SWAP2 SWAP1 PUSH2 0x7AD JUMP JUMPDEST PUSH2 0x3EB JUMP JUMPDEST STOP JUMPDEST PUSH2 0x15E PUSH2 0x3F5 JUMP JUMPDEST PUSH1 0x40 MLOAD PUSH2 0x16B SWAP2 SWAP1 PUSH2 0x766 JUMP JUMPDEST PUSH1 0x40 MLOAD DUP1 SWAP2 SUB SWAP1 RETURN JUMPDEST PUSH1 0x60 PUSH1 0x1 DUP1 SLOAD DUP1 PUSH1 0x20 MUL PUSH1 0x20 ADD PUSH1 0x40 MLOAD SWAP1 DUP2 ADD PUSH1 0x40 MSTORE DUP1 SWAP3 SWAP2 SWAP1 DUP2 DUP2 MSTORE PUSH1 0x20 ADD PUSH1 0x0 SWAP1 JUMPDEST DUP3 DUP3 LT ISZERO PUSH2 0x266 JUMPI DUP4 DUP3 SWAP1 PUSH1 0x0 MSTORE PUSH1 0x20 PUSH1 0x0 KECCAK256 SWAP1 PUSH1 0x2 MUL ADD PUSH1 0x40 MLOAD DUP1 PUSH1 0x40 ADD PUSH1 0x40 MSTORE SWAP1 DUP2 PUSH1 0x0 DUP3 ADD SLOAD DUP2 MSTORE PUSH1 0x20 ADD PUSH1 0x1 DUP3 ADD DUP1 SLOAD PUSH2 0x1D5 SWAP1 PUSH2 0x8DF JUMP JUMPDEST DUP1 PUSH1 0x1F ADD PUSH1 0x20 DUP1 SWAP2 DIV MUL PUSH1 0x20 ADD PUSH1 0x40 MLOAD SWAP1 DUP2 ADD PUSH1 0x40 MSTORE DUP1 SWAP3 SWAP2 SWAP1 DUP2 DUP2 MSTORE PUSH1 0x20 ADD DUP3 DUP1 SLOAD PUSH2 0x201 SWAP1 PUSH2 0x8DF JUMP JUMPDEST DUP1 ISZERO PUSH2 0x24E JUMPI DUP1 PUSH1 0x1F LT PUSH2 0x223 JUMPI PUSH2 0x100 DUP1 DUP4 SLOAD DIV MUL DUP4 MSTORE SWAP2 PUSH1 0x20 ADD SWAP2 PUSH2 0x24E JUMP JUMPDEST DUP3 ADD SWAP2 SWAP1 PUSH1 0x0 MSTORE PUSH1 0x20 PUSH1 0x0 KECCAK256 SWAP1 JUMPDEST DUP2 SLOAD DUP2 MSTORE SWAP1 PUSH1 0x1 ADD SWAP1 PUSH1 0x20 ADD DUP1 DUP4 GT PUSH2 0x231 JUMPI DUP3 SWAP1 SUB PUSH1 0x1F AND DUP3 ADD SWAP2 JUMPDEST POP POP POP POP POP DUP2 MSTORE POP POP DUP2 MSTORE PUSH1 0x20 ADD SWAP1 PUSH1 0x1 ADD SWAP1 PUSH2 0x198 JUMP JUMPDEST POP POP POP POP SWAP1 POP SWAP1 JUMP JUMPDEST PUSH1 0x2 DUP2 DUP1 MLOAD PUSH1 0x20 DUP2 ADD DUP3 ADD DUP1 MLOAD DUP5 DUP3 MSTORE PUSH1 0x20 DUP4 ADD PUSH1 0x20 DUP6 ADD KECCAK256 DUP2 DUP4 MSTORE DUP1 SWAP6 POP POP POP POP POP POP PUSH1 0x0 SWAP2 POP SWAP1 POP SLOAD DUP2 JUMP JUMPDEST PUSH1 0x0 DUP1 SLOAD SWAP1 POP SWAP1 JUMP JUMPDEST PUSH1 0x1 DUP2 DUP2 SLOAD DUP2 LT PUSH2 0x2B6 JUMPI PUSH1 0x0 DUP1 REVERT JUMPDEST SWAP1 PUSH1 0x0 MSTORE PUSH1 0x20 PUSH1 0x0 KECCAK256 SWAP1 PUSH1 0x2 MUL ADD PUSH1 0x0 SWAP2 POP SWAP1 POP DUP1 PUSH1 0x0 ADD SLOAD SWAP1 DUP1 PUSH1 0x1 ADD DUP1 SLOAD PUSH2 0x2DF SWAP1 PUSH2 0x8DF JUMP JUMPDEST DUP1 PUSH1 0x1F ADD PUSH1 0x20 DUP1 SWAP2 DIV MUL PUSH1 0x20 ADD PUSH1 0x40 MLOAD SWAP1 DUP2 ADD PUSH1 0x40 MSTORE DUP1 SWAP3 SWAP2 SWAP1 DUP2 DUP2 MSTORE PUSH1 0x20 ADD DUP3 DUP1 SLOAD PUSH2 0x30B SWAP1 PUSH2 0x8DF JUMP JUMPDEST DUP1 ISZERO PUSH2 0x358 JUMPI DUP1 PUSH1 0x1F LT PUSH2 0x32D JUMPI PUSH2 0x100 DUP1 DUP4 SLOAD DIV MUL DUP4 MSTORE SWAP2 PUSH1 0x20 ADD SWAP2 PUSH2 0x358 JUMP JUMPDEST DUP3 ADD SWAP2 SWAP1 PUSH1 0x0 MSTORE PUSH1 0x20 PUSH1 0x0 KECCAK256 SWAP1 JUMPDEST DUP2 SLOAD DUP2 MSTORE SWAP1 PUSH1 0x1 ADD SWAP1 PUSH1 0x20 ADD DUP1 DUP4 GT PUSH2 0x33B JUMPI DUP3 SWAP1 SUB PUSH1 0x1F AND DUP3 ADD SWAP2 JUMPDEST POP POP POP POP POP SWAP1 POP DUP3 JUMP JUMPDEST PUSH1 0x1 PUSH1 0x40 MLOAD DUP1 PUSH1 0x40 ADD PUSH1 0x40 MSTORE DUP1 DUP5 DUP2 MSTORE PUSH1 0x20 ADD DUP4 DUP2 MSTORE POP SWAP1 DUP1 PUSH1 0x1 DUP2 SLOAD ADD DUP1 DUP3 SSTORE DUP1 SWAP2 POP POP PUSH1 0x1 SWAP1 SUB SWAP1 PUSH1 0x0 MSTORE PUSH1 0x20 PUSH1 0x0 KECCAK256 SWAP1 PUSH1 0x2 MUL ADD PUSH1 0x0 SWAP1 SWAP2 SWAP1 SWAP2 SWAP1 SWAP2 POP PUSH1 0x0 DUP3 ADD MLOAD DUP2 PUSH1 0x0 ADD SSTORE PUSH1 0x20 DUP3 ADD MLOAD DUP2 PUSH1 0x1 ADD SWAP1 DUP2 PUSH2 0x3C1 SWAP2 SWAP1 PUSH2 0xABC JUMP JUMPDEST POP POP POP DUP2 PUSH1 0x2 DUP3 PUSH1 0x40 MLOAD PUSH2 0x3D5 SWAP2 SWAP1 PUSH2 0xBCA JUMP JUMPDEST SWAP1 DUP2 MSTORE PUSH1 0x20 ADD PUSH1 0x40 MLOAD DUP1 SWAP2 SUB SWAP1 KECCAK256 DUP2 SWAP1 SSTORE POP POP POP JUMP JUMPDEST DUP1 PUSH1 0x0 DUP2 SWAP1 SSTORE POP POP JUMP JUMPDEST PUSH1 0x0 SLOAD DUP2 JUMP JUMPDEST PUSH1 0x0 DUP2 MLOAD SWAP1 POP SWAP2 SWAP1 POP JUMP JUMPDEST PUSH1 0x0 DUP3 DUP3 MSTORE PUSH1 0x20 DUP3 ADD SWAP1 POP SWAP3 SWAP2 POP POP JUMP JUMPDEST PUSH1 0x0 DUP2 SWAP1 POP PUSH1 0x20 DUP3 ADD SWAP1 POP SWAP2 SWAP1 POP JUMP JUMPDEST PUSH1 0x0 DUP2 SWAP1 POP SWAP2 SWAP1 POP JUMP JUMPDEST PUSH2 0x43A DUP2 PUSH2 0x427 JUMP JUMPDEST DUP3 MSTORE POP POP JUMP JUMPDEST PUSH1 0x0 DUP2 MLOAD SWAP1 POP SWAP2 SWAP1 POP JUMP JUMPDEST PUSH1 0x0 DUP3 DUP3 MSTORE PUSH1 0x20 DUP3 ADD SWAP1 POP SWAP3 SWAP2 POP POP JUMP JUMPDEST PUSH1 0x0 JUMPDEST DUP4 DUP2 LT ISZERO PUSH2 0x47A JUMPI DUP1 DUP3 ADD MLOAD DUP2 DUP5 ADD MSTORE PUSH1 0x20 DUP2 ADD SWAP1 POP PUSH2 0x45F JUMP JUMPDEST PUSH1 0x0 DUP5 DUP5 ADD MSTORE POP POP POP POP JUMP JUMPDEST PUSH1 0x0 PUSH1 0x1F NOT PUSH1 0x1F DUP4 ADD AND SWAP1 POP SWAP2 SWAP1 POP JUMP JUMPDEST PUSH1 0x0 PUSH2 0x4A2 DUP3 PUSH2 0x440 JUMP JUMPDEST PUSH2 0x4AC DUP2 DUP6 PUSH2 0x44B JUMP JUMPDEST SWAP4 POP PUSH2 0x4BC DUP2 DUP6 PUSH1 0x20 DUP7 ADD PUSH2 0x45C JUMP JUMPDEST PUSH2 0x4C5 DUP2 PUSH2 0x486 JUMP JUMPDEST DUP5 ADD SWAP2 POP POP SWAP3 SWAP2 POP POP JUMP JUMPDEST PUSH1 0x0 PUSH1 0x40 DUP4 ADD PUSH1 0x0 DUP4 ADD MLOAD PUSH2 0x4E8 PUSH1 0x0 DUP7 ADD DUP3 PUSH2 0x431 JUMP JUMPDEST POP PUSH1 0x20 DUP4 ADD MLOAD DUP5 DUP3 SUB PUSH1 0x20 DUP7 ADD MSTORE PUSH2 0x500 DUP3 DUP3 PUSH2 0x497 JUMP JUMPDEST SWAP2 POP POP DUP1 SWAP2 POP POP SWAP3 SWAP2 POP POP JUMP JUMPDEST PUSH1 0x0 PUSH2 0x519 DUP4 DUP4 PUSH2 0x4D0 JUMP JUMPDEST SWAP1 POP SWAP3 SWAP2 POP POP JUMP JUMPDEST PUSH1 0x0 PUSH1 0x20 DUP3 ADD SWAP1 POP SWAP2 SWAP1 POP JUMP JUMPDEST PUSH1 0x0 PUSH2 0x539 DUP3 PUSH2 0x3FB JUMP JUMPDEST PUSH2 0x543 DUP2 DUP6 PUSH2 0x406 JUMP JUMPDEST SWAP4 POP DUP4 PUSH1 0x20 DUP3 MUL DUP6 ADD PUSH2 0x555 DUP6 PUSH2 0x417 JUMP JUMPDEST DUP1 PUSH1 0x0 JUMPDEST DUP6 DUP2 LT ISZERO PUSH2 0x591 JUMPI DUP5 DUP5 SUB DUP10 MSTORE DUP2 MLOAD PUSH2 0x572 DUP6 DUP3 PUSH2 0x50D JUMP JUMPDEST SWAP5 POP PUSH2 0x57D DUP4 PUSH2 0x521 JUMP JUMPDEST SWAP3 POP PUSH1 0x20 DUP11 ADD SWAP10 POP POP PUSH1 0x1 DUP2 ADD SWAP1 POP PUSH2 0x559 JUMP JUMPDEST POP DUP3 SWAP8 POP DUP8 SWAP6 POP POP POP POP POP POP SWAP3 SWAP2 POP POP JUMP JUMPDEST PUSH1 0x0 PUSH1 0x20 DUP3 ADD SWAP1 POP DUP2 DUP2 SUB PUSH1 0x0 DUP4 ADD MSTORE PUSH2 0x5BD DUP2 DUP5 PUSH2 0x52E JUMP JUMPDEST SWAP1 POP SWAP3 SWAP2 POP POP JUMP JUMPDEST PUSH1 0x0 PUSH1 0x40 MLOAD SWAP1 POP SWAP1 JUMP JUMPDEST PUSH1 0x0 DUP1 REVERT JUMPDEST PUSH1 0x0 DUP1 REVERT JUMPDEST PUSH1 0x0 DUP1 REVERT JUMPDEST PUSH1 0x0 DUP1 REVERT JUMPDEST PUSH32 0x4E487B7100000000000000000000000000000000000000000000000000000000 PUSH1 0x0 MSTORE PUSH1 0x41 PUSH1 0x4 MSTORE PUSH1 0x24 PUSH1 0x0 REVERT JUMPDEST PUSH2 0x61B DUP3 PUSH2 0x486 JUMP JUMPDEST DUP2 ADD DUP2 DUP2 LT PUSH8 0xFFFFFFFFFFFFFFFF DUP3 GT OR ISZERO PUSH2 0x63A JUMPI PUSH2 0x639 PUSH2 0x5E3 JUMP JUMPDEST JUMPDEST DUP1 PUSH1 0x40 MSTORE POP POP POP JUMP JUMPDEST PUSH1 0x0 PUSH2 0x64D PUSH2 0x5C5 JUMP JUMPDEST SWAP1 POP PUSH2 0x659 DUP3 DUP3 PUSH2 0x612 JUMP JUMPDEST SWAP2 SWAP1 POP JUMP JUMPDEST PUSH1 0x0 PUSH8 0xFFFFFFFFFFFFFFFF DUP3 GT ISZERO PUSH2 0x679 JUMPI PUSH2 0x678 PUSH2 0x5E3 JUMP JUMPDEST JUMPDEST PUSH2 0x682 DUP3 PUSH2 0x486 JUMP JUMPDEST SWAP1 POP PUSH1 0x20 DUP2 ADD SWAP1 POP SWAP2 SWAP1 POP JUMP JUMPDEST DUP3 DUP2 DUP4 CALLDATACOPY PUSH1 0x0 DUP4 DUP4 ADD MSTORE POP POP POP JUMP JUMPDEST PUSH1 0x0 PUSH2 0x6B1 PUSH2 0x6AC DUP5 PUSH2 0x65E JUMP JUMPDEST PUSH2 0x643 JUMP JUMPDEST SWAP1 POP DUP3 DUP2 MSTORE PUSH1 0x20 DUP2 ADD DUP5 DUP5 DUP5 ADD GT ISZERO PUSH2 0x6CD JUMPI PUSH2 0x6CC PUSH2 0x5DE JUMP JUMPDEST JUMPDEST PUSH2 0x6D8 DUP5 DUP3 DUP6 PUSH2 0x68F JUMP JUMPDEST POP SWAP4 SWAP3 POP POP POP JUMP JUMPDEST PUSH1 0x0 DUP3 PUSH1 0x1F DUP4 ADD SLT PUSH2 0x6F5 JUMPI PUSH2 0x6F4 PUSH2 0x5D9 JUMP JUMPDEST JUMPDEST DUP2 CALLDATALOAD PUSH2 0x705 DUP5 DUP3 PUSH1 0x20 DUP7 ADD PUSH2 0x69E JUMP JUMPDEST SWAP2 POP POP SWAP3 SWAP2 POP POP JUMP JUMPDEST PUSH1 0x0 PUSH1 0x20 DUP3 DUP5 SUB SLT ISZERO PUSH2 0x724 JUMPI PUSH2 0x723 PUSH2 0x5CF JUMP JUMPDEST JUMPDEST PUSH1 0x0 DUP3 ADD CALLDATALOAD PUSH8 0xFFFFFFFFFFFFFFFF DUP2 GT ISZERO PUSH2 0x742 JUMPI PUSH2 0x741 PUSH2 0x5D4 JUMP JUMPDEST JUMPDEST PUSH2 0x74E DUP5 DUP3 DUP6 ADD PUSH2 0x6E0 JUMP JUMPDEST SWAP2 POP POP SWAP3 SWAP2 POP POP JUMP JUMPDEST PUSH2 0x760 DUP2 PUSH2 0x427 JUMP JUMPDEST DUP3 MSTORE POP POP JUMP JUMPDEST PUSH1 0x0 PUSH1 0x20 DUP3 ADD SWAP1 POP PUSH2 0x77B PUSH1 0x0 DUP4 ADD DUP5 PUSH2 0x757 JUMP JUMPDEST SWAP3 SWAP2 POP POP JUMP JUMPDEST PUSH2 0x78A DUP2 PUSH2 0x427 JUMP JUMPDEST DUP2 EQ PUSH2 0x795 JUMPI PUSH1 0x0 DUP1 REVERT JUMPDEST POP JUMP JUMPDEST PUSH1 0x0 DUP2 CALLDATALOAD SWAP1 POP PUSH2 0x7A7 DUP2 PUSH2 0x781 JUMP JUMPDEST SWAP3 SWAP2 POP POP JUMP JUMPDEST PUSH1 0x0 PUSH1 0x20 DUP3 DUP5 SUB SLT ISZERO PUSH2 0x7C3 JUMPI PUSH2 0x7C2 PUSH2 0x5CF JUMP JUMPDEST JUMPDEST PUSH1 0x0 PUSH2 0x7D1 DUP5 DUP3 DUP6 ADD PUSH2 0x798 JUMP JUMPDEST SWAP2 POP POP SWAP3 SWAP2 POP POP JUMP JUMPDEST PUSH1 0x0 DUP3 DUP3 MSTORE PUSH1 0x20 DUP3 ADD SWAP1 POP SWAP3 SWAP2 POP POP JUMP JUMPDEST PUSH1 0x0 PUSH2 0x7F6 DUP3 PUSH2 0x440 JUMP JUMPDEST PUSH2 0x800 DUP2 DUP6 PUSH2 0x7DA JUMP JUMPDEST SWAP4 POP PUSH2 0x810 DUP2 DUP6 PUSH1 0x20 DUP7 ADD PUSH2 0x45C JUMP JUMPDEST PUSH2 0x819 DUP2 PUSH2 0x486 JUMP JUMPDEST DUP5 ADD SWAP2 POP POP SWAP3 SWAP2 POP POP JUMP JUMPDEST PUSH1 0x0 PUSH1 0x40 DUP3 ADD SWAP1 POP PUSH2 0x839 PUSH1 0x0 DUP4 ADD DUP6 PUSH2 0x757 JUMP JUMPDEST DUP2 DUP2 SUB PUSH1 0x20 DUP4 ADD MSTORE PUSH2 0x84B DUP2 DUP5 PUSH2 0x7EB JUMP JUMPDEST SWAP1 POP SWAP4 SWAP3 POP POP POP JUMP JUMPDEST PUSH1 0x0 DUP1 PUSH1 0x40 DUP4 DUP6 SUB SLT ISZERO PUSH2 0x86B JUMPI PUSH2 0x86A PUSH2 0x5CF JUMP JUMPDEST JUMPDEST PUSH1 0x0 PUSH2 0x879 DUP6 DUP3 DUP7 ADD PUSH2 0x798 JUMP JUMPDEST SWAP3 POP POP PUSH1 0x20 DUP4 ADD CALLDATALOAD PUSH8 0xFFFFFFFFFFFFFFFF DUP2 GT ISZERO PUSH2 0x89A JUMPI PUSH2 0x899 PUSH2 0x5D4 JUMP JUMPDEST JUMPDEST PUSH2 0x8A6 DUP6 DUP3 DUP7 ADD PUSH2 0x6E0 JUMP JUMPDEST SWAP2 POP POP SWAP3 POP SWAP3 SWAP1 POP JUMP JUMPDEST PUSH32 0x4E487B7100000000000000000000000000000000000000000000000000000000 PUSH1 0x0 MSTORE PUSH1 0x22 PUSH1 0x4 MSTORE PUSH1 0x24 PUSH1 0x0 REVERT JUMPDEST PUSH1 0x0 PUSH1 0x2 DUP3 DIV SWAP1 POP PUSH1 0x1 DUP3 AND DUP1 PUSH2 0x8F7 JUMPI PUSH1 0x7F DUP3 AND SWAP2 POP JUMPDEST PUSH1 0x20 DUP3 LT DUP2 SUB PUSH2 0x90A JUMPI PUSH2 0x909 PUSH2 0x8B0 JUMP JUMPDEST JUMPDEST POP SWAP2 SWAP1 POP JUMP JUMPDEST PUSH1 0x0 DUP2 SWAP1 POP DUP2 PUSH1 0x0 MSTORE PUSH1 0x20 PUSH1 0x0 KECCAK256 SWAP1 POP SWAP2 SWAP1 POP JUMP JUMPDEST PUSH1 0x0 PUSH1 0x20 PUSH1 0x1F DUP4 ADD DIV SWAP1 POP SWAP2 SWAP1 POP JUMP JUMPDEST PUSH1 0x0 DUP3 DUP3 SHL SWAP1 POP SWAP3 SWAP2 POP POP JUMP JUMPDEST PUSH1 0x0 PUSH1 0x8 DUP4 MUL PUSH2 0x972 PUSH32 0xFFFFFFFFFFFFFFFFFFFFFFFFFFFFFFFFFFFFFFFFFFFFFFFFFFFFFFFFFFFFFFFF DUP3 PUSH2 0x935 JUMP JUMPDEST PUSH2 0x97C DUP7 DUP4 PUSH2 0x935 JUMP JUMPDEST SWAP6 POP DUP1 NOT DUP5 AND SWAP4 POP DUP1 DUP7 AND DUP5 OR SWAP3 POP POP POP SWAP4 SWAP3 POP POP POP JUMP JUMPDEST PUSH1 0x0 DUP2 SWAP1 POP SWAP2 SWAP1 POP JUMP JUMPDEST PUSH1 0x0 PUSH2 0x9B9 PUSH2 0x9B4 PUSH2 0x9AF DUP5 PUSH2 0x427 JUMP JUMPDEST PUSH2 0x994 JUMP JUMPDEST PUSH2 0x427 JUMP JUMPDEST SWAP1 POP SWAP2 SWAP1 POP JUMP JUMPDEST PUSH1 0x0 DUP2 SWAP1 POP SWAP2 SWAP1 POP JUMP JUMPDEST PUSH2 0x9D3 DUP4 PUSH2 0x99E JUMP JUMPDEST PUSH2 0x9E7 PUSH2 0x9DF DUP3 PUSH2 0x9C0 JUMP JUMPDEST DUP5 DUP5 SLOAD PUSH2 0x942 JUMP JUMPDEST DUP3 SSTORE POP POP POP POP JUMP JUMPDEST PUSH1 0x0 SWAP1 JUMP JUMPDEST PUSH2 0x9FC PUSH2 0x9EF JUMP JUMPDEST PUSH2 0xA07 DUP2 DUP5 DUP5 PUSH2 0x9CA JUMP JUMPDEST POP POP POP JUMP JUMPDEST JUMPDEST DUP2 DUP2 LT ISZERO PUSH2 0xA2B JUMPI PUSH2 0xA20 PUSH1 0x0 DUP3 PUSH2 0x9F4 JUMP JUMPDEST PUSH1 0x1 DUP2 ADD SWAP1 POP PUSH2 0xA0D JUMP JUMPDEST POP POP JUMP JUMPDEST PUSH1 0x1F DUP3 GT ISZERO PUSH2 0xA70 JUMPI PUSH2 0xA41 DUP2 PUSH2 0x910 JUMP JUMPDEST PUSH2 0xA4A DUP5 PUSH2 0x925 JUMP JUMPDEST DUP2 ADD PUSH1 0x20 DUP6 LT ISZERO PUSH2 0xA59 JUMPI DUP2 SWAP1 POP JUMPDEST PUSH2 0xA6D PUSH2 0xA65 DUP6 PUSH2 0x925 JUMP JUMPDEST DUP4 ADD DUP3 PUSH2 0xA0C JUMP JUMPDEST POP POP JUMPDEST POP POP POP JUMP JUMPDEST PUSH1 0x0 DUP3 DUP3 SHR SWAP1 POP SWAP3 SWAP2 POP POP JUMP JUMPDEST PUSH1 0x0 PUSH2 0xA93 PUSH1 0x0 NOT DUP5 PUSH1 0x8 MUL PUSH2 0xA75 JUMP JUMPDEST NOT DUP1 DUP4 AND SWAP2 POP POP SWAP3 SWAP2 POP POP JUMP JUMPDEST PUSH1 0x0 PUSH2 0xAAC DUP4 DUP4 PUSH2 0xA82 JUMP JUMPDEST SWAP2 POP DUP3 PUSH1 0x2 MUL DUP3 OR SWAP1 POP SWAP3 SWAP2 POP POP JUMP JUMPDEST PUSH2 0xAC5 DUP3 PUSH2 0x440 JUMP JUMPDEST PUSH8 0xFFFFFFFFFFFFFFFF DUP2 GT ISZERO PUSH2 0xADE JUMPI PUSH2 0xADD PUSH2 0x5E3 JUMP JUMPDEST JUMPDEST PUSH2 0xAE8 DUP3 SLOAD PUSH2 0x8DF JUMP JUMPDEST PUSH2 0xAF3 DUP3 DUP3 DUP6 PUSH2 0xA2F JUMP JUMPDEST PUSH1 0x0 PUSH1 0x20 SWAP1 POP PUSH1 0x1F DUP4 GT PUSH1 0x1 DUP2 EQ PUSH2 0xB26 JUMPI PUSH1 0x0 DUP5 ISZERO PUSH2 0xB14 JUMPI DUP3 DUP8 ADD MLOAD SWAP1 POP JUMPDEST PUSH2 0xB1E DUP6 DUP3 PUSH2 0xAA0 JUMP JUMPDEST DUP7 SSTORE POP PUSH2 0xB86 JUMP JUMPDEST PUSH1 0x1F NOT DUP5 AND PUSH2 0xB34 DUP7 PUSH2 0x910 JUMP JUMPDEST PUSH1 0x0 JUMPDEST DUP3 DUP2 LT ISZERO PUSH2 0xB5C JUMPI DUP5 DUP10 ADD MLOAD DUP3 SSTORE PUSH1 0x1 DUP3 ADD SWAP2 POP PUSH1 0x20 DUP6 ADD SWAP5 POP PUSH1 0x20 DUP2 ADD SWAP1 POP PUSH2 0xB37 JUMP JUMPDEST DUP7 DUP4 LT ISZERO PUSH2 0xB79 JUMPI DUP5 DUP10 ADD MLOAD PUSH2 0xB75 PUSH1 0x1F DUP10 AND DUP3 PUSH2 0xA82 JUMP JUMPDEST DUP4 SSTORE POP JUMPDEST PUSH1 0x1 PUSH1 0x2 DUP9 MUL ADD DUP9 SSTORE POP POP POP JUMPDEST POP POP POP POP POP POP JUMP JUMPDEST PUSH1 0x0 DUP2 SWAP1 POP SWAP3 SWAP2 POP POP JUMP JUMPDEST PUSH1 0x0 PUSH2 0xBA4 DUP3 PUSH2 0x440 JUMP JUMPDEST PUSH2 0xBAE DUP2 DUP6 PUSH2 0xB8E JUMP JUMPDEST SWAP4 POP PUSH2 0xBBE DUP2 DUP6 PUSH1 0x20 DUP7 ADD PUSH2 0x45C JUMP JUMPDEST DUP1 DUP5 ADD SWAP2 POP POP SWAP3 SWAP2 POP POP JUMP JUMPDEST PUSH1 0x0 PUSH2 0xBD6 DUP3 DUP5 PUSH2 0xB99 JUMP JUMPDEST SWAP2 POP DUP2 SWAP1 POP SWAP3 SWAP2 POP POP JUMP INVALID LOG2 PUSH5 0x6970667358 0x22 SLT KECCAK256 DUP2 0xC8 LOG2 CALLCODE SHL 0x1F PUSH4 0xFDA365C1 DUP11 0xB4 DUP15 ADDRESS NUMBER 0x27 0xE2 MSIZE CALLDATALOAD PC DUP15 CREATE 0xB4 0x21 PUSH21 0x39BF5F37C50664736F6C63430008120033A2646970 PUSH7 0x7358221220F7ED DUP10 PUSH13 0xE20CDA2CEBB41030658A642830 0xD8 SWAP11 BYTE SWAP11 DUP15 SDIV SWAP10 0xC5 0xED 0xCE SWAP3 DUP11 0xDF SWAP11 CALLVALUE PUSH5 0x736F6C6343 STOP ADDMOD SLT STOP CALLER "},"methodIdentifiers":{"creatSimpleStorageContract()":"969c7f5a","getContracts()":"c3a2a93a","sfRetrive(uint256)":"44782747","sfStore(uint256,uint256)":"1563700f","simpleStorageContracts(uint256)":"a5772eba"}}}}}