{
	"contracts/Simple_storage.sol": {
		"SimpleStorage": {
			"abi": [
				{
					"inputs": [
						{
							"internalType": "uint256",
							"name": "_favNum",
							"type": "uint256"
						},
						{
							"internalType": "string",
							"name": "_name",
							"type": "string"
						}
					],
					"name": "addFriend",
					"outputs": [],
					"stateMutability": "nonpayable",
					"type": "function"
				},
				{
					"inputs": [],
					"name": "getUsers",
					"outputs": [
						{
							"components": [
								{
									"internalType": "uint256",
									"name": "favNum",
									"type": "uint256"
								},
								{
									"internalType": "string",
									"name": "name",
									"type": "string"
								}
							],
							"internalType": "struct SimpleStorage.Person[]",
							"name": "",
							"type": "tuple[]"
						}
					],
					"stateMutability": "view",
					"type": "function"
				},
				{
					"inputs": [],
					"name": "myFavNumber",
					"outputs": [
						{
							"internalType": "uint256",
							"name": "",
							"type": "uint256"
						}
					],
					"stateMutability": "view",
					"type": "function"
				},
				{
					"inputs": [
						{
							"internalType": "string",
							"name": "",
							"type": "string"
						}
					],
					"name": "nameToFavNum",
					"outputs": [
						{
							"internalType": "uint256",
							"name": "",
							"type": "uint256"
						}
					],
					"stateMutability": "view",
					"type": "function"
				},
				{
					"inputs": [],
					"name": "retrieve",
					"outputs": [
						{
							"internalType": "uint256",
							"name": "",
							"type": "uint256"
						}
					],
					"stateMutability": "view",
					"type": "function"
				},
				{
					"inputs": [
						{
							"internalType": "uint256",
							"name": "_number",
							"type": "uint256"
						}
					],
					"name": "store",
					"outputs": [],
					"stateMutability": "nonpayable",
					"type": "function"
				},
				{
					"inputs": [
						{
							"internalType": "uint256",
							"name": "",
							"type": "uint256"
						}
					],
					"name": "users",
					"outputs": [
						{
							"internalType": "uint256",
							"name": "favNum",
							"type": "uint256"
						},
						{
							"internalType": "string",
							"name": "name",
							"type": "string"
						}
					],
					"stateMutability": "view",
					"type": "function"
				}
			],
			"devdoc": {
				"kind": "dev",
				"methods": {},
				"version": 1
			},
			"evm": {
				"assembly": "    /* \"contracts/Simple_storage.sol\":68:736  contract SimpleStorage {... */\n  mstore(0x40, 0x80)\n  callvalue\n  dup1\n  iszero\n  tag_1\n  jumpi\n  revert(0x00, 0x00)\ntag_1:\n  pop\n  dataSize(sub_0)\n  dup1\n  dataOffset(sub_0)\n  0x00\n  codecopy\n  0x00\n  return\nstop\n\nsub_0: assembly {\n        /* \"contracts/Simple_storage.sol\":68:736  contract SimpleStorage {... */\n      mstore(0x40, 0x80)\n      callvalue\n      dup1\n      iszero\n      tag_1\n      jumpi\n      revert(0x00, 0x00)\n    tag_1:\n      pop\n      jumpi(tag_2, lt(calldatasize, 0x04))\n      shr(0xe0, calldataload(0x00))\n      dup1\n      0x365b98b2\n      gt\n      tag_10\n      jumpi\n      dup1\n      0x365b98b2\n      eq\n      tag_6\n      jumpi\n      dup1\n      0x56a7d90a\n      eq\n      tag_7\n      jumpi\n      dup1\n      0x6057361d\n      eq\n      tag_8\n      jumpi\n      dup1\n      0xdf986725\n      eq\n      tag_9\n      jumpi\n      jump(tag_2)\n    tag_10:\n      dup1\n      0xce8e3e\n      eq\n      tag_3\n      jumpi\n      dup1\n      0x06c62c2c\n      eq\n      tag_4\n      jumpi\n      dup1\n      0x2e64cec1\n      eq\n      tag_5\n      jumpi\n    tag_2:\n      revert(0x00, 0x00)\n        /* \"contracts/Simple_storage.sol\":479:568  function getUsers() public view returns (Person[] memory) {... */\n    tag_3:\n      tag_11\n      tag_12\n      jump\t// in\n    tag_11:\n      mload(0x40)\n      tag_13\n      swap2\n      swap1\n      tag_14\n      jump\t// in\n    tag_13:\n      mload(0x40)\n      dup1\n      swap2\n      sub\n      swap1\n      return\n        /* \"contracts/Simple_storage.sol\":242:288  mapping(string => uint256) public nameToFavNum */\n    tag_4:\n      tag_15\n      0x04\n      dup1\n      calldatasize\n      sub\n      dup2\n      add\n      swap1\n      tag_16\n      swap2\n      swap1\n      tag_17\n      jump\t// in\n    tag_16:\n      tag_18\n      jump\t// in\n    tag_15:\n      mload(0x40)\n      tag_19\n      swap2\n      swap1\n      tag_20\n      jump\t// in\n    tag_19:\n      mload(0x40)\n      dup1\n      swap2\n      sub\n      swap1\n      return\n        /* \"contracts/Simple_storage.sol\":384:471  function retrieve() public view returns (uint256) {... */\n    tag_5:\n      tag_21\n      tag_22\n      jump\t// in\n    tag_21:\n      mload(0x40)\n      tag_23\n      swap2\n      swap1\n      tag_20\n      jump\t// in\n    tag_23:\n      mload(0x40)\n      dup1\n      swap2\n      sub\n      swap1\n      return\n        /* \"contracts/Simple_storage.sol\":214:235  Person[] public users */\n    tag_6:\n      tag_24\n      0x04\n      dup1\n      calldatasize\n      sub\n      dup2\n      add\n      swap1\n      tag_25\n      swap2\n      swap1\n      tag_26\n      jump\t// in\n    tag_25:\n      tag_27\n      jump\t// in\n    tag_24:\n      mload(0x40)\n      tag_28\n      swap3\n      swap2\n      swap1\n      tag_29\n      jump\t// in\n    tag_28:\n      mload(0x40)\n      dup1\n      swap2\n      sub\n      swap1\n      return\n        /* \"contracts/Simple_storage.sol\":576:733  function addFriend(uint256 _favNum, string memory _name) public {... */\n    tag_7:\n      tag_30\n      0x04\n      dup1\n      calldatasize\n      sub\n      dup2\n      add\n      swap1\n      tag_31\n      swap2\n      swap1\n      tag_32\n      jump\t// in\n    tag_31:\n      tag_33\n      jump\t// in\n    tag_30:\n      stop\n        /* \"contracts/Simple_storage.sol\":297:376  function store(uint256 _number) public {... */\n    tag_8:\n      tag_34\n      0x04\n      dup1\n      calldatasize\n      sub\n      dup2\n      add\n      swap1\n      tag_35\n      swap2\n      swap1\n      tag_26\n      jump\t// in\n    tag_35:\n      tag_36\n      jump\t// in\n    tag_34:\n      stop\n        /* \"contracts/Simple_storage.sol\":181:207  uint256 public myFavNumber */\n    tag_9:\n      tag_37\n      tag_38\n      jump\t// in\n    tag_37:\n      mload(0x40)\n      tag_39\n      swap2\n      swap1\n      tag_20\n      jump\t// in\n    tag_39:\n      mload(0x40)\n      dup1\n      swap2\n      sub\n      swap1\n      return\n        /* \"contracts/Simple_storage.sol\":479:568  function getUsers() public view returns (Person[] memory) {... */\n    tag_12:\n        /* \"contracts/Simple_storage.sol\":520:535  Person[] memory */\n      0x60\n        /* \"contracts/Simple_storage.sol\":555:560  users */\n      0x01\n        /* \"contracts/Simple_storage.sol\":548:560  return users */\n      dup1\n      sload\n      dup1\n      0x20\n      mul\n      0x20\n      add\n      mload(0x40)\n      swap1\n      dup2\n      add\n      0x40\n      mstore\n      dup1\n      swap3\n      swap2\n      swap1\n      dup2\n      dup2\n      mstore\n      0x20\n      add\n      0x00\n      swap1\n    tag_41:\n      dup3\n      dup3\n      lt\n      iszero\n      tag_42\n      jumpi\n      dup4\n      dup3\n      swap1\n      0x00\n      mstore\n      keccak256(0x00, 0x20)\n      swap1\n      0x02\n      mul\n      add\n      mload(0x40)\n      dup1\n      0x40\n      add\n      0x40\n      mstore\n      swap1\n      dup2\n      0x00\n      dup3\n      add\n      sload\n      dup2\n      mstore\n      0x20\n      add\n      0x01\n      dup3\n      add\n      dup1\n      sload\n      tag_44\n      swap1\n      tag_45\n      jump\t// in\n    tag_44:\n      dup1\n      0x1f\n      add\n      0x20\n      dup1\n      swap2\n      div\n      mul\n      0x20\n      add\n      mload(0x40)\n      swap1\n      dup2\n      add\n      0x40\n      mstore\n      dup1\n      swap3\n      swap2\n      swap1\n      dup2\n      dup2\n      mstore\n      0x20\n      add\n      dup3\n      dup1\n      sload\n      tag_46\n      swap1\n      tag_45\n      jump\t// in\n    tag_46:\n      dup1\n      iszero\n      tag_47\n      jumpi\n      dup1\n      0x1f\n      lt\n      tag_48\n      jumpi\n      0x0100\n      dup1\n      dup4\n      sload\n      div\n      mul\n      dup4\n      mstore\n      swap2\n      0x20\n      add\n      swap2\n      jump(tag_47)\n    tag_48:\n      dup3\n      add\n      swap2\n      swap1\n      0x00\n      mstore\n      keccak256(0x00, 0x20)\n      swap1\n    tag_49:\n      dup2\n      sload\n      dup2\n      mstore\n      swap1\n      0x01\n      add\n      swap1\n      0x20\n      add\n      dup1\n      dup4\n      gt\n      tag_49\n      jumpi\n      dup3\n      swap1\n      sub\n      0x1f\n      and\n      dup3\n      add\n      swap2\n    tag_47:\n      pop\n      pop\n      pop\n      pop\n      pop\n      dup2\n      mstore\n      pop\n      pop\n      dup2\n      mstore\n      0x20\n      add\n      swap1\n      0x01\n      add\n      swap1\n      jump(tag_41)\n    tag_42:\n      pop\n      pop\n      pop\n      pop\n      swap1\n      pop\n        /* \"contracts/Simple_storage.sol\":479:568  function getUsers() public view returns (Person[] memory) {... */\n      swap1\n      jump\t// out\n        /* \"contracts/Simple_storage.sol\":242:288  mapping(string => uint256) public nameToFavNum */\n    tag_18:\n      0x02\n      dup2\n      dup1\n      mload\n      0x20\n      dup2\n      add\n      dup3\n      add\n      dup1\n      mload\n      dup5\n      dup3\n      mstore\n      0x20\n      dup4\n      add\n      0x20\n      dup6\n      add\n      keccak256\n      dup2\n      dup4\n      mstore\n      dup1\n      swap6\n      pop\n      pop\n      pop\n      pop\n      pop\n      pop\n      0x00\n      swap2\n      pop\n      swap1\n      pop\n      sload\n      dup2\n      jump\t// out\n        /* \"contracts/Simple_storage.sol\":384:471  function retrieve() public view returns (uint256) {... */\n    tag_22:\n        /* \"contracts/Simple_storage.sol\":425:432  uint256 */\n      0x00\n        /* \"contracts/Simple_storage.sol\":452:463  myFavNumber */\n      sload(0x00)\n        /* \"contracts/Simple_storage.sol\":445:463  return myFavNumber */\n      swap1\n      pop\n        /* \"contracts/Simple_storage.sol\":384:471  function retrieve() public view returns (uint256) {... */\n      swap1\n      jump\t// out\n        /* \"contracts/Simple_storage.sol\":214:235  Person[] public users */\n    tag_27:\n      0x01\n      dup2\n      dup2\n      sload\n      dup2\n      lt\n      tag_51\n      jumpi\n      0x00\n      dup1\n      revert\n    tag_51:\n      swap1\n      0x00\n      mstore\n      keccak256(0x00, 0x20)\n      swap1\n      0x02\n      mul\n      add\n      0x00\n      swap2\n      pop\n      swap1\n      pop\n      dup1\n      0x00\n      add\n      sload\n      swap1\n      dup1\n      0x01\n      add\n      dup1\n      sload\n      tag_53\n      swap1\n      tag_45\n      jump\t// in\n    tag_53:\n      dup1\n      0x1f\n      add\n      0x20\n      dup1\n      swap2\n      div\n      mul\n      0x20\n      add\n      mload(0x40)\n      swap1\n      dup2\n      add\n      0x40\n      mstore\n      dup1\n      swap3\n      swap2\n      swap1\n      dup2\n      dup2\n      mstore\n      0x20\n      add\n      dup3\n      dup1\n      sload\n      tag_54\n      swap1\n      tag_45\n      jump\t// in\n    tag_54:\n      dup1\n      iszero\n      tag_55\n      jumpi\n      dup1\n      0x1f\n      lt\n      tag_56\n      jumpi\n      0x0100\n      dup1\n      dup4\n      sload\n      div\n      mul\n      dup4\n      mstore\n      swap2\n      0x20\n      add\n      swap2\n      jump(tag_55)\n    tag_56:\n      dup3\n      add\n      swap2\n      swap1\n      0x00\n      mstore\n      keccak256(0x00, 0x20)\n      swap1\n    tag_57:\n      dup2\n      sload\n      dup2\n      mstore\n      swap1\n      0x01\n      add\n      swap1\n      0x20\n      add\n      dup1\n      dup4\n      gt\n      tag_57\n      jumpi\n      dup3\n      swap1\n      sub\n      0x1f\n      and\n      dup3\n      add\n      swap2\n    tag_55:\n      pop\n      pop\n      pop\n      pop\n      pop\n      swap1\n      pop\n      dup3\n      jump\t// out\n        /* \"contracts/Simple_storage.sol\":576:733  function addFriend(uint256 _favNum, string memory _name) public {... */\n    tag_33:\n        /* \"contracts/Simple_storage.sol\":651:656  users */\n      0x01\n        /* \"contracts/Simple_storage.sol\":662:684  Person(_favNum, _name) */\n      mload(0x40)\n      dup1\n      0x40\n      add\n      0x40\n      mstore\n      dup1\n        /* \"contracts/Simple_storage.sol\":669:676  _favNum */\n      dup5\n        /* \"contracts/Simple_storage.sol\":662:684  Person(_favNum, _name) */\n      dup2\n      mstore\n      0x20\n      add\n        /* \"contracts/Simple_storage.sol\":678:683  _name */\n      dup4\n        /* \"contracts/Simple_storage.sol\":662:684  Person(_favNum, _name) */\n      dup2\n      mstore\n      pop\n        /* \"contracts/Simple_storage.sol\":651:685  users.push(Person(_favNum, _name)) */\n      swap1\n      dup1\n      0x01\n      dup2\n      sload\n      add\n      dup1\n      dup3\n      sstore\n      dup1\n      swap2\n      pop\n      pop\n      0x01\n      swap1\n      sub\n      swap1\n      0x00\n      mstore\n      keccak256(0x00, 0x20)\n      swap1\n      0x02\n      mul\n      add\n      0x00\n      swap1\n      swap2\n      swap1\n      swap2\n      swap1\n      swap2\n      pop\n      0x00\n      dup3\n      add\n      mload\n      dup2\n      0x00\n      add\n      sstore\n      0x20\n      dup3\n      add\n      mload\n      dup2\n      0x01\n      add\n      swap1\n      dup2\n      tag_60\n      swap2\n      swap1\n      tag_61\n      jump\t// in\n    tag_60:\n      pop\n      pop\n      pop\n        /* \"contracts/Simple_storage.sol\":718:725  _favNum */\n      dup2\n        /* \"contracts/Simple_storage.sol\":696:708  nameToFavNum */\n      0x02\n        /* \"contracts/Simple_storage.sol\":709:714  _name */\n      dup3\n        /* \"contracts/Simple_storage.sol\":696:715  nameToFavNum[_name] */\n      mload(0x40)\n      tag_62\n      swap2\n      swap1\n      tag_63\n      jump\t// in\n    tag_62:\n      swap1\n      dup2\n      mstore\n      0x20\n      add\n      mload(0x40)\n      dup1\n      swap2\n      sub\n      swap1\n      keccak256\n        /* \"contracts/Simple_storage.sol\":696:725  nameToFavNum[_name] = _favNum */\n      dup2\n      swap1\n      sstore\n      pop\n        /* \"contracts/Simple_storage.sol\":576:733  function addFriend(uint256 _favNum, string memory _name) public {... */\n      pop\n      pop\n      jump\t// out\n        /* \"contracts/Simple_storage.sol\":297:376  function store(uint256 _number) public {... */\n    tag_36:\n        /* \"contracts/Simple_storage.sol\":361:368  _number */\n      dup1\n        /* \"contracts/Simple_storage.sol\":347:358  myFavNumber */\n      0x00\n        /* \"contracts/Simple_storage.sol\":347:368  myFavNumber = _number */\n      dup2\n      swap1\n      sstore\n      pop\n        /* \"contracts/Simple_storage.sol\":297:376  function store(uint256 _number) public {... */\n      pop\n      jump\t// out\n        /* \"contracts/Simple_storage.sol\":181:207  uint256 public myFavNumber */\n    tag_38:\n      sload(0x00)\n      dup2\n      jump\t// out\n        /* \"#utility.yul\":7:142   */\n    tag_65:\n        /* \"#utility.yul\":95:101   */\n      0x00\n        /* \"#utility.yul\":129:134   */\n      dup2\n        /* \"#utility.yul\":123:135   */\n      mload\n        /* \"#utility.yul\":113:135   */\n      swap1\n      pop\n        /* \"#utility.yul\":7:142   */\n      swap2\n      swap1\n      pop\n      jump\t// out\n        /* \"#utility.yul\":148:353   */\n    tag_66:\n        /* \"#utility.yul\":268:279   */\n      0x00\n        /* \"#utility.yul\":302:308   */\n      dup3\n        /* \"#utility.yul\":297:300   */\n      dup3\n        /* \"#utility.yul\":290:309   */\n      mstore\n        /* \"#utility.yul\":342:346   */\n      0x20\n        /* \"#utility.yul\":337:340   */\n      dup3\n        /* \"#utility.yul\":333:347   */\n      add\n        /* \"#utility.yul\":318:347   */\n      swap1\n      pop\n        /* \"#utility.yul\":148:353   */\n      swap3\n      swap2\n      pop\n      pop\n      jump\t// out\n        /* \"#utility.yul\":359:512   */\n    tag_67:\n        /* \"#utility.yul\":447:451   */\n      0x00\n        /* \"#utility.yul\":470:473   */\n      dup2\n        /* \"#utility.yul\":462:473   */\n      swap1\n      pop\n        /* \"#utility.yul\":500:504   */\n      0x20\n        /* \"#utility.yul\":495:498   */\n      dup3\n        /* \"#utility.yul\":491:505   */\n      add\n        /* \"#utility.yul\":483:505   */\n      swap1\n      pop\n        /* \"#utility.yul\":359:512   */\n      swap2\n      swap1\n      pop\n      jump\t// out\n        /* \"#utility.yul\":518:595   */\n    tag_68:\n        /* \"#utility.yul\":555:562   */\n      0x00\n        /* \"#utility.yul\":584:589   */\n      dup2\n        /* \"#utility.yul\":573:589   */\n      swap1\n      pop\n        /* \"#utility.yul\":518:595   */\n      swap2\n      swap1\n      pop\n      jump\t// out\n        /* \"#utility.yul\":601:709   */\n    tag_69:\n        /* \"#utility.yul\":678:702   */\n      tag_120\n        /* \"#utility.yul\":696:701   */\n      dup2\n        /* \"#utility.yul\":678:702   */\n      tag_68\n      jump\t// in\n    tag_120:\n        /* \"#utility.yul\":673:676   */\n      dup3\n        /* \"#utility.yul\":666:703   */\n      mstore\n        /* \"#utility.yul\":601:709   */\n      pop\n      pop\n      jump\t// out\n        /* \"#utility.yul\":715:814   */\n    tag_70:\n        /* \"#utility.yul\":767:773   */\n      0x00\n        /* \"#utility.yul\":801:806   */\n      dup2\n        /* \"#utility.yul\":795:807   */\n      mload\n        /* \"#utility.yul\":785:807   */\n      swap1\n      pop\n        /* \"#utility.yul\":715:814   */\n      swap2\n      swap1\n      pop\n      jump\t// out\n        /* \"#utility.yul\":820:979   */\n    tag_71:\n        /* \"#utility.yul\":894:905   */\n      0x00\n        /* \"#utility.yul\":928:934   */\n      dup3\n        /* \"#utility.yul\":923:926   */\n      dup3\n        /* \"#utility.yul\":916:935   */\n      mstore\n        /* \"#utility.yul\":968:972   */\n      0x20\n        /* \"#utility.yul\":963:966   */\n      dup3\n        /* \"#utility.yul\":959:973   */\n      add\n        /* \"#utility.yul\":944:973   */\n      swap1\n      pop\n        /* \"#utility.yul\":820:979   */\n      swap3\n      swap2\n      pop\n      pop\n      jump\t// out\n        /* \"#utility.yul\":985:1124   */\n    tag_72:\n        /* \"#utility.yul\":1074:1080   */\n      dup3\n        /* \"#utility.yul\":1069:1072   */\n      dup2\n        /* \"#utility.yul\":1064:1067   */\n      dup4\n        /* \"#utility.yul\":1058:1081   */\n      mcopy\n        /* \"#utility.yul\":1115:1116   */\n      0x00\n        /* \"#utility.yul\":1106:1112   */\n      dup4\n        /* \"#utility.yul\":1101:1104   */\n      dup4\n        /* \"#utility.yul\":1097:1113   */\n      add\n        /* \"#utility.yul\":1090:1117   */\n      mstore\n        /* \"#utility.yul\":985:1124   */\n      pop\n      pop\n      pop\n      jump\t// out\n        /* \"#utility.yul\":1130:1232   */\n    tag_73:\n        /* \"#utility.yul\":1171:1177   */\n      0x00\n        /* \"#utility.yul\":1222:1224   */\n      0x1f\n        /* \"#utility.yul\":1218:1225   */\n      not\n        /* \"#utility.yul\":1213:1215   */\n      0x1f\n        /* \"#utility.yul\":1206:1211   */\n      dup4\n        /* \"#utility.yul\":1202:1216   */\n      add\n        /* \"#utility.yul\":1198:1226   */\n      and\n        /* \"#utility.yul\":1188:1226   */\n      swap1\n      pop\n        /* \"#utility.yul\":1130:1232   */\n      swap2\n      swap1\n      pop\n      jump\t// out\n        /* \"#utility.yul\":1238:1595   */\n    tag_74:\n        /* \"#utility.yul\":1316:1319   */\n      0x00\n        /* \"#utility.yul\":1344:1383   */\n      tag_126\n        /* \"#utility.yul\":1377:1382   */\n      dup3\n        /* \"#utility.yul\":1344:1383   */\n      tag_70\n      jump\t// in\n    tag_126:\n        /* \"#utility.yul\":1399:1460   */\n      tag_127\n        /* \"#utility.yul\":1453:1459   */\n      dup2\n        /* \"#utility.yul\":1448:1451   */\n      dup6\n        /* \"#utility.yul\":1399:1460   */\n      tag_71\n      jump\t// in\n    tag_127:\n        /* \"#utility.yul\":1392:1460   */\n      swap4\n      pop\n        /* \"#utility.yul\":1469:1534   */\n      tag_128\n        /* \"#utility.yul\":1527:1533   */\n      dup2\n        /* \"#utility.yul\":1522:1525   */\n      dup6\n        /* \"#utility.yul\":1515:1519   */\n      0x20\n        /* \"#utility.yul\":1508:1513   */\n      dup7\n        /* \"#utility.yul\":1504:1520   */\n      add\n        /* \"#utility.yul\":1469:1534   */\n      tag_72\n      jump\t// in\n    tag_128:\n        /* \"#utility.yul\":1559:1588   */\n      tag_129\n        /* \"#utility.yul\":1581:1587   */\n      dup2\n        /* \"#utility.yul\":1559:1588   */\n      tag_73\n      jump\t// in\n    tag_129:\n        /* \"#utility.yul\":1554:1557   */\n      dup5\n        /* \"#utility.yul\":1550:1589   */\n      add\n        /* \"#utility.yul\":1543:1589   */\n      swap2\n      pop\n        /* \"#utility.yul\":1320:1595   */\n      pop\n        /* \"#utility.yul\":1238:1595   */\n      swap3\n      swap2\n      pop\n      pop\n      jump\t// out\n        /* \"#utility.yul\":1667:2257   */\n    tag_75:\n        /* \"#utility.yul\":1768:1771   */\n      0x00\n        /* \"#utility.yul\":1804:1808   */\n      0x40\n        /* \"#utility.yul\":1799:1802   */\n      dup4\n        /* \"#utility.yul\":1795:1809   */\n      add\n        /* \"#utility.yul\":1893:1897   */\n      0x00\n        /* \"#utility.yul\":1886:1891   */\n      dup4\n        /* \"#utility.yul\":1882:1898   */\n      add\n        /* \"#utility.yul\":1876:1899   */\n      mload\n        /* \"#utility.yul\":1912:1975   */\n      tag_131\n        /* \"#utility.yul\":1969:1973   */\n      0x00\n        /* \"#utility.yul\":1964:1967   */\n      dup7\n        /* \"#utility.yul\":1960:1974   */\n      add\n        /* \"#utility.yul\":1946:1958   */\n      dup3\n        /* \"#utility.yul\":1912:1975   */\n      tag_69\n      jump\t// in\n    tag_131:\n        /* \"#utility.yul\":1819:1985   */\n      pop\n        /* \"#utility.yul\":2067:2071   */\n      0x20\n        /* \"#utility.yul\":2060:2065   */\n      dup4\n        /* \"#utility.yul\":2056:2072   */\n      add\n        /* \"#utility.yul\":2050:2073   */\n      mload\n        /* \"#utility.yul\":2120:2123   */\n      dup5\n        /* \"#utility.yul\":2114:2118   */\n      dup3\n        /* \"#utility.yul\":2110:2124   */\n      sub\n        /* \"#utility.yul\":2103:2107   */\n      0x20\n        /* \"#utility.yul\":2098:2101   */\n      dup7\n        /* \"#utility.yul\":2094:2108   */\n      add\n        /* \"#utility.yul\":2087:2125   */\n      mstore\n        /* \"#utility.yul\":2146:2219   */\n      tag_132\n        /* \"#utility.yul\":2214:2218   */\n      dup3\n        /* \"#utility.yul\":2200:2212   */\n      dup3\n        /* \"#utility.yul\":2146:2219   */\n      tag_74\n      jump\t// in\n    tag_132:\n        /* \"#utility.yul\":2138:2219   */\n      swap2\n      pop\n        /* \"#utility.yul\":1995:2230   */\n      pop\n        /* \"#utility.yul\":2247:2251   */\n      dup1\n        /* \"#utility.yul\":2240:2251   */\n      swap2\n      pop\n        /* \"#utility.yul\":1773:2257   */\n      pop\n        /* \"#utility.yul\":1667:2257   */\n      swap3\n      swap2\n      pop\n      pop\n      jump\t// out\n        /* \"#utility.yul\":2263:2503   */\n    tag_76:\n        /* \"#utility.yul\":2374:2384   */\n      0x00\n        /* \"#utility.yul\":2409:2497   */\n      tag_134\n        /* \"#utility.yul\":2493:2496   */\n      dup4\n        /* \"#utility.yul\":2485:2491   */\n      dup4\n        /* \"#utility.yul\":2409:2497   */\n      tag_75\n      jump\t// in\n    tag_134:\n        /* \"#utility.yul\":2395:2497   */\n      swap1\n      pop\n        /* \"#utility.yul\":2263:2503   */\n      swap3\n      swap2\n      pop\n      pop\n      jump\t// out\n        /* \"#utility.yul\":2509:2643   */\n    tag_77:\n        /* \"#utility.yul\":2600:2604   */\n      0x00\n        /* \"#utility.yul\":2632:2636   */\n      0x20\n        /* \"#utility.yul\":2627:2630   */\n      dup3\n        /* \"#utility.yul\":2623:2637   */\n      add\n        /* \"#utility.yul\":2615:2637   */\n      swap1\n      pop\n        /* \"#utility.yul\":2509:2643   */\n      swap2\n      swap1\n      pop\n      jump\t// out\n        /* \"#utility.yul\":2719:3798   */\n    tag_78:\n        /* \"#utility.yul\":2880:2883   */\n      0x00\n        /* \"#utility.yul\":2909:2984   */\n      tag_137\n        /* \"#utility.yul\":2978:2983   */\n      dup3\n        /* \"#utility.yul\":2909:2984   */\n      tag_65\n      jump\t// in\n    tag_137:\n        /* \"#utility.yul\":3000:3107   */\n      tag_138\n        /* \"#utility.yul\":3100:3106   */\n      dup2\n        /* \"#utility.yul\":3095:3098   */\n      dup6\n        /* \"#utility.yul\":3000:3107   */\n      tag_66\n      jump\t// in\n    tag_138:\n        /* \"#utility.yul\":2993:3107   */\n      swap4\n      pop\n        /* \"#utility.yul\":3133:3136   */\n      dup4\n        /* \"#utility.yul\":3178:3182   */\n      0x20\n        /* \"#utility.yul\":3170:3176   */\n      dup3\n        /* \"#utility.yul\":3166:3183   */\n      mul\n        /* \"#utility.yul\":3161:3164   */\n      dup6\n        /* \"#utility.yul\":3157:3184   */\n      add\n        /* \"#utility.yul\":3208:3285   */\n      tag_139\n        /* \"#utility.yul\":3279:3284   */\n      dup6\n        /* \"#utility.yul\":3208:3285   */\n      tag_67\n      jump\t// in\n    tag_139:\n        /* \"#utility.yul\":3308:3315   */\n      dup1\n        /* \"#utility.yul\":3339:3340   */\n      0x00\n        /* \"#utility.yul\":3324:3753   */\n    tag_140:\n        /* \"#utility.yul\":3349:3355   */\n      dup6\n        /* \"#utility.yul\":3346:3347   */\n      dup2\n        /* \"#utility.yul\":3343:3356   */\n      lt\n        /* \"#utility.yul\":3324:3753   */\n      iszero\n      tag_142\n      jumpi\n        /* \"#utility.yul\":3420:3429   */\n      dup5\n        /* \"#utility.yul\":3414:3418   */\n      dup5\n        /* \"#utility.yul\":3410:3430   */\n      sub\n        /* \"#utility.yul\":3405:3408   */\n      dup10\n        /* \"#utility.yul\":3398:3431   */\n      mstore\n        /* \"#utility.yul\":3471:3477   */\n      dup2\n        /* \"#utility.yul\":3465:3478   */\n      mload\n        /* \"#utility.yul\":3499:3605   */\n      tag_143\n        /* \"#utility.yul\":3600:3604   */\n      dup6\n        /* \"#utility.yul\":3585:3598   */\n      dup3\n        /* \"#utility.yul\":3499:3605   */\n      tag_76\n      jump\t// in\n    tag_143:\n        /* \"#utility.yul\":3491:3605   */\n      swap5\n      pop\n        /* \"#utility.yul\":3628:3709   */\n      tag_144\n        /* \"#utility.yul\":3702:3708   */\n      dup4\n        /* \"#utility.yul\":3628:3709   */\n      tag_77\n      jump\t// in\n    tag_144:\n        /* \"#utility.yul\":3618:3709   */\n      swap3\n      pop\n        /* \"#utility.yul\":3738:3742   */\n      0x20\n        /* \"#utility.yul\":3733:3736   */\n      dup11\n        /* \"#utility.yul\":3729:3743   */\n      add\n        /* \"#utility.yul\":3722:3743   */\n      swap10\n      pop\n        /* \"#utility.yul\":3384:3753   */\n      pop\n        /* \"#utility.yul\":3371:3372   */\n      0x01\n        /* \"#utility.yul\":3368:3369   */\n      dup2\n        /* \"#utility.yul\":3364:3373   */\n      add\n        /* \"#utility.yul\":3359:3373   */\n      swap1\n      pop\n        /* \"#utility.yul\":3324:3753   */\n      jump(tag_140)\n    tag_142:\n        /* \"#utility.yul\":3328:3342   */\n      pop\n        /* \"#utility.yul\":3769:3773   */\n      dup3\n        /* \"#utility.yul\":3762:3773   */\n      swap8\n      pop\n        /* \"#utility.yul\":3789:3792   */\n      dup8\n        /* \"#utility.yul\":3782:3792   */\n      swap6\n      pop\n        /* \"#utility.yul\":2885:3798   */\n      pop\n      pop\n      pop\n      pop\n      pop\n        /* \"#utility.yul\":2719:3798   */\n      swap3\n      swap2\n      pop\n      pop\n      jump\t// out\n        /* \"#utility.yul\":3804:4261   */\n    tag_14:\n        /* \"#utility.yul\":3989:3993   */\n      0x00\n        /* \"#utility.yul\":4027:4029   */\n      0x20\n        /* \"#utility.yul\":4016:4025   */\n      dup3\n        /* \"#utility.yul\":4012:4030   */\n      add\n        /* \"#utility.yul\":4004:4030   */\n      swap1\n      pop\n        /* \"#utility.yul\":4076:4085   */\n      dup2\n        /* \"#utility.yul\":4070:4074   */\n      dup2\n        /* \"#utility.yul\":4066:4086   */\n      sub\n        /* \"#utility.yul\":4062:4063   */\n      0x00\n        /* \"#utility.yul\":4051:4060   */\n      dup4\n        /* \"#utility.yul\":4047:4064   */\n      add\n        /* \"#utility.yul\":4040:4087   */\n      mstore\n        /* \"#utility.yul\":4104:4254   */\n      tag_146\n        /* \"#utility.yul\":4249:4253   */\n      dup2\n        /* \"#utility.yul\":4240:4246   */\n      dup5\n        /* \"#utility.yul\":4104:4254   */\n      tag_78\n      jump\t// in\n    tag_146:\n        /* \"#utility.yul\":4096:4254   */\n      swap1\n      pop\n        /* \"#utility.yul\":3804:4261   */\n      swap3\n      swap2\n      pop\n      pop\n      jump\t// out\n        /* \"#utility.yul\":4267:4342   */\n    tag_79:\n        /* \"#utility.yul\":4300:4306   */\n      0x00\n        /* \"#utility.yul\":4333:4335   */\n      0x40\n        /* \"#utility.yul\":4327:4336   */\n      mload\n        /* \"#utility.yul\":4317:4336   */\n      swap1\n      pop\n        /* \"#utility.yul\":4267:4342   */\n      swap1\n      jump\t// out\n        /* \"#utility.yul\":4348:4465   */\n    tag_80:\n        /* \"#utility.yul\":4457:4458   */\n      0x00\n        /* \"#utility.yul\":4454:4455   */\n      0x00\n        /* \"#utility.yul\":4447:4459   */\n      revert\n        /* \"#utility.yul\":4471:4588   */\n    tag_81:\n        /* \"#utility.yul\":4580:4581   */\n      0x00\n        /* \"#utility.yul\":4577:4578   */\n      0x00\n        /* \"#utility.yul\":4570:4582   */\n      revert\n        /* \"#utility.yul\":4594:4711   */\n    tag_82:\n        /* \"#utility.yul\":4703:4704   */\n      0x00\n        /* \"#utility.yul\":4700:4701   */\n      0x00\n        /* \"#utility.yul\":4693:4705   */\n      revert\n        /* \"#utility.yul\":4717:4834   */\n    tag_83:\n        /* \"#utility.yul\":4826:4827   */\n      0x00\n        /* \"#utility.yul\":4823:4824   */\n      0x00\n        /* \"#utility.yul\":4816:4828   */\n      revert\n        /* \"#utility.yul\":4840:5020   */\n    tag_84:\n        /* \"#utility.yul\":4888:4965   */\n      0x4e487b7100000000000000000000000000000000000000000000000000000000\n        /* \"#utility.yul\":4885:4886   */\n      0x00\n        /* \"#utility.yul\":4878:4966   */\n      mstore\n        /* \"#utility.yul\":4985:4989   */\n      0x41\n        /* \"#utility.yul\":4982:4983   */\n      0x04\n        /* \"#utility.yul\":4975:4990   */\n      mstore\n        /* \"#utility.yul\":5009:5013   */\n      0x24\n        /* \"#utility.yul\":5006:5007   */\n      0x00\n        /* \"#utility.yul\":4999:5014   */\n      revert\n        /* \"#utility.yul\":5026:5307   */\n    tag_85:\n        /* \"#utility.yul\":5109:5136   */\n      tag_154\n        /* \"#utility.yul\":5131:5135   */\n      dup3\n        /* \"#utility.yul\":5109:5136   */\n      tag_73\n      jump\t// in\n    tag_154:\n        /* \"#utility.yul\":5101:5107   */\n      dup2\n        /* \"#utility.yul\":5097:5137   */\n      add\n        /* \"#utility.yul\":5239:5245   */\n      dup2\n        /* \"#utility.yul\":5227:5237   */\n      dup2\n        /* \"#utility.yul\":5224:5246   */\n      lt\n        /* \"#utility.yul\":5203:5221   */\n      0xffffffffffffffff\n        /* \"#utility.yul\":5191:5201   */\n      dup3\n        /* \"#utility.yul\":5188:5222   */\n      gt\n        /* \"#utility.yul\":5185:5247   */\n      or\n        /* \"#utility.yul\":5182:5270   */\n      iszero\n      tag_155\n      jumpi\n        /* \"#utility.yul\":5250:5268   */\n      tag_156\n      tag_84\n      jump\t// in\n    tag_156:\n        /* \"#utility.yul\":5182:5270   */\n    tag_155:\n        /* \"#utility.yul\":5290:5300   */\n      dup1\n        /* \"#utility.yul\":5286:5288   */\n      0x40\n        /* \"#utility.yul\":5279:5301   */\n      mstore\n        /* \"#utility.yul\":5069:5307   */\n      pop\n        /* \"#utility.yul\":5026:5307   */\n      pop\n      pop\n      jump\t// out\n        /* \"#utility.yul\":5313:5442   */\n    tag_86:\n        /* \"#utility.yul\":5347:5353   */\n      0x00\n        /* \"#utility.yul\":5374:5394   */\n      tag_158\n      tag_79\n      jump\t// in\n    tag_158:\n        /* \"#utility.yul\":5364:5394   */\n      swap1\n      pop\n        /* \"#utility.yul\":5403:5436   */\n      tag_159\n        /* \"#utility.yul\":5431:5435   */\n      dup3\n        /* \"#utility.yul\":5423:5429   */\n      dup3\n        /* \"#utility.yul\":5403:5436   */\n      tag_85\n      jump\t// in\n    tag_159:\n        /* \"#utility.yul\":5313:5442   */\n      swap2\n      swap1\n      pop\n      jump\t// out\n        /* \"#utility.yul\":5448:5756   */\n    tag_87:\n        /* \"#utility.yul\":5510:5514   */\n      0x00\n        /* \"#utility.yul\":5600:5618   */\n      0xffffffffffffffff\n        /* \"#utility.yul\":5592:5598   */\n      dup3\n        /* \"#utility.yul\":5589:5619   */\n      gt\n        /* \"#utility.yul\":5586:5642   */\n      iszero\n      tag_161\n      jumpi\n        /* \"#utility.yul\":5622:5640   */\n      tag_162\n      tag_84\n      jump\t// in\n    tag_162:\n        /* \"#utility.yul\":5586:5642   */\n    tag_161:\n        /* \"#utility.yul\":5660:5689   */\n      tag_163\n        /* \"#utility.yul\":5682:5688   */\n      dup3\n        /* \"#utility.yul\":5660:5689   */\n      tag_73\n      jump\t// in\n    tag_163:\n        /* \"#utility.yul\":5652:5689   */\n      swap1\n      pop\n        /* \"#utility.yul\":5744:5748   */\n      0x20\n        /* \"#utility.yul\":5738:5742   */\n      dup2\n        /* \"#utility.yul\":5734:5749   */\n      add\n        /* \"#utility.yul\":5726:5749   */\n      swap1\n      pop\n        /* \"#utility.yul\":5448:5756   */\n      swap2\n      swap1\n      pop\n      jump\t// out\n        /* \"#utility.yul\":5762:5910   */\n    tag_88:\n        /* \"#utility.yul\":5860:5866   */\n      dup3\n        /* \"#utility.yul\":5855:5858   */\n      dup2\n        /* \"#utility.yul\":5850:5853   */\n      dup4\n        /* \"#utility.yul\":5837:5867   */\n      calldatacopy\n        /* \"#utility.yul\":5901:5902   */\n      0x00\n        /* \"#utility.yul\":5892:5898   */\n      dup4\n        /* \"#utility.yul\":5887:5890   */\n      dup4\n        /* \"#utility.yul\":5883:5899   */\n      add\n        /* \"#utility.yul\":5876:5903   */\n      mstore\n        /* \"#utility.yul\":5762:5910   */\n      pop\n      pop\n      pop\n      jump\t// out\n        /* \"#utility.yul\":5916:6341   */\n    tag_89:\n        /* \"#utility.yul\":5994:5999   */\n      0x00\n        /* \"#utility.yul\":6019:6085   */\n      tag_166\n        /* \"#utility.yul\":6035:6084   */\n      tag_167\n        /* \"#utility.yul\":6077:6083   */\n      dup5\n        /* \"#utility.yul\":6035:6084   */\n      tag_87\n      jump\t// in\n    tag_167:\n        /* \"#utility.yul\":6019:6085   */\n      tag_86\n      jump\t// in\n    tag_166:\n        /* \"#utility.yul\":6010:6085   */\n      swap1\n      pop\n        /* \"#utility.yul\":6108:6114   */\n      dup3\n        /* \"#utility.yul\":6101:6106   */\n      dup2\n        /* \"#utility.yul\":6094:6115   */\n      mstore\n        /* \"#utility.yul\":6146:6150   */\n      0x20\n        /* \"#utility.yul\":6139:6144   */\n      dup2\n        /* \"#utility.yul\":6135:6151   */\n      add\n        /* \"#utility.yul\":6184:6187   */\n      dup5\n        /* \"#utility.yul\":6175:6181   */\n      dup5\n        /* \"#utility.yul\":6170:6173   */\n      dup5\n        /* \"#utility.yul\":6166:6182   */\n      add\n        /* \"#utility.yul\":6163:6188   */\n      gt\n        /* \"#utility.yul\":6160:6272   */\n      iszero\n      tag_168\n      jumpi\n        /* \"#utility.yul\":6191:6270   */\n      tag_169\n      tag_83\n      jump\t// in\n    tag_169:\n        /* \"#utility.yul\":6160:6272   */\n    tag_168:\n        /* \"#utility.yul\":6281:6335   */\n      tag_170\n        /* \"#utility.yul\":6328:6334   */\n      dup5\n        /* \"#utility.yul\":6323:6326   */\n      dup3\n        /* \"#utility.yul\":6318:6321   */\n      dup6\n        /* \"#utility.yul\":6281:6335   */\n      tag_88\n      jump\t// in\n    tag_170:\n        /* \"#utility.yul\":6000:6341   */\n      pop\n        /* \"#utility.yul\":5916:6341   */\n      swap4\n      swap3\n      pop\n      pop\n      pop\n      jump\t// out\n        /* \"#utility.yul\":6361:6701   */\n    tag_90:\n        /* \"#utility.yul\":6417:6422   */\n      0x00\n        /* \"#utility.yul\":6466:6469   */\n      dup3\n        /* \"#utility.yul\":6459:6463   */\n      0x1f\n        /* \"#utility.yul\":6451:6457   */\n      dup4\n        /* \"#utility.yul\":6447:6464   */\n      add\n        /* \"#utility.yul\":6443:6470   */\n      slt\n        /* \"#utility.yul\":6433:6555   */\n      tag_172\n      jumpi\n        /* \"#utility.yul\":6474:6553   */\n      tag_173\n      tag_82\n      jump\t// in\n    tag_173:\n        /* \"#utility.yul\":6433:6555   */\n    tag_172:\n        /* \"#utility.yul\":6591:6597   */\n      dup2\n        /* \"#utility.yul\":6578:6598   */\n      calldataload\n        /* \"#utility.yul\":6616:6695   */\n      tag_174\n        /* \"#utility.yul\":6691:6694   */\n      dup5\n        /* \"#utility.yul\":6683:6689   */\n      dup3\n        /* \"#utility.yul\":6676:6680   */\n      0x20\n        /* \"#utility.yul\":6668:6674   */\n      dup7\n        /* \"#utility.yul\":6664:6681   */\n      add\n        /* \"#utility.yul\":6616:6695   */\n      tag_89\n      jump\t// in\n    tag_174:\n        /* \"#utility.yul\":6607:6695   */\n      swap2\n      pop\n        /* \"#utility.yul\":6423:6701   */\n      pop\n        /* \"#utility.yul\":6361:6701   */\n      swap3\n      swap2\n      pop\n      pop\n      jump\t// out\n        /* \"#utility.yul\":6707:7216   */\n    tag_17:\n        /* \"#utility.yul\":6776:6782   */\n      0x00\n        /* \"#utility.yul\":6825:6827   */\n      0x20\n        /* \"#utility.yul\":6813:6822   */\n      dup3\n        /* \"#utility.yul\":6804:6811   */\n      dup5\n        /* \"#utility.yul\":6800:6823   */\n      sub\n        /* \"#utility.yul\":6796:6828   */\n      slt\n        /* \"#utility.yul\":6793:6912   */\n      iszero\n      tag_176\n      jumpi\n        /* \"#utility.yul\":6831:6910   */\n      tag_177\n      tag_80\n      jump\t// in\n    tag_177:\n        /* \"#utility.yul\":6793:6912   */\n    tag_176:\n        /* \"#utility.yul\":6979:6980   */\n      0x00\n        /* \"#utility.yul\":6968:6977   */\n      dup3\n        /* \"#utility.yul\":6964:6981   */\n      add\n        /* \"#utility.yul\":6951:6982   */\n      calldataload\n        /* \"#utility.yul\":7009:7027   */\n      0xffffffffffffffff\n        /* \"#utility.yul\":7001:7007   */\n      dup2\n        /* \"#utility.yul\":6998:7028   */\n      gt\n        /* \"#utility.yul\":6995:7112   */\n      iszero\n      tag_178\n      jumpi\n        /* \"#utility.yul\":7031:7110   */\n      tag_179\n      tag_81\n      jump\t// in\n    tag_179:\n        /* \"#utility.yul\":6995:7112   */\n    tag_178:\n        /* \"#utility.yul\":7136:7199   */\n      tag_180\n        /* \"#utility.yul\":7191:7198   */\n      dup5\n        /* \"#utility.yul\":7182:7188   */\n      dup3\n        /* \"#utility.yul\":7171:7180   */\n      dup6\n        /* \"#utility.yul\":7167:7189   */\n      add\n        /* \"#utility.yul\":7136:7199   */\n      tag_90\n      jump\t// in\n    tag_180:\n        /* \"#utility.yul\":7126:7199   */\n      swap2\n      pop\n        /* \"#utility.yul\":6922:7209   */\n      pop\n        /* \"#utility.yul\":6707:7216   */\n      swap3\n      swap2\n      pop\n      pop\n      jump\t// out\n        /* \"#utility.yul\":7222:7340   */\n    tag_91:\n        /* \"#utility.yul\":7309:7333   */\n      tag_182\n        /* \"#utility.yul\":7327:7332   */\n      dup2\n        /* \"#utility.yul\":7309:7333   */\n      tag_68\n      jump\t// in\n    tag_182:\n        /* \"#utility.yul\":7304:7307   */\n      dup3\n        /* \"#utility.yul\":7297:7334   */\n      mstore\n        /* \"#utility.yul\":7222:7340   */\n      pop\n      pop\n      jump\t// out\n        /* \"#utility.yul\":7346:7568   */\n    tag_20:\n        /* \"#utility.yul\":7439:7443   */\n      0x00\n        /* \"#utility.yul\":7477:7479   */\n      0x20\n        /* \"#utility.yul\":7466:7475   */\n      dup3\n        /* \"#utility.yul\":7462:7480   */\n      add\n        /* \"#utility.yul\":7454:7480   */\n      swap1\n      pop\n        /* \"#utility.yul\":7490:7561   */\n      tag_184\n        /* \"#utility.yul\":7558:7559   */\n      0x00\n        /* \"#utility.yul\":7547:7556   */\n      dup4\n        /* \"#utility.yul\":7543:7560   */\n      add\n        /* \"#utility.yul\":7534:7540   */\n      dup5\n        /* \"#utility.yul\":7490:7561   */\n      tag_91\n      jump\t// in\n    tag_184:\n        /* \"#utility.yul\":7346:7568   */\n      swap3\n      swap2\n      pop\n      pop\n      jump\t// out\n        /* \"#utility.yul\":7574:7696   */\n    tag_92:\n        /* \"#utility.yul\":7647:7671   */\n      tag_186\n        /* \"#utility.yul\":7665:7670   */\n      dup2\n        /* \"#utility.yul\":7647:7671   */\n      tag_68\n      jump\t// in\n    tag_186:\n        /* \"#utility.yul\":7640:7645   */\n      dup2\n        /* \"#utility.yul\":7637:7672   */\n      eq\n        /* \"#utility.yul\":7627:7690   */\n      tag_187\n      jumpi\n        /* \"#utility.yul\":7686:7687   */\n      0x00\n        /* \"#utility.yul\":7683:7684   */\n      0x00\n        /* \"#utility.yul\":7676:7688   */\n      revert\n        /* \"#utility.yul\":7627:7690   */\n    tag_187:\n        /* \"#utility.yul\":7574:7696   */\n      pop\n      jump\t// out\n        /* \"#utility.yul\":7702:7841   */\n    tag_93:\n        /* \"#utility.yul\":7748:7753   */\n      0x00\n        /* \"#utility.yul\":7786:7792   */\n      dup2\n        /* \"#utility.yul\":7773:7793   */\n      calldataload\n        /* \"#utility.yul\":7764:7793   */\n      swap1\n      pop\n        /* \"#utility.yul\":7802:7835   */\n      tag_189\n        /* \"#utility.yul\":7829:7834   */\n      dup2\n        /* \"#utility.yul\":7802:7835   */\n      tag_92\n      jump\t// in\n    tag_189:\n        /* \"#utility.yul\":7702:7841   */\n      swap3\n      swap2\n      pop\n      pop\n      jump\t// out\n        /* \"#utility.yul\":7847:8176   */\n    tag_26:\n        /* \"#utility.yul\":7906:7912   */\n      0x00\n        /* \"#utility.yul\":7955:7957   */\n      0x20\n        /* \"#utility.yul\":7943:7952   */\n      dup3\n        /* \"#utility.yul\":7934:7941   */\n      dup5\n        /* \"#utility.yul\":7930:7953   */\n      sub\n        /* \"#utility.yul\":7926:7958   */\n      slt\n        /* \"#utility.yul\":7923:8042   */\n      iszero\n      tag_191\n      jumpi\n        /* \"#utility.yul\":7961:8040   */\n      tag_192\n      tag_80\n      jump\t// in\n    tag_192:\n        /* \"#utility.yul\":7923:8042   */\n    tag_191:\n        /* \"#utility.yul\":8081:8082   */\n      0x00\n        /* \"#utility.yul\":8106:8159   */\n      tag_193\n        /* \"#utility.yul\":8151:8158   */\n      dup5\n        /* \"#utility.yul\":8142:8148   */\n      dup3\n        /* \"#utility.yul\":8131:8140   */\n      dup6\n        /* \"#utility.yul\":8127:8149   */\n      add\n        /* \"#utility.yul\":8106:8159   */\n      tag_93\n      jump\t// in\n    tag_193:\n        /* \"#utility.yul\":8096:8159   */\n      swap2\n      pop\n        /* \"#utility.yul\":8052:8169   */\n      pop\n        /* \"#utility.yul\":7847:8176   */\n      swap3\n      swap2\n      pop\n      pop\n      jump\t// out\n        /* \"#utility.yul\":8182:8351   */\n    tag_94:\n        /* \"#utility.yul\":8266:8277   */\n      0x00\n        /* \"#utility.yul\":8300:8306   */\n      dup3\n        /* \"#utility.yul\":8295:8298   */\n      dup3\n        /* \"#utility.yul\":8288:8307   */\n      mstore\n        /* \"#utility.yul\":8340:8344   */\n      0x20\n        /* \"#utility.yul\":8335:8338   */\n      dup3\n        /* \"#utility.yul\":8331:8345   */\n      add\n        /* \"#utility.yul\":8316:8345   */\n      swap1\n      pop\n        /* \"#utility.yul\":8182:8351   */\n      swap3\n      swap2\n      pop\n      pop\n      jump\t// out\n        /* \"#utility.yul\":8357:8734   */\n    tag_95:\n        /* \"#utility.yul\":8445:8448   */\n      0x00\n        /* \"#utility.yul\":8473:8512   */\n      tag_196\n        /* \"#utility.yul\":8506:8511   */\n      dup3\n        /* \"#utility.yul\":8473:8512   */\n      tag_70\n      jump\t// in\n    tag_196:\n        /* \"#utility.yul\":8528:8599   */\n      tag_197\n        /* \"#utility.yul\":8592:8598   */\n      dup2\n        /* \"#utility.yul\":8587:8590   */\n      dup6\n        /* \"#utility.yul\":8528:8599   */\n      tag_94\n      jump\t// in\n    tag_197:\n        /* \"#utility.yul\":8521:8599   */\n      swap4\n      pop\n        /* \"#utility.yul\":8608:8673   */\n      tag_198\n        /* \"#utility.yul\":8666:8672   */\n      dup2\n        /* \"#utility.yul\":8661:8664   */\n      dup6\n        /* \"#utility.yul\":8654:8658   */\n      0x20\n        /* \"#utility.yul\":8647:8652   */\n      dup7\n        /* \"#utility.yul\":8643:8659   */\n      add\n        /* \"#utility.yul\":8608:8673   */\n      tag_72\n      jump\t// in\n    tag_198:\n        /* \"#utility.yul\":8698:8727   */\n      tag_199\n        /* \"#utility.yul\":8720:8726   */\n      dup2\n        /* \"#utility.yul\":8698:8727   */\n      tag_73\n      jump\t// in\n    tag_199:\n        /* \"#utility.yul\":8693:8696   */\n      dup5\n        /* \"#utility.yul\":8689:8728   */\n      add\n        /* \"#utility.yul\":8682:8728   */\n      swap2\n      pop\n        /* \"#utility.yul\":8449:8734   */\n      pop\n        /* \"#utility.yul\":8357:8734   */\n      swap3\n      swap2\n      pop\n      pop\n      jump\t// out\n        /* \"#utility.yul\":8740:9163   */\n    tag_29:\n        /* \"#utility.yul\":8881:8885   */\n      0x00\n        /* \"#utility.yul\":8919:8921   */\n      0x40\n        /* \"#utility.yul\":8908:8917   */\n      dup3\n        /* \"#utility.yul\":8904:8922   */\n      add\n        /* \"#utility.yul\":8896:8922   */\n      swap1\n      pop\n        /* \"#utility.yul\":8932:9003   */\n      tag_201\n        /* \"#utility.yul\":9000:9001   */\n      0x00\n        /* \"#utility.yul\":8989:8998   */\n      dup4\n        /* \"#utility.yul\":8985:9002   */\n      add\n        /* \"#utility.yul\":8976:8982   */\n      dup6\n        /* \"#utility.yul\":8932:9003   */\n      tag_91\n      jump\t// in\n    tag_201:\n        /* \"#utility.yul\":9050:9059   */\n      dup2\n        /* \"#utility.yul\":9044:9048   */\n      dup2\n        /* \"#utility.yul\":9040:9060   */\n      sub\n        /* \"#utility.yul\":9035:9037   */\n      0x20\n        /* \"#utility.yul\":9024:9033   */\n      dup4\n        /* \"#utility.yul\":9020:9038   */\n      add\n        /* \"#utility.yul\":9013:9061   */\n      mstore\n        /* \"#utility.yul\":9078:9156   */\n      tag_202\n        /* \"#utility.yul\":9151:9155   */\n      dup2\n        /* \"#utility.yul\":9142:9148   */\n      dup5\n        /* \"#utility.yul\":9078:9156   */\n      tag_95\n      jump\t// in\n    tag_202:\n        /* \"#utility.yul\":9070:9156   */\n      swap1\n      pop\n        /* \"#utility.yul\":8740:9163   */\n      swap4\n      swap3\n      pop\n      pop\n      pop\n      jump\t// out\n        /* \"#utility.yul\":9169:9823   */\n    tag_32:\n        /* \"#utility.yul\":9247:9253   */\n      0x00\n        /* \"#utility.yul\":9255:9261   */\n      0x00\n        /* \"#utility.yul\":9304:9306   */\n      0x40\n        /* \"#utility.yul\":9292:9301   */\n      dup4\n        /* \"#utility.yul\":9283:9290   */\n      dup6\n        /* \"#utility.yul\":9279:9302   */\n      sub\n        /* \"#utility.yul\":9275:9307   */\n      slt\n        /* \"#utility.yul\":9272:9391   */\n      iszero\n      tag_204\n      jumpi\n        /* \"#utility.yul\":9310:9389   */\n      tag_205\n      tag_80\n      jump\t// in\n    tag_205:\n        /* \"#utility.yul\":9272:9391   */\n    tag_204:\n        /* \"#utility.yul\":9430:9431   */\n      0x00\n        /* \"#utility.yul\":9455:9508   */\n      tag_206\n        /* \"#utility.yul\":9500:9507   */\n      dup6\n        /* \"#utility.yul\":9491:9497   */\n      dup3\n        /* \"#utility.yul\":9480:9489   */\n      dup7\n        /* \"#utility.yul\":9476:9498   */\n      add\n        /* \"#utility.yul\":9455:9508   */\n      tag_93\n      jump\t// in\n    tag_206:\n        /* \"#utility.yul\":9445:9508   */\n      swap3\n      pop\n        /* \"#utility.yul\":9401:9518   */\n      pop\n        /* \"#utility.yul\":9585:9587   */\n      0x20\n        /* \"#utility.yul\":9574:9583   */\n      dup4\n        /* \"#utility.yul\":9570:9588   */\n      add\n        /* \"#utility.yul\":9557:9589   */\n      calldataload\n        /* \"#utility.yul\":9616:9634   */\n      0xffffffffffffffff\n        /* \"#utility.yul\":9608:9614   */\n      dup2\n        /* \"#utility.yul\":9605:9635   */\n      gt\n        /* \"#utility.yul\":9602:9719   */\n      iszero\n      tag_207\n      jumpi\n        /* \"#utility.yul\":9638:9717   */\n      tag_208\n      tag_81\n      jump\t// in\n    tag_208:\n        /* \"#utility.yul\":9602:9719   */\n    tag_207:\n        /* \"#utility.yul\":9743:9806   */\n      tag_209\n        /* \"#utility.yul\":9798:9805   */\n      dup6\n        /* \"#utility.yul\":9789:9795   */\n      dup3\n        /* \"#utility.yul\":9778:9787   */\n      dup7\n        /* \"#utility.yul\":9774:9796   */\n      add\n        /* \"#utility.yul\":9743:9806   */\n      tag_90\n      jump\t// in\n    tag_209:\n        /* \"#utility.yul\":9733:9806   */\n      swap2\n      pop\n        /* \"#utility.yul\":9528:9816   */\n      pop\n        /* \"#utility.yul\":9169:9823   */\n      swap3\n      pop\n      swap3\n      swap1\n      pop\n      jump\t// out\n        /* \"#utility.yul\":9829:10009   */\n    tag_96:\n        /* \"#utility.yul\":9877:9954   */\n      0x4e487b7100000000000000000000000000000000000000000000000000000000\n        /* \"#utility.yul\":9874:9875   */\n      0x00\n        /* \"#utility.yul\":9867:9955   */\n      mstore\n        /* \"#utility.yul\":9974:9978   */\n      0x22\n        /* \"#utility.yul\":9971:9972   */\n      0x04\n        /* \"#utility.yul\":9964:9979   */\n      mstore\n        /* \"#utility.yul\":9998:10002   */\n      0x24\n        /* \"#utility.yul\":9995:9996   */\n      0x00\n        /* \"#utility.yul\":9988:10003   */\n      revert\n        /* \"#utility.yul\":10015:10335   */\n    tag_45:\n        /* \"#utility.yul\":10059:10065   */\n      0x00\n        /* \"#utility.yul\":10096:10097   */\n      0x02\n        /* \"#utility.yul\":10090:10094   */\n      dup3\n        /* \"#utility.yul\":10086:10098   */\n      div\n        /* \"#utility.yul\":10076:10098   */\n      swap1\n      pop\n        /* \"#utility.yul\":10143:10144   */\n      0x01\n        /* \"#utility.yul\":10137:10141   */\n      dup3\n        /* \"#utility.yul\":10133:10145   */\n      and\n        /* \"#utility.yul\":10164:10182   */\n      dup1\n        /* \"#utility.yul\":10154:10235   */\n      tag_212\n      jumpi\n        /* \"#utility.yul\":10220:10224   */\n      0x7f\n        /* \"#utility.yul\":10212:10218   */\n      dup3\n        /* \"#utility.yul\":10208:10225   */\n      and\n        /* \"#utility.yul\":10198:10225   */\n      swap2\n      pop\n        /* \"#utility.yul\":10154:10235   */\n    tag_212:\n        /* \"#utility.yul\":10282:10284   */\n      0x20\n        /* \"#utility.yul\":10274:10280   */\n      dup3\n        /* \"#utility.yul\":10271:10285   */\n      lt\n        /* \"#utility.yul\":10251:10269   */\n      dup2\n        /* \"#utility.yul\":10248:10286   */\n      sub\n        /* \"#utility.yul\":10245:10329   */\n      tag_213\n      jumpi\n        /* \"#utility.yul\":10301:10319   */\n      tag_214\n      tag_96\n      jump\t// in\n    tag_214:\n        /* \"#utility.yul\":10245:10329   */\n    tag_213:\n        /* \"#utility.yul\":10066:10335   */\n      pop\n        /* \"#utility.yul\":10015:10335   */\n      swap2\n      swap1\n      pop\n      jump\t// out\n        /* \"#utility.yul\":10341:10482   */\n    tag_97:\n        /* \"#utility.yul\":10390:10394   */\n      0x00\n        /* \"#utility.yul\":10413:10416   */\n      dup2\n        /* \"#utility.yul\":10405:10416   */\n      swap1\n      pop\n        /* \"#utility.yul\":10436:10439   */\n      dup2\n        /* \"#utility.yul\":10433:10434   */\n      0x00\n        /* \"#utility.yul\":10426:10440   */\n      mstore\n        /* \"#utility.yul\":10470:10474   */\n      0x20\n        /* \"#utility.yul\":10467:10468   */\n      0x00\n        /* \"#utility.yul\":10457:10475   */\n      keccak256\n        /* \"#utility.yul\":10449:10475   */\n      swap1\n      pop\n        /* \"#utility.yul\":10341:10482   */\n      swap2\n      swap1\n      pop\n      jump\t// out\n        /* \"#utility.yul\":10488:10581   */\n    tag_98:\n        /* \"#utility.yul\":10525:10531   */\n      0x00\n        /* \"#utility.yul\":10572:10574   */\n      0x20\n        /* \"#utility.yul\":10567:10569   */\n      0x1f\n        /* \"#utility.yul\":10560:10565   */\n      dup4\n        /* \"#utility.yul\":10556:10570   */\n      add\n        /* \"#utility.yul\":10552:10575   */\n      div\n        /* \"#utility.yul\":10542:10575   */\n      swap1\n      pop\n        /* \"#utility.yul\":10488:10581   */\n      swap2\n      swap1\n      pop\n      jump\t// out\n        /* \"#utility.yul\":10587:10694   */\n    tag_99:\n        /* \"#utility.yul\":10631:10639   */\n      0x00\n        /* \"#utility.yul\":10681:10686   */\n      dup3\n        /* \"#utility.yul\":10675:10679   */\n      dup3\n        /* \"#utility.yul\":10671:10687   */\n      shl\n        /* \"#utility.yul\":10650:10687   */\n      swap1\n      pop\n        /* \"#utility.yul\":10587:10694   */\n      swap3\n      swap2\n      pop\n      pop\n      jump\t// out\n        /* \"#utility.yul\":10700:11093   */\n    tag_100:\n        /* \"#utility.yul\":10769:10775   */\n      0x00\n        /* \"#utility.yul\":10819:10820   */\n      0x08\n        /* \"#utility.yul\":10807:10817   */\n      dup4\n        /* \"#utility.yul\":10803:10821   */\n      mul\n        /* \"#utility.yul\":10842:10939   */\n      tag_219\n        /* \"#utility.yul\":10872:10938   */\n      0xffffffffffffffffffffffffffffffffffffffffffffffffffffffffffffffff\n        /* \"#utility.yul\":10861:10870   */\n      dup3\n        /* \"#utility.yul\":10842:10939   */\n      tag_99\n      jump\t// in\n    tag_219:\n        /* \"#utility.yul\":10960:10999   */\n      tag_220\n        /* \"#utility.yul\":10990:10998   */\n      dup7\n        /* \"#utility.yul\":10979:10988   */\n      dup4\n        /* \"#utility.yul\":10960:10999   */\n      tag_99\n      jump\t// in\n    tag_220:\n        /* \"#utility.yul\":10948:10999   */\n      swap6\n      pop\n        /* \"#utility.yul\":11032:11036   */\n      dup1\n        /* \"#utility.yul\":11028:11037   */\n      not\n        /* \"#utility.yul\":11021:11026   */\n      dup5\n        /* \"#utility.yul\":11017:11038   */\n      and\n        /* \"#utility.yul\":11008:11038   */\n      swap4\n      pop\n        /* \"#utility.yul\":11081:11085   */\n      dup1\n        /* \"#utility.yul\":11071:11079   */\n      dup7\n        /* \"#utility.yul\":11067:11086   */\n      and\n        /* \"#utility.yul\":11060:11065   */\n      dup5\n        /* \"#utility.yul\":11057:11087   */\n      or\n        /* \"#utility.yul\":11047:11087   */\n      swap3\n      pop\n        /* \"#utility.yul\":10776:11093   */\n      pop\n      pop\n        /* \"#utility.yul\":10700:11093   */\n      swap4\n      swap3\n      pop\n      pop\n      pop\n      jump\t// out\n        /* \"#utility.yul\":11099:11159   */\n    tag_101:\n        /* \"#utility.yul\":11127:11130   */\n      0x00\n        /* \"#utility.yul\":11148:11153   */\n      dup2\n        /* \"#utility.yul\":11141:11153   */\n      swap1\n      pop\n        /* \"#utility.yul\":11099:11159   */\n      swap2\n      swap1\n      pop\n      jump\t// out\n        /* \"#utility.yul\":11165:11307   */\n    tag_102:\n        /* \"#utility.yul\":11215:11224   */\n      0x00\n        /* \"#utility.yul\":11248:11301   */\n      tag_223\n        /* \"#utility.yul\":11266:11300   */\n      tag_224\n        /* \"#utility.yul\":11275:11299   */\n      tag_225\n        /* \"#utility.yul\":11293:11298   */\n      dup5\n        /* \"#utility.yul\":11275:11299   */\n      tag_68\n      jump\t// in\n    tag_225:\n        /* \"#utility.yul\":11266:11300   */\n      tag_101\n      jump\t// in\n    tag_224:\n        /* \"#utility.yul\":11248:11301   */\n      tag_68\n      jump\t// in\n    tag_223:\n        /* \"#utility.yul\":11235:11301   */\n      swap1\n      pop\n        /* \"#utility.yul\":11165:11307   */\n      swap2\n      swap1\n      pop\n      jump\t// out\n        /* \"#utility.yul\":11313:11388   */\n    tag_103:\n        /* \"#utility.yul\":11356:11359   */\n      0x00\n        /* \"#utility.yul\":11377:11382   */\n      dup2\n        /* \"#utility.yul\":11370:11382   */\n      swap1\n      pop\n        /* \"#utility.yul\":11313:11388   */\n      swap2\n      swap1\n      pop\n      jump\t// out\n        /* \"#utility.yul\":11394:11663   */\n    tag_104:\n        /* \"#utility.yul\":11504:11543   */\n      tag_228\n        /* \"#utility.yul\":11535:11542   */\n      dup4\n        /* \"#utility.yul\":11504:11543   */\n      tag_102\n      jump\t// in\n    tag_228:\n        /* \"#utility.yul\":11565:11656   */\n      tag_229\n        /* \"#utility.yul\":11614:11655   */\n      tag_230\n        /* \"#utility.yul\":11638:11654   */\n      dup3\n        /* \"#utility.yul\":11614:11655   */\n      tag_103\n      jump\t// in\n    tag_230:\n        /* \"#utility.yul\":11606:11612   */\n      dup5\n        /* \"#utility.yul\":11599:11603   */\n      dup5\n        /* \"#utility.yul\":11593:11604   */\n      sload\n        /* \"#utility.yul\":11565:11656   */\n      tag_100\n      jump\t// in\n    tag_229:\n        /* \"#utility.yul\":11559:11563   */\n      dup3\n        /* \"#utility.yul\":11552:11657   */\n      sstore\n        /* \"#utility.yul\":11470:11663   */\n      pop\n        /* \"#utility.yul\":11394:11663   */\n      pop\n      pop\n      pop\n      jump\t// out\n        /* \"#utility.yul\":11669:11742   */\n    tag_105:\n        /* \"#utility.yul\":11714:11717   */\n      0x00\n        /* \"#utility.yul\":11735:11736   */\n      0x00\n        /* \"#utility.yul\":11728:11736   */\n      swap1\n      pop\n        /* \"#utility.yul\":11669:11742   */\n      swap1\n      jump\t// out\n        /* \"#utility.yul\":11748:11937   */\n    tag_106:\n        /* \"#utility.yul\":11825:11857   */\n      tag_233\n      tag_105\n      jump\t// in\n    tag_233:\n        /* \"#utility.yul\":11866:11931   */\n      tag_234\n        /* \"#utility.yul\":11924:11930   */\n      dup2\n        /* \"#utility.yul\":11916:11922   */\n      dup5\n        /* \"#utility.yul\":11910:11914   */\n      dup5\n        /* \"#utility.yul\":11866:11931   */\n      tag_104\n      jump\t// in\n    tag_234:\n        /* \"#utility.yul\":11801:11937   */\n      pop\n        /* \"#utility.yul\":11748:11937   */\n      pop\n      pop\n      jump\t// out\n        /* \"#utility.yul\":11943:12129   */\n    tag_107:\n        /* \"#utility.yul\":12003:12123   */\n    tag_236:\n        /* \"#utility.yul\":12020:12023   */\n      dup2\n        /* \"#utility.yul\":12013:12018   */\n      dup2\n        /* \"#utility.yul\":12010:12024   */\n      lt\n        /* \"#utility.yul\":12003:12123   */\n      iszero\n      tag_238\n      jumpi\n        /* \"#utility.yul\":12074:12113   */\n      tag_239\n        /* \"#utility.yul\":12111:12112   */\n      0x00\n        /* \"#utility.yul\":12104:12109   */\n      dup3\n        /* \"#utility.yul\":12074:12113   */\n      tag_106\n      jump\t// in\n    tag_239:\n        /* \"#utility.yul\":12047:12048   */\n      0x01\n        /* \"#utility.yul\":12040:12045   */\n      dup2\n        /* \"#utility.yul\":12036:12049   */\n      add\n        /* \"#utility.yul\":12027:12049   */\n      swap1\n      pop\n        /* \"#utility.yul\":12003:12123   */\n      jump(tag_236)\n    tag_238:\n        /* \"#utility.yul\":11943:12129   */\n      pop\n      pop\n      jump\t// out\n        /* \"#utility.yul\":12135:12678   */\n    tag_108:\n        /* \"#utility.yul\":12236:12238   */\n      0x1f\n        /* \"#utility.yul\":12231:12234   */\n      dup3\n        /* \"#utility.yul\":12228:12239   */\n      gt\n        /* \"#utility.yul\":12225:12671   */\n      iszero\n      tag_241\n      jumpi\n        /* \"#utility.yul\":12270:12308   */\n      tag_242\n        /* \"#utility.yul\":12302:12307   */\n      dup2\n        /* \"#utility.yul\":12270:12308   */\n      tag_97\n      jump\t// in\n    tag_242:\n        /* \"#utility.yul\":12354:12383   */\n      tag_243\n        /* \"#utility.yul\":12372:12382   */\n      dup5\n        /* \"#utility.yul\":12354:12383   */\n      tag_98\n      jump\t// in\n    tag_243:\n        /* \"#utility.yul\":12344:12352   */\n      dup2\n        /* \"#utility.yul\":12340:12384   */\n      add\n        /* \"#utility.yul\":12537:12539   */\n      0x20\n        /* \"#utility.yul\":12525:12535   */\n      dup6\n        /* \"#utility.yul\":12522:12540   */\n      lt\n        /* \"#utility.yul\":12519:12568   */\n      iszero\n      tag_244\n      jumpi\n        /* \"#utility.yul\":12558:12566   */\n      dup2\n        /* \"#utility.yul\":12543:12566   */\n      swap1\n      pop\n        /* \"#utility.yul\":12519:12568   */\n    tag_244:\n        /* \"#utility.yul\":12581:12661   */\n      tag_245\n        /* \"#utility.yul\":12637:12659   */\n      tag_246\n        /* \"#utility.yul\":12655:12658   */\n      dup6\n        /* \"#utility.yul\":12637:12659   */\n      tag_98\n      jump\t// in\n    tag_246:\n        /* \"#utility.yul\":12627:12635   */\n      dup4\n        /* \"#utility.yul\":12623:12660   */\n      add\n        /* \"#utility.yul\":12610:12621   */\n      dup3\n        /* \"#utility.yul\":12581:12661   */\n      tag_107\n      jump\t// in\n    tag_245:\n        /* \"#utility.yul\":12240:12671   */\n      pop\n      pop\n        /* \"#utility.yul\":12225:12671   */\n    tag_241:\n        /* \"#utility.yul\":12135:12678   */\n      pop\n      pop\n      pop\n      jump\t// out\n        /* \"#utility.yul\":12684:12801   */\n    tag_109:\n        /* \"#utility.yul\":12738:12746   */\n      0x00\n        /* \"#utility.yul\":12788:12793   */\n      dup3\n        /* \"#utility.yul\":12782:12786   */\n      dup3\n        /* \"#utility.yul\":12778:12794   */\n      shr\n        /* \"#utility.yul\":12757:12794   */\n      swap1\n      pop\n        /* \"#utility.yul\":12684:12801   */\n      swap3\n      swap2\n      pop\n      pop\n      jump\t// out\n        /* \"#utility.yul\":12807:12976   */\n    tag_110:\n        /* \"#utility.yul\":12851:12857   */\n      0x00\n        /* \"#utility.yul\":12884:12935   */\n      tag_249\n        /* \"#utility.yul\":12932:12933   */\n      0x00\n        /* \"#utility.yul\":12928:12934   */\n      not\n        /* \"#utility.yul\":12920:12925   */\n      dup5\n        /* \"#utility.yul\":12917:12918   */\n      0x08\n        /* \"#utility.yul\":12913:12926   */\n      mul\n        /* \"#utility.yul\":12884:12935   */\n      tag_109\n      jump\t// in\n    tag_249:\n        /* \"#utility.yul\":12880:12936   */\n      not\n        /* \"#utility.yul\":12965:12969   */\n      dup1\n        /* \"#utility.yul\":12959:12963   */\n      dup4\n        /* \"#utility.yul\":12955:12970   */\n      and\n        /* \"#utility.yul\":12945:12970   */\n      swap2\n      pop\n        /* \"#utility.yul\":12858:12976   */\n      pop\n        /* \"#utility.yul\":12807:12976   */\n      swap3\n      swap2\n      pop\n      pop\n      jump\t// out\n        /* \"#utility.yul\":12981:13276   */\n    tag_111:\n        /* \"#utility.yul\":13057:13061   */\n      0x00\n        /* \"#utility.yul\":13203:13232   */\n      tag_251\n        /* \"#utility.yul\":13228:13231   */\n      dup4\n        /* \"#utility.yul\":13222:13226   */\n      dup4\n        /* \"#utility.yul\":13203:13232   */\n      tag_110\n      jump\t// in\n    tag_251:\n        /* \"#utility.yul\":13195:13232   */\n      swap2\n      pop\n        /* \"#utility.yul\":13265:13268   */\n      dup3\n        /* \"#utility.yul\":13262:13263   */\n      0x02\n        /* \"#utility.yul\":13258:13269   */\n      mul\n        /* \"#utility.yul\":13252:13256   */\n      dup3\n        /* \"#utility.yul\":13249:13270   */\n      or\n        /* \"#utility.yul\":13241:13270   */\n      swap1\n      pop\n        /* \"#utility.yul\":12981:13276   */\n      swap3\n      swap2\n      pop\n      pop\n      jump\t// out\n        /* \"#utility.yul\":13281:14676   */\n    tag_61:\n        /* \"#utility.yul\":13398:13435   */\n      tag_253\n        /* \"#utility.yul\":13431:13434   */\n      dup3\n        /* \"#utility.yul\":13398:13435   */\n      tag_70\n      jump\t// in\n    tag_253:\n        /* \"#utility.yul\":13500:13518   */\n      0xffffffffffffffff\n        /* \"#utility.yul\":13492:13498   */\n      dup2\n        /* \"#utility.yul\":13489:13519   */\n      gt\n        /* \"#utility.yul\":13486:13542   */\n      iszero\n      tag_254\n      jumpi\n        /* \"#utility.yul\":13522:13540   */\n      tag_255\n      tag_84\n      jump\t// in\n    tag_255:\n        /* \"#utility.yul\":13486:13542   */\n    tag_254:\n        /* \"#utility.yul\":13566:13604   */\n      tag_256\n        /* \"#utility.yul\":13598:13602   */\n      dup3\n        /* \"#utility.yul\":13592:13603   */\n      sload\n        /* \"#utility.yul\":13566:13604   */\n      tag_45\n      jump\t// in\n    tag_256:\n        /* \"#utility.yul\":13651:13718   */\n      tag_257\n        /* \"#utility.yul\":13711:13717   */\n      dup3\n        /* \"#utility.yul\":13703:13709   */\n      dup3\n        /* \"#utility.yul\":13697:13701   */\n      dup6\n        /* \"#utility.yul\":13651:13718   */\n      tag_108\n      jump\t// in\n    tag_257:\n        /* \"#utility.yul\":13745:13746   */\n      0x00\n        /* \"#utility.yul\":13769:13773   */\n      0x20\n        /* \"#utility.yul\":13756:13773   */\n      swap1\n      pop\n        /* \"#utility.yul\":13801:13803   */\n      0x1f\n        /* \"#utility.yul\":13793:13799   */\n      dup4\n        /* \"#utility.yul\":13790:13804   */\n      gt\n        /* \"#utility.yul\":13818:13819   */\n      0x01\n        /* \"#utility.yul\":13813:14431   */\n      dup2\n      eq\n      tag_259\n      jumpi\n        /* \"#utility.yul\":14475:14476   */\n      0x00\n        /* \"#utility.yul\":14492:14498   */\n      dup5\n        /* \"#utility.yul\":14489:14566   */\n      iszero\n      tag_260\n      jumpi\n        /* \"#utility.yul\":14541:14550   */\n      dup3\n        /* \"#utility.yul\":14536:14539   */\n      dup8\n        /* \"#utility.yul\":14532:14551   */\n      add\n        /* \"#utility.yul\":14526:14552   */\n      mload\n        /* \"#utility.yul\":14517:14552   */\n      swap1\n      pop\n        /* \"#utility.yul\":14489:14566   */\n    tag_260:\n        /* \"#utility.yul\":14592:14659   */\n      tag_261\n        /* \"#utility.yul\":14652:14658   */\n      dup6\n        /* \"#utility.yul\":14645:14650   */\n      dup3\n        /* \"#utility.yul\":14592:14659   */\n      tag_111\n      jump\t// in\n    tag_261:\n        /* \"#utility.yul\":14586:14590   */\n      dup7\n        /* \"#utility.yul\":14579:14660   */\n      sstore\n        /* \"#utility.yul\":14448:14670   */\n      pop\n        /* \"#utility.yul\":13783:14670   */\n      jump(tag_258)\n        /* \"#utility.yul\":13813:14431   */\n    tag_259:\n        /* \"#utility.yul\":13865:13869   */\n      0x1f\n        /* \"#utility.yul\":13861:13870   */\n      not\n        /* \"#utility.yul\":13853:13859   */\n      dup5\n        /* \"#utility.yul\":13849:13871   */\n      and\n        /* \"#utility.yul\":13899:13936   */\n      tag_262\n        /* \"#utility.yul\":13931:13935   */\n      dup7\n        /* \"#utility.yul\":13899:13936   */\n      tag_97\n      jump\t// in\n    tag_262:\n        /* \"#utility.yul\":13958:13959   */\n      0x00\n        /* \"#utility.yul\":13972:14180   */\n    tag_263:\n        /* \"#utility.yul\":13986:13993   */\n      dup3\n        /* \"#utility.yul\":13983:13984   */\n      dup2\n        /* \"#utility.yul\":13980:13994   */\n      lt\n        /* \"#utility.yul\":13972:14180   */\n      iszero\n      tag_265\n      jumpi\n        /* \"#utility.yul\":14065:14074   */\n      dup5\n        /* \"#utility.yul\":14060:14063   */\n      dup10\n        /* \"#utility.yul\":14056:14075   */\n      add\n        /* \"#utility.yul\":14050:14076   */\n      mload\n        /* \"#utility.yul\":14042:14048   */\n      dup3\n        /* \"#utility.yul\":14035:14077   */\n      sstore\n        /* \"#utility.yul\":14116:14117   */\n      0x01\n        /* \"#utility.yul\":14108:14114   */\n      dup3\n        /* \"#utility.yul\":14104:14118   */\n      add\n        /* \"#utility.yul\":14094:14118   */\n      swap2\n      pop\n        /* \"#utility.yul\":14163:14165   */\n      0x20\n        /* \"#utility.yul\":14152:14161   */\n      dup6\n        /* \"#utility.yul\":14148:14166   */\n      add\n        /* \"#utility.yul\":14135:14166   */\n      swap5\n      pop\n        /* \"#utility.yul\":14009:14013   */\n      0x20\n        /* \"#utility.yul\":14006:14007   */\n      dup2\n        /* \"#utility.yul\":14002:14014   */\n      add\n        /* \"#utility.yul\":13997:14014   */\n      swap1\n      pop\n        /* \"#utility.yul\":13972:14180   */\n      jump(tag_263)\n    tag_265:\n        /* \"#utility.yul\":14208:14214   */\n      dup7\n        /* \"#utility.yul\":14199:14206   */\n      dup4\n        /* \"#utility.yul\":14196:14215   */\n      lt\n        /* \"#utility.yul\":14193:14372   */\n      iszero\n      tag_266\n      jumpi\n        /* \"#utility.yul\":14266:14275   */\n      dup5\n        /* \"#utility.yul\":14261:14264   */\n      dup10\n        /* \"#utility.yul\":14257:14276   */\n      add\n        /* \"#utility.yul\":14251:14277   */\n      mload\n        /* \"#utility.yul\":14309:14357   */\n      tag_267\n        /* \"#utility.yul\":14351:14355   */\n      0x1f\n        /* \"#utility.yul\":14343:14349   */\n      dup10\n        /* \"#utility.yul\":14339:14356   */\n      and\n        /* \"#utility.yul\":14328:14337   */\n      dup3\n        /* \"#utility.yul\":14309:14357   */\n      tag_110\n      jump\t// in\n    tag_267:\n        /* \"#utility.yul\":14301:14307   */\n      dup4\n        /* \"#utility.yul\":14294:14358   */\n      sstore\n        /* \"#utility.yul\":14216:14372   */\n      pop\n        /* \"#utility.yul\":14193:14372   */\n    tag_266:\n        /* \"#utility.yul\":14418:14419   */\n      0x01\n        /* \"#utility.yul\":14414:14415   */\n      0x02\n        /* \"#utility.yul\":14406:14412   */\n      dup9\n        /* \"#utility.yul\":14402:14416   */\n      mul\n        /* \"#utility.yul\":14398:14420   */\n      add\n        /* \"#utility.yul\":14392:14396   */\n      dup9\n        /* \"#utility.yul\":14385:14421   */\n      sstore\n        /* \"#utility.yul\":13820:14431   */\n      pop\n      pop\n      pop\n        /* \"#utility.yul\":13783:14670   */\n    tag_258:\n      pop\n        /* \"#utility.yul\":13373:14676   */\n      pop\n      pop\n      pop\n        /* \"#utility.yul\":13281:14676   */\n      pop\n      pop\n      jump\t// out\n        /* \"#utility.yul\":14682:14830   */\n    tag_112:\n        /* \"#utility.yul\":14784:14795   */\n      0x00\n        /* \"#utility.yul\":14821:14824   */\n      dup2\n        /* \"#utility.yul\":14806:14824   */\n      swap1\n      pop\n        /* \"#utility.yul\":14682:14830   */\n      swap3\n      swap2\n      pop\n      pop\n      jump\t// out\n        /* \"#utility.yul\":14836:15226   */\n    tag_113:\n        /* \"#utility.yul\":14942:14945   */\n      0x00\n        /* \"#utility.yul\":14970:15009   */\n      tag_270\n        /* \"#utility.yul\":15003:15008   */\n      dup3\n        /* \"#utility.yul\":14970:15009   */\n      tag_70\n      jump\t// in\n    tag_270:\n        /* \"#utility.yul\":15025:15114   */\n      tag_271\n        /* \"#utility.yul\":15107:15113   */\n      dup2\n        /* \"#utility.yul\":15102:15105   */\n      dup6\n        /* \"#utility.yul\":15025:15114   */\n      tag_112\n      jump\t// in\n    tag_271:\n        /* \"#utility.yul\":15018:15114   */\n      swap4\n      pop\n        /* \"#utility.yul\":15123:15188   */\n      tag_272\n        /* \"#utility.yul\":15181:15187   */\n      dup2\n        /* \"#utility.yul\":15176:15179   */\n      dup6\n        /* \"#utility.yul\":15169:15173   */\n      0x20\n        /* \"#utility.yul\":15162:15167   */\n      dup7\n        /* \"#utility.yul\":15158:15174   */\n      add\n        /* \"#utility.yul\":15123:15188   */\n      tag_72\n      jump\t// in\n    tag_272:\n        /* \"#utility.yul\":15213:15219   */\n      dup1\n        /* \"#utility.yul\":15208:15211   */\n      dup5\n        /* \"#utility.yul\":15204:15220   */\n      add\n        /* \"#utility.yul\":15197:15220   */\n      swap2\n      pop\n        /* \"#utility.yul\":14946:15226   */\n      pop\n        /* \"#utility.yul\":14836:15226   */\n      swap3\n      swap2\n      pop\n      pop\n      jump\t// out\n        /* \"#utility.yul\":15232:15507   */\n    tag_63:\n        /* \"#utility.yul\":15364:15367   */\n      0x00\n        /* \"#utility.yul\":15386:15481   */\n      tag_274\n        /* \"#utility.yul\":15477:15480   */\n      dup3\n        /* \"#utility.yul\":15468:15474   */\n      dup5\n        /* \"#utility.yul\":15386:15481   */\n      tag_113\n      jump\t// in\n    tag_274:\n        /* \"#utility.yul\":15379:15481   */\n      swap2\n      pop\n        /* \"#utility.yul\":15498:15501   */\n      dup2\n        /* \"#utility.yul\":15491:15501   */\n      swap1\n      pop\n        /* \"#utility.yul\":15232:15507   */\n      swap3\n      swap2\n      pop\n      pop\n      jump\t// out\n\n    auxdata: 0xa2646970667358221220fb152e9b7cc6837f6db3abfa7b79637f5418b5dcc8889d1d2dda7c97c7e1fd3a64736f6c634300081d0033\n}\n",
				"bytecode": {
					"linkReferences": {},
					"object": "6080604052348015600e575f5ffd5b50610ba28061001c5f395ff3fe608060405234801561000f575f5ffd5b506004361061007a575f3560e01c8063365b98b211610059578063365b98b2146100ea57806356a7d90a1461011b5780636057361d14610137578063df986725146101535761007a565b8062ce8e3e1461007e57806306c62c2c1461009c5780632e64cec1146100cc575b5f5ffd5b610086610171565b604051610093919061055f565b60405180910390f35b6100b660048036038101906100b191906106bc565b610266565b6040516100c39190610712565b60405180910390f35b6100d4610293565b6040516100e19190610712565b60405180910390f35b61010460048036038101906100ff9190610755565b61029b565b6040516101129291906107c8565b60405180910390f35b610135600480360381019061013091906107f6565b610350565b005b610151600480360381019061014c9190610755565b6103d4565b005b61015b6103dd565b6040516101689190610712565b60405180910390f35b60606001805480602002602001604051908101604052809291908181526020015f905b8282101561025d578382905f5260205f2090600202016040518060400160405290815f82015481526020016001820180546101ce9061087d565b80601f01602080910402602001604051908101604052809291908181526020018280546101fa9061087d565b80156102455780601f1061021c57610100808354040283529160200191610245565b820191905f5260205f20905b81548152906001019060200180831161022857829003601f168201915b50505050508152505081526020019060010190610194565b50505050905090565b6002818051602081018201805184825260208301602085012081835280955050505050505f915090505481565b5f5f54905090565b600181815481106102aa575f80fd5b905f5260205f2090600202015f91509050805f0154908060010180546102cf9061087d565b80601f01602080910402602001604051908101604052809291908181526020018280546102fb9061087d565b80156103465780601f1061031d57610100808354040283529160200191610346565b820191905f5260205f20905b81548152906001019060200180831161032957829003601f168201915b5050505050905082565b6001604051806040016040528084815260200183815250908060018154018082558091505060019003905f5260205f2090600202015f909190919091505f820151815f015560208201518160010190816103aa9190610a4d565b505050816002826040516103be9190610b56565b9081526020016040518091039020819055505050565b805f8190555050565b5f5481565b5f81519050919050565b5f82825260208201905092915050565b5f819050602082019050919050565b5f819050919050565b61041d8161040b565b82525050565b5f81519050919050565b5f82825260208201905092915050565b8281835e5f83830152505050565b5f601f19601f8301169050919050565b5f61046582610423565b61046f818561042d565b935061047f81856020860161043d565b6104888161044b565b840191505092915050565b5f604083015f8301516104a85f860182610414565b50602083015184820360208601526104c0828261045b565b9150508091505092915050565b5f6104d88383610493565b905092915050565b5f602082019050919050565b5f6104f6826103e2565b61050081856103ec565b935083602082028501610512856103fc565b805f5b8581101561054d578484038952815161052e85826104cd565b9450610539836104e0565b925060208a01995050600181019050610515565b50829750879550505050505092915050565b5f6020820190508181035f83015261057781846104ec565b905092915050565b5f604051905090565b5f5ffd5b5f5ffd5b5f5ffd5b5f5ffd5b7f4e487b71000000000000000000000000000000000000000000000000000000005f52604160045260245ffd5b6105ce8261044b565b810181811067ffffffffffffffff821117156105ed576105ec610598565b5b80604052505050565b5f6105ff61057f565b905061060b82826105c5565b919050565b5f67ffffffffffffffff82111561062a57610629610598565b5b6106338261044b565b9050602081019050919050565b828183375f83830152505050565b5f61066061065b84610610565b6105f6565b90508281526020810184848401111561067c5761067b610594565b5b610687848285610640565b509392505050565b5f82601f8301126106a3576106a2610590565b5b81356106b384826020860161064e565b91505092915050565b5f602082840312156106d1576106d0610588565b5b5f82013567ffffffffffffffff8111156106ee576106ed61058c565b5b6106fa8482850161068f565b91505092915050565b61070c8161040b565b82525050565b5f6020820190506107255f830184610703565b92915050565b6107348161040b565b811461073e575f5ffd5b50565b5f8135905061074f8161072b565b92915050565b5f6020828403121561076a57610769610588565b5b5f61077784828501610741565b91505092915050565b5f82825260208201905092915050565b5f61079a82610423565b6107a48185610780565b93506107b481856020860161043d565b6107bd8161044b565b840191505092915050565b5f6040820190506107db5f830185610703565b81810360208301526107ed8184610790565b90509392505050565b5f5f6040838503121561080c5761080b610588565b5b5f61081985828601610741565b925050602083013567ffffffffffffffff81111561083a5761083961058c565b5b6108468582860161068f565b9150509250929050565b7f4e487b71000000000000000000000000000000000000000000000000000000005f52602260045260245ffd5b5f600282049050600182168061089457607f821691505b6020821081036108a7576108a6610850565b5b50919050565b5f819050815f5260205f209050919050565b5f6020601f8301049050919050565b5f82821b905092915050565b5f600883026109097fffffffffffffffffffffffffffffffffffffffffffffffffffffffffffffffff826108ce565b61091386836108ce565b95508019841693508086168417925050509392505050565b5f819050919050565b5f61094e6109496109448461040b565b61092b565b61040b565b9050919050565b5f819050919050565b61096783610934565b61097b61097382610955565b8484546108da565b825550505050565b5f5f905090565b610992610983565b61099d81848461095e565b505050565b5b818110156109c0576109b55f8261098a565b6001810190506109a3565b5050565b601f821115610a05576109d6816108ad565b6109df846108bf565b810160208510156109ee578190505b610a026109fa856108bf565b8301826109a2565b50505b505050565b5f82821c905092915050565b5f610a255f1984600802610a0a565b1980831691505092915050565b5f610a3d8383610a16565b9150826002028217905092915050565b610a5682610423565b67ffffffffffffffff811115610a6f57610a6e610598565b5b610a79825461087d565b610a848282856109c4565b5f60209050601f831160018114610ab5575f8415610aa3578287015190505b610aad8582610a32565b865550610b14565b601f198416610ac3866108ad565b5f5b82811015610aea57848901518255600182019150602085019450602081019050610ac5565b86831015610b075784890151610b03601f891682610a16565b8355505b6001600288020188555050505b505050505050565b5f81905092915050565b5f610b3082610423565b610b3a8185610b1c565b9350610b4a81856020860161043d565b80840191505092915050565b5f610b618284610b26565b91508190509291505056fea2646970667358221220fb152e9b7cc6837f6db3abfa7b79637f5418b5dcc8889d1d2dda7c97c7e1fd3a64736f6c634300081d0033",
					"opcodes": "PUSH1 0x80 PUSH1 0x40 MSTORE CALLVALUE DUP1 ISZERO PUSH1 0xE JUMPI PUSH0 PUSH0 REVERT JUMPDEST POP PUSH2 0xBA2 DUP1 PUSH2 0x1C PUSH0 CODECOPY PUSH0 RETURN INVALID PUSH1 0x80 PUSH1 0x40 MSTORE CALLVALUE DUP1 ISZERO PUSH2 0xF JUMPI PUSH0 PUSH0 REVERT JUMPDEST POP PUSH1 0x4 CALLDATASIZE LT PUSH2 0x7A JUMPI PUSH0 CALLDATALOAD PUSH1 0xE0 SHR DUP1 PUSH4 0x365B98B2 GT PUSH2 0x59 JUMPI DUP1 PUSH4 0x365B98B2 EQ PUSH2 0xEA JUMPI DUP1 PUSH4 0x56A7D90A EQ PUSH2 0x11B JUMPI DUP1 PUSH4 0x6057361D EQ PUSH2 0x137 JUMPI DUP1 PUSH4 0xDF986725 EQ PUSH2 0x153 JUMPI PUSH2 0x7A JUMP JUMPDEST DUP1 PUSH3 0xCE8E3E EQ PUSH2 0x7E JUMPI DUP1 PUSH4 0x6C62C2C EQ PUSH2 0x9C JUMPI DUP1 PUSH4 0x2E64CEC1 EQ PUSH2 0xCC JUMPI JUMPDEST PUSH0 PUSH0 REVERT JUMPDEST PUSH2 0x86 PUSH2 0x171 JUMP JUMPDEST PUSH1 0x40 MLOAD PUSH2 0x93 SWAP2 SWAP1 PUSH2 0x55F JUMP JUMPDEST PUSH1 0x40 MLOAD DUP1 SWAP2 SUB SWAP1 RETURN JUMPDEST PUSH2 0xB6 PUSH1 0x4 DUP1 CALLDATASIZE SUB DUP2 ADD SWAP1 PUSH2 0xB1 SWAP2 SWAP1 PUSH2 0x6BC JUMP JUMPDEST PUSH2 0x266 JUMP JUMPDEST PUSH1 0x40 MLOAD PUSH2 0xC3 SWAP2 SWAP1 PUSH2 0x712 JUMP JUMPDEST PUSH1 0x40 MLOAD DUP1 SWAP2 SUB SWAP1 RETURN JUMPDEST PUSH2 0xD4 PUSH2 0x293 JUMP JUMPDEST PUSH1 0x40 MLOAD PUSH2 0xE1 SWAP2 SWAP1 PUSH2 0x712 JUMP JUMPDEST PUSH1 0x40 MLOAD DUP1 SWAP2 SUB SWAP1 RETURN JUMPDEST PUSH2 0x104 PUSH1 0x4 DUP1 CALLDATASIZE SUB DUP2 ADD SWAP1 PUSH2 0xFF SWAP2 SWAP1 PUSH2 0x755 JUMP JUMPDEST PUSH2 0x29B JUMP JUMPDEST PUSH1 0x40 MLOAD PUSH2 0x112 SWAP3 SWAP2 SWAP1 PUSH2 0x7C8 JUMP JUMPDEST PUSH1 0x40 MLOAD DUP1 SWAP2 SUB SWAP1 RETURN JUMPDEST PUSH2 0x135 PUSH1 0x4 DUP1 CALLDATASIZE SUB DUP2 ADD SWAP1 PUSH2 0x130 SWAP2 SWAP1 PUSH2 0x7F6 JUMP JUMPDEST PUSH2 0x350 JUMP JUMPDEST STOP JUMPDEST PUSH2 0x151 PUSH1 0x4 DUP1 CALLDATASIZE SUB DUP2 ADD SWAP1 PUSH2 0x14C SWAP2 SWAP1 PUSH2 0x755 JUMP JUMPDEST PUSH2 0x3D4 JUMP JUMPDEST STOP JUMPDEST PUSH2 0x15B PUSH2 0x3DD JUMP JUMPDEST PUSH1 0x40 MLOAD PUSH2 0x168 SWAP2 SWAP1 PUSH2 0x712 JUMP JUMPDEST PUSH1 0x40 MLOAD DUP1 SWAP2 SUB SWAP1 RETURN JUMPDEST PUSH1 0x60 PUSH1 0x1 DUP1 SLOAD DUP1 PUSH1 0x20 MUL PUSH1 0x20 ADD PUSH1 0x40 MLOAD SWAP1 DUP2 ADD PUSH1 0x40 MSTORE DUP1 SWAP3 SWAP2 SWAP1 DUP2 DUP2 MSTORE PUSH1 0x20 ADD PUSH0 SWAP1 JUMPDEST DUP3 DUP3 LT ISZERO PUSH2 0x25D JUMPI DUP4 DUP3 SWAP1 PUSH0 MSTORE PUSH1 0x20 PUSH0 KECCAK256 SWAP1 PUSH1 0x2 MUL ADD PUSH1 0x40 MLOAD DUP1 PUSH1 0x40 ADD PUSH1 0x40 MSTORE SWAP1 DUP2 PUSH0 DUP3 ADD SLOAD DUP2 MSTORE PUSH1 0x20 ADD PUSH1 0x1 DUP3 ADD DUP1 SLOAD PUSH2 0x1CE SWAP1 PUSH2 0x87D JUMP JUMPDEST DUP1 PUSH1 0x1F ADD PUSH1 0x20 DUP1 SWAP2 DIV MUL PUSH1 0x20 ADD PUSH1 0x40 MLOAD SWAP1 DUP2 ADD PUSH1 0x40 MSTORE DUP1 SWAP3 SWAP2 SWAP1 DUP2 DUP2 MSTORE PUSH1 0x20 ADD DUP3 DUP1 SLOAD PUSH2 0x1FA SWAP1 PUSH2 0x87D JUMP JUMPDEST DUP1 ISZERO PUSH2 0x245 JUMPI DUP1 PUSH1 0x1F LT PUSH2 0x21C JUMPI PUSH2 0x100 DUP1 DUP4 SLOAD DIV MUL DUP4 MSTORE SWAP2 PUSH1 0x20 ADD SWAP2 PUSH2 0x245 JUMP JUMPDEST DUP3 ADD SWAP2 SWAP1 PUSH0 MSTORE PUSH1 0x20 PUSH0 KECCAK256 SWAP1 JUMPDEST DUP2 SLOAD DUP2 MSTORE SWAP1 PUSH1 0x1 ADD SWAP1 PUSH1 0x20 ADD DUP1 DUP4 GT PUSH2 0x228 JUMPI DUP3 SWAP1 SUB PUSH1 0x1F AND DUP3 ADD SWAP2 JUMPDEST POP POP POP POP POP DUP2 MSTORE POP POP DUP2 MSTORE PUSH1 0x20 ADD SWAP1 PUSH1 0x1 ADD SWAP1 PUSH2 0x194 JUMP JUMPDEST POP POP POP POP SWAP1 POP SWAP1 JUMP JUMPDEST PUSH1 0x2 DUP2 DUP1 MLOAD PUSH1 0x20 DUP2 ADD DUP3 ADD DUP1 MLOAD DUP5 DUP3 MSTORE PUSH1 0x20 DUP4 ADD PUSH1 0x20 DUP6 ADD KECCAK256 DUP2 DUP4 MSTORE DUP1 SWAP6 POP POP POP POP POP POP PUSH0 SWAP2 POP SWAP1 POP SLOAD DUP2 JUMP JUMPDEST PUSH0 PUSH0 SLOAD SWAP1 POP SWAP1 JUMP JUMPDEST PUSH1 0x1 DUP2 DUP2 SLOAD DUP2 LT PUSH2 0x2AA JUMPI PUSH0 DUP1 REVERT JUMPDEST SWAP1 PUSH0 MSTORE PUSH1 0x20 PUSH0 KECCAK256 SWAP1 PUSH1 0x2 MUL ADD PUSH0 SWAP2 POP SWAP1 POP DUP1 PUSH0 ADD SLOAD SWAP1 DUP1 PUSH1 0x1 ADD DUP1 SLOAD PUSH2 0x2CF SWAP1 PUSH2 0x87D JUMP JUMPDEST DUP1 PUSH1 0x1F ADD PUSH1 0x20 DUP1 SWAP2 DIV MUL PUSH1 0x20 ADD PUSH1 0x40 MLOAD SWAP1 DUP2 ADD PUSH1 0x40 MSTORE DUP1 SWAP3 SWAP2 SWAP1 DUP2 DUP2 MSTORE PUSH1 0x20 ADD DUP3 DUP1 SLOAD PUSH2 0x2FB SWAP1 PUSH2 0x87D JUMP JUMPDEST DUP1 ISZERO PUSH2 0x346 JUMPI DUP1 PUSH1 0x1F LT PUSH2 0x31D JUMPI PUSH2 0x100 DUP1 DUP4 SLOAD DIV MUL DUP4 MSTORE SWAP2 PUSH1 0x20 ADD SWAP2 PUSH2 0x346 JUMP JUMPDEST DUP3 ADD SWAP2 SWAP1 PUSH0 MSTORE PUSH1 0x20 PUSH0 KECCAK256 SWAP1 JUMPDEST DUP2 SLOAD DUP2 MSTORE SWAP1 PUSH1 0x1 ADD SWAP1 PUSH1 0x20 ADD DUP1 DUP4 GT PUSH2 0x329 JUMPI DUP3 SWAP1 SUB PUSH1 0x1F AND DUP3 ADD SWAP2 JUMPDEST POP POP POP POP POP SWAP1 POP DUP3 JUMP JUMPDEST PUSH1 0x1 PUSH1 0x40 MLOAD DUP1 PUSH1 0x40 ADD PUSH1 0x40 MSTORE DUP1 DUP5 DUP2 MSTORE PUSH1 0x20 ADD DUP4 DUP2 MSTORE POP SWAP1 DUP1 PUSH1 0x1 DUP2 SLOAD ADD DUP1 DUP3 SSTORE DUP1 SWAP2 POP POP PUSH1 0x1 SWAP1 SUB SWAP1 PUSH0 MSTORE PUSH1 0x20 PUSH0 KECCAK256 SWAP1 PUSH1 0x2 MUL ADD PUSH0 SWAP1 SWAP2 SWAP1 SWAP2 SWAP1 SWAP2 POP PUSH0 DUP3 ADD MLOAD DUP2 PUSH0 ADD SSTORE PUSH1 0x20 DUP3 ADD MLOAD DUP2 PUSH1 0x1 ADD SWAP1 DUP2 PUSH2 0x3AA SWAP2 SWAP1 PUSH2 0xA4D JUMP JUMPDEST POP POP POP DUP2 PUSH1 0x2 DUP3 PUSH1 0x40 MLOAD PUSH2 0x3BE SWAP2 SWAP1 PUSH2 0xB56 JUMP JUMPDEST SWAP1 DUP2 MSTORE PUSH1 0x20 ADD PUSH1 0x40 MLOAD DUP1 SWAP2 SUB SWAP1 KECCAK256 DUP2 SWAP1 SSTORE POP POP POP JUMP JUMPDEST DUP1 PUSH0 DUP2 SWAP1 SSTORE POP POP JUMP JUMPDEST PUSH0 SLOAD DUP2 JUMP JUMPDEST PUSH0 DUP2 MLOAD SWAP1 POP SWAP2 SWAP1 POP JUMP JUMPDEST PUSH0 DUP3 DUP3 MSTORE PUSH1 0x20 DUP3 ADD SWAP1 POP SWAP3 SWAP2 POP POP JUMP JUMPDEST PUSH0 DUP2 SWAP1 POP PUSH1 0x20 DUP3 ADD SWAP1 POP SWAP2 SWAP1 POP JUMP JUMPDEST PUSH0 DUP2 SWAP1 POP SWAP2 SWAP1 POP JUMP JUMPDEST PUSH2 0x41D DUP2 PUSH2 0x40B JUMP JUMPDEST DUP3 MSTORE POP POP JUMP JUMPDEST PUSH0 DUP2 MLOAD SWAP1 POP SWAP2 SWAP1 POP JUMP JUMPDEST PUSH0 DUP3 DUP3 MSTORE PUSH1 0x20 DUP3 ADD SWAP1 POP SWAP3 SWAP2 POP POP JUMP JUMPDEST DUP3 DUP2 DUP4 MCOPY PUSH0 DUP4 DUP4 ADD MSTORE POP POP POP JUMP JUMPDEST PUSH0 PUSH1 0x1F NOT PUSH1 0x1F DUP4 ADD AND SWAP1 POP SWAP2 SWAP1 POP JUMP JUMPDEST PUSH0 PUSH2 0x465 DUP3 PUSH2 0x423 JUMP JUMPDEST PUSH2 0x46F DUP2 DUP6 PUSH2 0x42D JUMP JUMPDEST SWAP4 POP PUSH2 0x47F DUP2 DUP6 PUSH1 0x20 DUP7 ADD PUSH2 0x43D JUMP JUMPDEST PUSH2 0x488 DUP2 PUSH2 0x44B JUMP JUMPDEST DUP5 ADD SWAP2 POP POP SWAP3 SWAP2 POP POP JUMP JUMPDEST PUSH0 PUSH1 0x40 DUP4 ADD PUSH0 DUP4 ADD MLOAD PUSH2 0x4A8 PUSH0 DUP7 ADD DUP3 PUSH2 0x414 JUMP JUMPDEST POP PUSH1 0x20 DUP4 ADD MLOAD DUP5 DUP3 SUB PUSH1 0x20 DUP7 ADD MSTORE PUSH2 0x4C0 DUP3 DUP3 PUSH2 0x45B JUMP JUMPDEST SWAP2 POP POP DUP1 SWAP2 POP POP SWAP3 SWAP2 POP POP JUMP JUMPDEST PUSH0 PUSH2 0x4D8 DUP4 DUP4 PUSH2 0x493 JUMP JUMPDEST SWAP1 POP SWAP3 SWAP2 POP POP JUMP JUMPDEST PUSH0 PUSH1 0x20 DUP3 ADD SWAP1 POP SWAP2 SWAP1 POP JUMP JUMPDEST PUSH0 PUSH2 0x4F6 DUP3 PUSH2 0x3E2 JUMP JUMPDEST PUSH2 0x500 DUP2 DUP6 PUSH2 0x3EC JUMP JUMPDEST SWAP4 POP DUP4 PUSH1 0x20 DUP3 MUL DUP6 ADD PUSH2 0x512 DUP6 PUSH2 0x3FC JUMP JUMPDEST DUP1 PUSH0 JUMPDEST DUP6 DUP2 LT ISZERO PUSH2 0x54D JUMPI DUP5 DUP5 SUB DUP10 MSTORE DUP2 MLOAD PUSH2 0x52E DUP6 DUP3 PUSH2 0x4CD JUMP JUMPDEST SWAP5 POP PUSH2 0x539 DUP4 PUSH2 0x4E0 JUMP JUMPDEST SWAP3 POP PUSH1 0x20 DUP11 ADD SWAP10 POP POP PUSH1 0x1 DUP2 ADD SWAP1 POP PUSH2 0x515 JUMP JUMPDEST POP DUP3 SWAP8 POP DUP8 SWAP6 POP POP POP POP POP POP SWAP3 SWAP2 POP POP JUMP JUMPDEST PUSH0 PUSH1 0x20 DUP3 ADD SWAP1 POP DUP2 DUP2 SUB PUSH0 DUP4 ADD MSTORE PUSH2 0x577 DUP2 DUP5 PUSH2 0x4EC JUMP JUMPDEST SWAP1 POP SWAP3 SWAP2 POP POP JUMP JUMPDEST PUSH0 PUSH1 0x40 MLOAD SWAP1 POP SWAP1 JUMP JUMPDEST PUSH0 PUSH0 REVERT JUMPDEST PUSH0 PUSH0 REVERT JUMPDEST PUSH0 PUSH0 REVERT JUMPDEST PUSH0 PUSH0 REVERT JUMPDEST PUSH32 0x4E487B7100000000000000000000000000000000000000000000000000000000 PUSH0 MSTORE PUSH1 0x41 PUSH1 0x4 MSTORE PUSH1 0x24 PUSH0 REVERT JUMPDEST PUSH2 0x5CE DUP3 PUSH2 0x44B JUMP JUMPDEST DUP2 ADD DUP2 DUP2 LT PUSH8 0xFFFFFFFFFFFFFFFF DUP3 GT OR ISZERO PUSH2 0x5ED JUMPI PUSH2 0x5EC PUSH2 0x598 JUMP JUMPDEST JUMPDEST DUP1 PUSH1 0x40 MSTORE POP POP POP JUMP JUMPDEST PUSH0 PUSH2 0x5FF PUSH2 0x57F JUMP JUMPDEST SWAP1 POP PUSH2 0x60B DUP3 DUP3 PUSH2 0x5C5 JUMP JUMPDEST SWAP2 SWAP1 POP JUMP JUMPDEST PUSH0 PUSH8 0xFFFFFFFFFFFFFFFF DUP3 GT ISZERO PUSH2 0x62A JUMPI PUSH2 0x629 PUSH2 0x598 JUMP JUMPDEST JUMPDEST PUSH2 0x633 DUP3 PUSH2 0x44B JUMP JUMPDEST SWAP1 POP PUSH1 0x20 DUP2 ADD SWAP1 POP SWAP2 SWAP1 POP JUMP JUMPDEST DUP3 DUP2 DUP4 CALLDATACOPY PUSH0 DUP4 DUP4 ADD MSTORE POP POP POP JUMP JUMPDEST PUSH0 PUSH2 0x660 PUSH2 0x65B DUP5 PUSH2 0x610 JUMP JUMPDEST PUSH2 0x5F6 JUMP JUMPDEST SWAP1 POP DUP3 DUP2 MSTORE PUSH1 0x20 DUP2 ADD DUP5 DUP5 DUP5 ADD GT ISZERO PUSH2 0x67C JUMPI PUSH2 0x67B PUSH2 0x594 JUMP JUMPDEST JUMPDEST PUSH2 0x687 DUP5 DUP3 DUP6 PUSH2 0x640 JUMP JUMPDEST POP SWAP4 SWAP3 POP POP POP JUMP JUMPDEST PUSH0 DUP3 PUSH1 0x1F DUP4 ADD SLT PUSH2 0x6A3 JUMPI PUSH2 0x6A2 PUSH2 0x590 JUMP JUMPDEST JUMPDEST DUP2 CALLDATALOAD PUSH2 0x6B3 DUP5 DUP3 PUSH1 0x20 DUP7 ADD PUSH2 0x64E JUMP JUMPDEST SWAP2 POP POP SWAP3 SWAP2 POP POP JUMP JUMPDEST PUSH0 PUSH1 0x20 DUP3 DUP5 SUB SLT ISZERO PUSH2 0x6D1 JUMPI PUSH2 0x6D0 PUSH2 0x588 JUMP JUMPDEST JUMPDEST PUSH0 DUP3 ADD CALLDATALOAD PUSH8 0xFFFFFFFFFFFFFFFF DUP2 GT ISZERO PUSH2 0x6EE JUMPI PUSH2 0x6ED PUSH2 0x58C JUMP JUMPDEST JUMPDEST PUSH2 0x6FA DUP5 DUP3 DUP6 ADD PUSH2 0x68F JUMP JUMPDEST SWAP2 POP POP SWAP3 SWAP2 POP POP JUMP JUMPDEST PUSH2 0x70C DUP2 PUSH2 0x40B JUMP JUMPDEST DUP3 MSTORE POP POP JUMP JUMPDEST PUSH0 PUSH1 0x20 DUP3 ADD SWAP1 POP PUSH2 0x725 PUSH0 DUP4 ADD DUP5 PUSH2 0x703 JUMP JUMPDEST SWAP3 SWAP2 POP POP JUMP JUMPDEST PUSH2 0x734 DUP2 PUSH2 0x40B JUMP JUMPDEST DUP2 EQ PUSH2 0x73E JUMPI PUSH0 PUSH0 REVERT JUMPDEST POP JUMP JUMPDEST PUSH0 DUP2 CALLDATALOAD SWAP1 POP PUSH2 0x74F DUP2 PUSH2 0x72B JUMP JUMPDEST SWAP3 SWAP2 POP POP JUMP JUMPDEST PUSH0 PUSH1 0x20 DUP3 DUP5 SUB SLT ISZERO PUSH2 0x76A JUMPI PUSH2 0x769 PUSH2 0x588 JUMP JUMPDEST JUMPDEST PUSH0 PUSH2 0x777 DUP5 DUP3 DUP6 ADD PUSH2 0x741 JUMP JUMPDEST SWAP2 POP POP SWAP3 SWAP2 POP POP JUMP JUMPDEST PUSH0 DUP3 DUP3 MSTORE PUSH1 0x20 DUP3 ADD SWAP1 POP SWAP3 SWAP2 POP POP JUMP JUMPDEST PUSH0 PUSH2 0x79A DUP3 PUSH2 0x423 JUMP JUMPDEST PUSH2 0x7A4 DUP2 DUP6 PUSH2 0x780 JUMP JUMPDEST SWAP4 POP PUSH2 0x7B4 DUP2 DUP6 PUSH1 0x20 DUP7 ADD PUSH2 0x43D JUMP JUMPDEST PUSH2 0x7BD DUP2 PUSH2 0x44B JUMP JUMPDEST DUP5 ADD SWAP2 POP POP SWAP3 SWAP2 POP POP JUMP JUMPDEST PUSH0 PUSH1 0x40 DUP3 ADD SWAP1 POP PUSH2 0x7DB PUSH0 DUP4 ADD DUP6 PUSH2 0x703 JUMP JUMPDEST DUP2 DUP2 SUB PUSH1 0x20 DUP4 ADD MSTORE PUSH2 0x7ED DUP2 DUP5 PUSH2 0x790 JUMP JUMPDEST SWAP1 POP SWAP4 SWAP3 POP POP POP JUMP JUMPDEST PUSH0 PUSH0 PUSH1 0x40 DUP4 DUP6 SUB SLT ISZERO PUSH2 0x80C JUMPI PUSH2 0x80B PUSH2 0x588 JUMP JUMPDEST JUMPDEST PUSH0 PUSH2 0x819 DUP6 DUP3 DUP7 ADD PUSH2 0x741 JUMP JUMPDEST SWAP3 POP POP PUSH1 0x20 DUP4 ADD CALLDATALOAD PUSH8 0xFFFFFFFFFFFFFFFF DUP2 GT ISZERO PUSH2 0x83A JUMPI PUSH2 0x839 PUSH2 0x58C JUMP JUMPDEST JUMPDEST PUSH2 0x846 DUP6 DUP3 DUP7 ADD PUSH2 0x68F JUMP JUMPDEST SWAP2 POP POP SWAP3 POP SWAP3 SWAP1 POP JUMP JUMPDEST PUSH32 0x4E487B7100000000000000000000000000000000000000000000000000000000 PUSH0 MSTORE PUSH1 0x22 PUSH1 0x4 MSTORE PUSH1 0x24 PUSH0 REVERT JUMPDEST PUSH0 PUSH1 0x2 DUP3 DIV SWAP1 POP PUSH1 0x1 DUP3 AND DUP1 PUSH2 0x894 JUMPI PUSH1 0x7F DUP3 AND SWAP2 POP JUMPDEST PUSH1 0x20 DUP3 LT DUP2 SUB PUSH2 0x8A7 JUMPI PUSH2 0x8A6 PUSH2 0x850 JUMP JUMPDEST JUMPDEST POP SWAP2 SWAP1 POP JUMP JUMPDEST PUSH0 DUP2 SWAP1 POP DUP2 PUSH0 MSTORE PUSH1 0x20 PUSH0 KECCAK256 SWAP1 POP SWAP2 SWAP1 POP JUMP JUMPDEST PUSH0 PUSH1 0x20 PUSH1 0x1F DUP4 ADD DIV SWAP1 POP SWAP2 SWAP1 POP JUMP JUMPDEST PUSH0 DUP3 DUP3 SHL SWAP1 POP SWAP3 SWAP2 POP POP JUMP JUMPDEST PUSH0 PUSH1 0x8 DUP4 MUL PUSH2 0x909 PUSH32 0xFFFFFFFFFFFFFFFFFFFFFFFFFFFFFFFFFFFFFFFFFFFFFFFFFFFFFFFFFFFFFFFF DUP3 PUSH2 0x8CE JUMP JUMPDEST PUSH2 0x913 DUP7 DUP4 PUSH2 0x8CE JUMP JUMPDEST SWAP6 POP DUP1 NOT DUP5 AND SWAP4 POP DUP1 DUP7 AND DUP5 OR SWAP3 POP POP POP SWAP4 SWAP3 POP POP POP JUMP JUMPDEST PUSH0 DUP2 SWAP1 POP SWAP2 SWAP1 POP JUMP JUMPDEST PUSH0 PUSH2 0x94E PUSH2 0x949 PUSH2 0x944 DUP5 PUSH2 0x40B JUMP JUMPDEST PUSH2 0x92B JUMP JUMPDEST PUSH2 0x40B JUMP JUMPDEST SWAP1 POP SWAP2 SWAP1 POP JUMP JUMPDEST PUSH0 DUP2 SWAP1 POP SWAP2 SWAP1 POP JUMP JUMPDEST PUSH2 0x967 DUP4 PUSH2 0x934 JUMP JUMPDEST PUSH2 0x97B PUSH2 0x973 DUP3 PUSH2 0x955 JUMP JUMPDEST DUP5 DUP5 SLOAD PUSH2 0x8DA JUMP JUMPDEST DUP3 SSTORE POP POP POP POP JUMP JUMPDEST PUSH0 PUSH0 SWAP1 POP SWAP1 JUMP JUMPDEST PUSH2 0x992 PUSH2 0x983 JUMP JUMPDEST PUSH2 0x99D DUP2 DUP5 DUP5 PUSH2 0x95E JUMP JUMPDEST POP POP POP JUMP JUMPDEST JUMPDEST DUP2 DUP2 LT ISZERO PUSH2 0x9C0 JUMPI PUSH2 0x9B5 PUSH0 DUP3 PUSH2 0x98A JUMP JUMPDEST PUSH1 0x1 DUP2 ADD SWAP1 POP PUSH2 0x9A3 JUMP JUMPDEST POP POP JUMP JUMPDEST PUSH1 0x1F DUP3 GT ISZERO PUSH2 0xA05 JUMPI PUSH2 0x9D6 DUP2 PUSH2 0x8AD JUMP JUMPDEST PUSH2 0x9DF DUP5 PUSH2 0x8BF JUMP JUMPDEST DUP2 ADD PUSH1 0x20 DUP6 LT ISZERO PUSH2 0x9EE JUMPI DUP2 SWAP1 POP JUMPDEST PUSH2 0xA02 PUSH2 0x9FA DUP6 PUSH2 0x8BF JUMP JUMPDEST DUP4 ADD DUP3 PUSH2 0x9A2 JUMP JUMPDEST POP POP JUMPDEST POP POP POP JUMP JUMPDEST PUSH0 DUP3 DUP3 SHR SWAP1 POP SWAP3 SWAP2 POP POP JUMP JUMPDEST PUSH0 PUSH2 0xA25 PUSH0 NOT DUP5 PUSH1 0x8 MUL PUSH2 0xA0A JUMP JUMPDEST NOT DUP1 DUP4 AND SWAP2 POP POP SWAP3 SWAP2 POP POP JUMP JUMPDEST PUSH0 PUSH2 0xA3D DUP4 DUP4 PUSH2 0xA16 JUMP JUMPDEST SWAP2 POP DUP3 PUSH1 0x2 MUL DUP3 OR SWAP1 POP SWAP3 SWAP2 POP POP JUMP JUMPDEST PUSH2 0xA56 DUP3 PUSH2 0x423 JUMP JUMPDEST PUSH8 0xFFFFFFFFFFFFFFFF DUP2 GT ISZERO PUSH2 0xA6F JUMPI PUSH2 0xA6E PUSH2 0x598 JUMP JUMPDEST JUMPDEST PUSH2 0xA79 DUP3 SLOAD PUSH2 0x87D JUMP JUMPDEST PUSH2 0xA84 DUP3 DUP3 DUP6 PUSH2 0x9C4 JUMP JUMPDEST PUSH0 PUSH1 0x20 SWAP1 POP PUSH1 0x1F DUP4 GT PUSH1 0x1 DUP2 EQ PUSH2 0xAB5 JUMPI PUSH0 DUP5 ISZERO PUSH2 0xAA3 JUMPI DUP3 DUP8 ADD MLOAD SWAP1 POP JUMPDEST PUSH2 0xAAD DUP6 DUP3 PUSH2 0xA32 JUMP JUMPDEST DUP7 SSTORE POP PUSH2 0xB14 JUMP JUMPDEST PUSH1 0x1F NOT DUP5 AND PUSH2 0xAC3 DUP7 PUSH2 0x8AD JUMP JUMPDEST PUSH0 JUMPDEST DUP3 DUP2 LT ISZERO PUSH2 0xAEA JUMPI DUP5 DUP10 ADD MLOAD DUP3 SSTORE PUSH1 0x1 DUP3 ADD SWAP2 POP PUSH1 0x20 DUP6 ADD SWAP5 POP PUSH1 0x20 DUP2 ADD SWAP1 POP PUSH2 0xAC5 JUMP JUMPDEST DUP7 DUP4 LT ISZERO PUSH2 0xB07 JUMPI DUP5 DUP10 ADD MLOAD PUSH2 0xB03 PUSH1 0x1F DUP10 AND DUP3 PUSH2 0xA16 JUMP JUMPDEST DUP4 SSTORE POP JUMPDEST PUSH1 0x1 PUSH1 0x2 DUP9 MUL ADD DUP9 SSTORE POP POP POP JUMPDEST POP POP POP POP POP POP JUMP JUMPDEST PUSH0 DUP2 SWAP1 POP SWAP3 SWAP2 POP POP JUMP JUMPDEST PUSH0 PUSH2 0xB30 DUP3 PUSH2 0x423 JUMP JUMPDEST PUSH2 0xB3A DUP2 DUP6 PUSH2 0xB1C JUMP JUMPDEST SWAP4 POP PUSH2 0xB4A DUP2 DUP6 PUSH1 0x20 DUP7 ADD PUSH2 0x43D JUMP JUMPDEST DUP1 DUP5 ADD SWAP2 POP POP SWAP3 SWAP2 POP POP JUMP JUMPDEST PUSH0 PUSH2 0xB61 DUP3 DUP5 PUSH2 0xB26 JUMP JUMPDEST SWAP2 POP DUP2 SWAP1 POP SWAP3 SWAP2 POP POP JUMP INVALID LOG2 PUSH5 0x6970667358 0x22 SLT KECCAK256 EXTSTATICCALL ISZERO 0x2E SWAP12 PUSH29 0xC6837F6DB3ABFA7B79637F5418B5DCC8889D1D2DDA7C97C7E1FD3A6473 PUSH16 0x6C634300081D00330000000000000000 "
				},
				"gasEstimates": {
					"creation": {
						"codeDepositCost": "595600",
						"executionCost": "630",
						"totalCost": "596230"
					},
					"external": {
						"addFriend(uint256,string)": "infinite",
						"getUsers()": "infinite",
						"myFavNumber()": "2490",
						"nameToFavNum(string)": "infinite",
						"retrieve()": "2476",
						"store(uint256)": "22558",
						"users(uint256)": "infinite"
					}
				},
				"methodIdentifiers": {
					"addFriend(uint256,string)": "56a7d90a",
					"getUsers()": "00ce8e3e",
					"myFavNumber()": "df986725",
					"nameToFavNum(string)": "06c62c2c",
					"retrieve()": "2e64cec1",
					"store(uint256)": "6057361d",
					"users(uint256)": "365b98b2"
				}
			},
			"storageLayout": {
				"storage": [
					{
						"astId": 8,
						"contract": "contracts/Simple_storage.sol:SimpleStorage",
						"label": "myFavNumber",
						"offset": 0,
						"slot": "0",
						"type": "t_uint256"
					},
					{
						"astId": 12,
						"contract": "contracts/Simple_storage.sol:SimpleStorage",
						"label": "users",
						"offset": 0,
						"slot": "1",
						"type": "t_array(t_struct(Person)6_storage)dyn_storage"
					},
					{
						"astId": 16,
						"contract": "contracts/Simple_storage.sol:SimpleStorage",
						"label": "nameToFavNum",
						"offset": 0,
						"slot": "2",
						"type": "t_mapping(t_string_memory_ptr,t_uint256)"
					}
				],
				"types": {
					"t_array(t_struct(Person)6_storage)dyn_storage": {
						"base": "t_struct(Person)6_storage",
						"encoding": "dynamic_array",
						"label": "struct SimpleStorage.Person[]",
						"numberOfBytes": "32"
					},
					"t_mapping(t_string_memory_ptr,t_uint256)": {
						"encoding": "mapping",
						"key": "t_string_memory_ptr",
						"label": "mapping(string => uint256)",
						"numberOfBytes": "32",
						"value": "t_uint256"
					},
					"t_string_memory_ptr": {
						"encoding": "bytes",
						"label": "string",
						"numberOfBytes": "32"
					},
					"t_string_storage": {
						"encoding": "bytes",
						"label": "string",
						"numberOfBytes": "32"
					},
					"t_struct(Person)6_storage": {
						"encoding": "inplace",
						"label": "struct SimpleStorage.Person",
						"members": [
							{
								"astId": 3,
								"contract": "contracts/Simple_storage.sol:SimpleStorage",
								"label": "favNum",
								"offset": 0,
								"slot": "0",
								"type": "t_uint256"
							},
							{
								"astId": 5,
								"contract": "contracts/Simple_storage.sol:SimpleStorage",
								"label": "name",
								"offset": 0,
								"slot": "1",
								"type": "t_string_storage"
							}
						],
						"numberOfBytes": "64"
					},
					"t_uint256": {
						"encoding": "inplace",
						"label": "uint256",
						"numberOfBytes": "32"
					}
				}
			},
			"userdoc": {
				"kind": "user",
				"methods": {},
				"version": 1
			}
		}
	}
}