{
	"contracts/FundMe.sol": {
		"FundMe": {
			"abi": [
				{
					"inputs": [],
					"name": "MinimumUSD",
					"outputs": [
						{
							"internalType": "uint256",
							"name": "",
							"type": "uint256"
						}
					],
					"stateMutability": "view",
					"type": "function"
				},
				{
					"inputs": [
						{
							"internalType": "address",
							"name": "funder",
							"type": "address"
						}
					],
					"name": "addressToAmountFunded",
					"outputs": [
						{
							"internalType": "uint256",
							"name": "amountFunded",
							"type": "uint256"
						}
					],
					"stateMutability": "view",
					"type": "function"
				},
				{
					"inputs": [],
					"name": "fund",
					"outputs": [],
					"stateMutability": "payable",
					"type": "function"
				},
				{
					"inputs": [
						{
							"internalType": "uint256",
							"name": "",
							"type": "uint256"
						}
					],
					"name": "funders",
					"outputs": [
						{
							"internalType": "address",
							"name": "",
							"type": "address"
						}
					],
					"stateMutability": "view",
					"type": "function"
				},
				{
					"inputs": [],
					"name": "withdraw",
					"outputs": [],
					"stateMutability": "nonpayable",
					"type": "function"
				}
			],
			"devdoc": {
				"kind": "dev",
				"methods": {},
				"version": 1
			},
			"evm": {
				"assembly": "    /* \"contracts/FundMe.sol\":119:843  contract FundMe {... */\n  mstore(0x40, 0x80)\n    /* \"contracts/FundMe.sol\":253:257  5e18 */\n  0x4563918244f40000\n    /* \"contracts/FundMe.sol\":225:257  uint256 public MinimumUSD = 5e18 */\n  0x00\n  sstore\n    /* \"contracts/FundMe.sol\":119:843  contract FundMe {... */\n  callvalue\n  dup1\n  iszero\n  tag_1\n  jumpi\n  revert(0x00, 0x00)\ntag_1:\n  pop\n  dataSize(sub_0)\n  dup1\n  dataOffset(sub_0)\n  0x00\n  codecopy\n  0x00\n  return\nstop\n\nsub_0: assembly {\n        /* \"contracts/FundMe.sol\":119:843  contract FundMe {... */\n      mstore(0x40, 0x80)\n      jumpi(tag_1, lt(calldatasize, 0x04))\n      shr(0xe0, calldataload(0x00))\n      dup1\n      0x2a33d35c\n      eq\n      tag_2\n      jumpi\n      dup1\n      0x3ccfd60b\n      eq\n      tag_3\n      jumpi\n      dup1\n      0x3e47d6f3\n      eq\n      tag_4\n      jumpi\n      dup1\n      0xb60d4288\n      eq\n      tag_5\n      jumpi\n      dup1\n      0xdc0d3dff\n      eq\n      tag_6\n      jumpi\n    tag_1:\n      revert(0x00, 0x00)\n        /* \"contracts/FundMe.sol\":225:257  uint256 public MinimumUSD = 5e18 */\n    tag_2:\n      callvalue\n      dup1\n      iszero\n      tag_7\n      jumpi\n      revert(0x00, 0x00)\n    tag_7:\n      pop\n      tag_8\n      tag_9\n      jump\t// in\n    tag_8:\n      mload(0x40)\n      tag_10\n      swap2\n      swap1\n      tag_11\n      jump\t// in\n    tag_10:\n      mload(0x40)\n      dup1\n      swap2\n      sub\n      swap1\n      return\n        /* \"contracts/FundMe.sol\":614:839  function withdraw() public {... */\n    tag_3:\n      callvalue\n      dup1\n      iszero\n      tag_12\n      jumpi\n      revert(0x00, 0x00)\n    tag_12:\n      pop\n      tag_13\n      tag_14\n      jump\t// in\n    tag_13:\n      stop\n        /* \"contracts/FundMe.sol\":294:371  mapping (address funder => uint256 amountFunded) public addressToAmountFunded */\n    tag_4:\n      callvalue\n      dup1\n      iszero\n      tag_15\n      jumpi\n      revert(0x00, 0x00)\n    tag_15:\n      pop\n      tag_16\n      0x04\n      dup1\n      calldatasize\n      sub\n      dup2\n      add\n      swap1\n      tag_17\n      swap2\n      swap1\n      tag_18\n      jump\t// in\n    tag_17:\n      tag_19\n      jump\t// in\n    tag_16:\n      mload(0x40)\n      tag_20\n      swap2\n      swap1\n      tag_11\n      jump\t// in\n    tag_20:\n      mload(0x40)\n      dup1\n      swap2\n      sub\n      swap1\n      return\n        /* \"contracts/FundMe.sol\":378:608  function fund() public payable {... */\n    tag_5:\n      tag_21\n      tag_22\n      jump\t// in\n    tag_21:\n      stop\n        /* \"contracts/FundMe.sol\":264:288  address[] public funders */\n    tag_6:\n      callvalue\n      dup1\n      iszero\n      tag_23\n      jumpi\n      revert(0x00, 0x00)\n    tag_23:\n      pop\n      tag_24\n      0x04\n      dup1\n      calldatasize\n      sub\n      dup2\n      add\n      swap1\n      tag_25\n      swap2\n      swap1\n      tag_26\n      jump\t// in\n    tag_25:\n      tag_27\n      jump\t// in\n    tag_24:\n      mload(0x40)\n      tag_28\n      swap2\n      swap1\n      tag_29\n      jump\t// in\n    tag_28:\n      mload(0x40)\n      dup1\n      swap2\n      sub\n      swap1\n      return\n        /* \"contracts/FundMe.sol\":225:257  uint256 public MinimumUSD = 5e18 */\n    tag_9:\n      sload(0x00)\n      dup2\n      jump\t// out\n        /* \"contracts/FundMe.sol\":614:839  function withdraw() public {... */\n    tag_14:\n        /* \"contracts/FundMe.sol\":655:674  uint256 funderIndex */\n      0x00\n        /* \"contracts/FundMe.sol\":677:678  0 */\n      0x00\n        /* \"contracts/FundMe.sol\":655:678  uint256 funderIndex = 0 */\n      swap1\n      pop\n        /* \"contracts/FundMe.sol\":651:833  for(uint256 funderIndex = 0; funderIndex < funders.length; funderIndex++){... */\n    tag_31:\n        /* \"contracts/FundMe.sol\":694:701  funders */\n      0x01\n        /* \"contracts/FundMe.sol\":694:708  funders.length */\n      dup1\n      sload\n      swap1\n      pop\n        /* \"contracts/FundMe.sol\":680:691  funderIndex */\n      dup2\n        /* \"contracts/FundMe.sol\":680:708  funderIndex < funders.length */\n      lt\n        /* \"contracts/FundMe.sol\":651:833  for(uint256 funderIndex = 0; funderIndex < funders.length; funderIndex++){... */\n      iszero\n      tag_32\n      jumpi\n        /* \"contracts/FundMe.sol\":738:752  address funder */\n      0x00\n        /* \"contracts/FundMe.sol\":755:762  funders */\n      0x01\n        /* \"contracts/FundMe.sol\":763:774  funderIndex */\n      dup3\n        /* \"contracts/FundMe.sol\":755:775  funders[funderIndex] */\n      dup2\n      sload\n      dup2\n      lt\n      tag_34\n      jumpi\n      tag_35\n      tag_36\n      jump\t// in\n    tag_35:\n    tag_34:\n      swap1\n      0x00\n      mstore\n      keccak256(0x00, 0x20)\n      add\n      0x00\n      swap1\n      sload\n      swap1\n      0x0100\n      exp\n      swap1\n      div\n      0xffffffffffffffffffffffffffffffffffffffff\n      and\n        /* \"contracts/FundMe.sol\":738:775  address funder = funders[funderIndex] */\n      swap1\n      pop\n        /* \"contracts/FundMe.sol\":821:822  0 */\n      0x00\n        /* \"contracts/FundMe.sol\":789:810  addressToAmountFunded */\n      0x02\n        /* \"contracts/FundMe.sol\":789:818  addressToAmountFunded[funder] */\n      0x00\n        /* \"contracts/FundMe.sol\":811:817  funder */\n      dup4\n        /* \"contracts/FundMe.sol\":789:818  addressToAmountFunded[funder] */\n      0xffffffffffffffffffffffffffffffffffffffff\n      and\n      0xffffffffffffffffffffffffffffffffffffffff\n      and\n      dup2\n      mstore\n      0x20\n      add\n      swap1\n      dup2\n      mstore\n      0x20\n      add\n      0x00\n      keccak256\n        /* \"contracts/FundMe.sol\":789:822  addressToAmountFunded[funder] = 0 */\n      dup2\n      swap1\n      sstore\n      pop\n        /* \"contracts/FundMe.sol\":724:833  {... */\n      pop\n        /* \"contracts/FundMe.sol\":710:723  funderIndex++ */\n      dup1\n      dup1\n      0x01\n      add\n      swap2\n      pop\n      pop\n        /* \"contracts/FundMe.sol\":651:833  for(uint256 funderIndex = 0; funderIndex < funders.length; funderIndex++){... */\n      jump(tag_31)\n    tag_32:\n      pop\n        /* \"contracts/FundMe.sol\":614:839  function withdraw() public {... */\n      jump\t// out\n        /* \"contracts/FundMe.sol\":294:371  mapping (address funder => uint256 amountFunded) public addressToAmountFunded */\n    tag_19:\n      mstore(0x20, 0x02)\n      dup1\n      0x00\n      mstore\n      keccak256(0x00, 0x40)\n      0x00\n      swap2\n      pop\n      swap1\n      pop\n      sload\n      dup2\n      jump\t// out\n        /* \"contracts/FundMe.sol\":378:608  function fund() public payable {... */\n    tag_22:\n        /* \"contracts/FundMe.sol\":462:472  MinimumUSD */\n      sload(0x00)\n        /* \"contracts/FundMe.sol\":427:458  msg.value.getConventionalRate() */\n      tag_39\n        /* \"contracts/FundMe.sol\":427:436  msg.value */\n      callvalue\n        /* \"contracts/FundMe.sol\":427:456  msg.value.getConventionalRate */\n      tag_40\n        /* \"contracts/FundMe.sol\":427:458  msg.value.getConventionalRate() */\n      jump\t// in\n    tag_39:\n        /* \"contracts/FundMe.sol\":427:472  msg.value.getConventionalRate() >= MinimumUSD */\n      lt\n      iszero\n        /* \"contracts/FundMe.sol\":419:499  require(msg.value.getConventionalRate() >= MinimumUSD, \"didn't send enough eth\") */\n      tag_41\n      jumpi\n      mload(0x40)\n      0x08c379a000000000000000000000000000000000000000000000000000000000\n      dup2\n      mstore\n      0x04\n      add\n      tag_42\n      swap1\n      tag_43\n      jump\t// in\n    tag_42:\n      mload(0x40)\n      dup1\n      swap2\n      sub\n      swap1\n      revert\n    tag_41:\n        /* \"contracts/FundMe.sol\":520:527  funders */\n      0x01\n        /* \"contracts/FundMe.sol\":533:543  msg.sender */\n      caller\n        /* \"contracts/FundMe.sol\":520:544  funders.push(msg.sender) */\n      swap1\n      dup1\n      0x01\n      dup2\n      sload\n      add\n      dup1\n      dup3\n      sstore\n      dup1\n      swap2\n      pop\n      pop\n      0x01\n      swap1\n      sub\n      swap1\n      0x00\n      mstore\n      keccak256(0x00, 0x20)\n      add\n      0x00\n      swap1\n      swap2\n      swap1\n      swap2\n      swap1\n      swap2\n      0x0100\n      exp\n      dup2\n      sload\n      dup2\n      0xffffffffffffffffffffffffffffffffffffffff\n      mul\n      not\n      and\n      swap1\n      dup4\n      0xffffffffffffffffffffffffffffffffffffffff\n      and\n      mul\n      or\n      swap1\n      sstore\n      pop\n        /* \"contracts/FundMe.sol\":591:600  msg.value */\n      callvalue\n        /* \"contracts/FundMe.sol\":554:575  addressToAmountFunded */\n      0x02\n        /* \"contracts/FundMe.sol\":554:587  addressToAmountFunded[msg.sender] */\n      0x00\n        /* \"contracts/FundMe.sol\":576:586  msg.sender */\n      caller\n        /* \"contracts/FundMe.sol\":554:587  addressToAmountFunded[msg.sender] */\n      0xffffffffffffffffffffffffffffffffffffffff\n      and\n      0xffffffffffffffffffffffffffffffffffffffff\n      and\n      dup2\n      mstore\n      0x20\n      add\n      swap1\n      dup2\n      mstore\n      0x20\n      add\n      0x00\n      keccak256\n      0x00\n        /* \"contracts/FundMe.sol\":554:600  addressToAmountFunded[msg.sender] += msg.value */\n      dup3\n      dup3\n      sload\n      tag_45\n      swap2\n      swap1\n      tag_46\n      jump\t// in\n    tag_45:\n      swap3\n      pop\n      pop\n      dup2\n      swap1\n      sstore\n      pop\n        /* \"contracts/FundMe.sol\":378:608  function fund() public payable {... */\n      jump\t// out\n        /* \"contracts/FundMe.sol\":264:288  address[] public funders */\n    tag_27:\n      0x01\n      dup2\n      dup2\n      sload\n      dup2\n      lt\n      tag_47\n      jumpi\n      0x00\n      dup1\n      revert\n    tag_47:\n      swap1\n      0x00\n      mstore\n      keccak256(0x00, 0x20)\n      add\n      0x00\n      swap2\n      pop\n      sload\n      swap1\n      0x0100\n      exp\n      swap1\n      div\n      0xffffffffffffffffffffffffffffffffffffffff\n      and\n      dup2\n      jump\t// out\n        /* \"contracts/priceConverter.sol\":766:1024  function getConventionalRate(uint256 ethAmount)... */\n    tag_40:\n        /* \"contracts/priceConverter.sol\":865:872  uint256 */\n      0x00\n        /* \"contracts/priceConverter.sol\":890:906  uint256 ethPrice */\n      0x00\n        /* \"contracts/priceConverter.sol\":909:919  getPrice() */\n      tag_50\n        /* \"contracts/priceConverter.sol\":909:917  getPrice */\n      tag_51\n        /* \"contracts/priceConverter.sol\":909:919  getPrice() */\n      jump\t// in\n    tag_50:\n        /* \"contracts/priceConverter.sol\":890:919  uint256 ethPrice = getPrice() */\n      swap1\n      pop\n        /* \"contracts/priceConverter.sol\":930:952  uint256 ethAmountInUSD */\n      0x00\n        /* \"contracts/priceConverter.sol\":980:984  1e18 */\n      0x0de0b6b3a7640000\n        /* \"contracts/priceConverter.sol\":967:976  ethAmount */\n      dup5\n        /* \"contracts/priceConverter.sol\":956:964  ethPrice */\n      dup4\n        /* \"contracts/priceConverter.sol\":956:976  ethPrice * ethAmount */\n      tag_52\n      swap2\n      swap1\n      tag_53\n      jump\t// in\n    tag_52:\n        /* \"contracts/priceConverter.sol\":955:984  (ethPrice * ethAmount) / 1e18 */\n      tag_54\n      swap2\n      swap1\n      tag_55\n      jump\t// in\n    tag_54:\n        /* \"contracts/priceConverter.sol\":930:984  uint256 ethAmountInUSD = (ethPrice * ethAmount) / 1e18 */\n      swap1\n      pop\n        /* \"contracts/priceConverter.sol\":1002:1016  ethAmountInUSD */\n      dup1\n        /* \"contracts/priceConverter.sol\":995:1016  return ethAmountInUSD */\n      swap3\n      pop\n      pop\n      pop\n        /* \"contracts/priceConverter.sol\":766:1024  function getConventionalRate(uint256 ethAmount)... */\n      swap2\n      swap1\n      pop\n      jump\t// out\n        /* \"contracts/priceConverter.sol\":220:758  function getPrice() internal  view returns (uint256) {... */\n    tag_51:\n        /* \"contracts/priceConverter.sol\":264:271  uint256 */\n      0x00\n        /* \"contracts/priceConverter.sol\":317:348  AggregatorV3Interface priceFeed */\n      0x00\n        /* \"contracts/priceConverter.sol\":387:429  0x694AA1769357215DE4FAC081bf1f309aDC325306 */\n      0x694aa1769357215de4fac081bf1f309adc325306\n        /* \"contracts/priceConverter.sol\":317:440  AggregatorV3Interface priceFeed = AggregatorV3Interface(... */\n      swap1\n      pop\n        /* \"contracts/priceConverter.sol\":515:527  int256 price */\n      0x00\n        /* \"contracts/priceConverter.sol\":684:693  priceFeed */\n      dup2\n        /* \"contracts/priceConverter.sol\":684:709  priceFeed.latestRoundData */\n      0xffffffffffffffffffffffffffffffffffffffff\n      and\n      0xfeaf968c\n        /* \"contracts/priceConverter.sol\":684:711  priceFeed.latestRoundData() */\n      mload(0x40)\n      dup2\n      0xffffffff\n      and\n      0xe0\n      shl\n      dup2\n      mstore\n      0x04\n      add\n      0xa0\n      mload(0x40)\n      dup1\n      dup4\n      sub\n      dup2\n      dup7\n      gas\n      staticcall\n      iszero\n      dup1\n      iszero\n      tag_58\n      jumpi\n      returndatacopy(0x00, 0x00, returndatasize)\n      revert(0x00, returndatasize)\n    tag_58:\n      pop\n      pop\n      pop\n      pop\n      mload(0x40)\n      returndatasize\n      not(0x1f)\n      0x1f\n      dup3\n      add\n      and\n      dup3\n      add\n      dup1\n      0x40\n      mstore\n      pop\n      dup2\n      add\n      swap1\n      tag_59\n      swap2\n      swap1\n      tag_60\n      jump\t// in\n    tag_59:\n        /* \"contracts/priceConverter.sol\":451:711  (... */\n      pop\n      pop\n      pop\n      swap2\n      pop\n      pop\n        /* \"contracts/priceConverter.sol\":745:749  1e10 */\n      0x02540be400\n        /* \"contracts/priceConverter.sol\":737:742  price */\n      dup2\n        /* \"contracts/priceConverter.sol\":737:749  price * 1e10 */\n      tag_61\n      swap2\n      swap1\n      tag_62\n      jump\t// in\n    tag_61:\n        /* \"contracts/priceConverter.sol\":722:750  return uint256(price * 1e10) */\n      swap3\n      pop\n      pop\n      pop\n        /* \"contracts/priceConverter.sol\":220:758  function getPrice() internal  view returns (uint256) {... */\n      swap1\n      jump\t// out\n        /* \"#utility.yul\":7:84   */\n    tag_63:\n        /* \"#utility.yul\":44:51   */\n      0x00\n        /* \"#utility.yul\":73:78   */\n      dup2\n        /* \"#utility.yul\":62:78   */\n      swap1\n      pop\n        /* \"#utility.yul\":7:84   */\n      swap2\n      swap1\n      pop\n      jump\t// out\n        /* \"#utility.yul\":90:208   */\n    tag_64:\n        /* \"#utility.yul\":177:201   */\n      tag_90\n        /* \"#utility.yul\":195:200   */\n      dup2\n        /* \"#utility.yul\":177:201   */\n      tag_63\n      jump\t// in\n    tag_90:\n        /* \"#utility.yul\":172:175   */\n      dup3\n        /* \"#utility.yul\":165:202   */\n      mstore\n        /* \"#utility.yul\":90:208   */\n      pop\n      pop\n      jump\t// out\n        /* \"#utility.yul\":214:436   */\n    tag_11:\n        /* \"#utility.yul\":307:311   */\n      0x00\n        /* \"#utility.yul\":345:347   */\n      0x20\n        /* \"#utility.yul\":334:343   */\n      dup3\n        /* \"#utility.yul\":330:348   */\n      add\n        /* \"#utility.yul\":322:348   */\n      swap1\n      pop\n        /* \"#utility.yul\":358:429   */\n      tag_92\n        /* \"#utility.yul\":426:427   */\n      0x00\n        /* \"#utility.yul\":415:424   */\n      dup4\n        /* \"#utility.yul\":411:428   */\n      add\n        /* \"#utility.yul\":402:408   */\n      dup5\n        /* \"#utility.yul\":358:429   */\n      tag_64\n      jump\t// in\n    tag_92:\n        /* \"#utility.yul\":214:436   */\n      swap3\n      swap2\n      pop\n      pop\n      jump\t// out\n        /* \"#utility.yul\":523:640   */\n    tag_66:\n        /* \"#utility.yul\":632:633   */\n      0x00\n        /* \"#utility.yul\":629:630   */\n      0x00\n        /* \"#utility.yul\":622:634   */\n      revert\n        /* \"#utility.yul\":769:895   */\n    tag_68:\n        /* \"#utility.yul\":806:813   */\n      0x00\n        /* \"#utility.yul\":846:888   */\n      0xffffffffffffffffffffffffffffffffffffffff\n        /* \"#utility.yul\":839:844   */\n      dup3\n        /* \"#utility.yul\":835:889   */\n      and\n        /* \"#utility.yul\":824:889   */\n      swap1\n      pop\n        /* \"#utility.yul\":769:895   */\n      swap2\n      swap1\n      pop\n      jump\t// out\n        /* \"#utility.yul\":901:997   */\n    tag_69:\n        /* \"#utility.yul\":938:945   */\n      0x00\n        /* \"#utility.yul\":967:991   */\n      tag_98\n        /* \"#utility.yul\":985:990   */\n      dup3\n        /* \"#utility.yul\":967:991   */\n      tag_68\n      jump\t// in\n    tag_98:\n        /* \"#utility.yul\":956:991   */\n      swap1\n      pop\n        /* \"#utility.yul\":901:997   */\n      swap2\n      swap1\n      pop\n      jump\t// out\n        /* \"#utility.yul\":1003:1125   */\n    tag_70:\n        /* \"#utility.yul\":1076:1100   */\n      tag_100\n        /* \"#utility.yul\":1094:1099   */\n      dup2\n        /* \"#utility.yul\":1076:1100   */\n      tag_69\n      jump\t// in\n    tag_100:\n        /* \"#utility.yul\":1069:1074   */\n      dup2\n        /* \"#utility.yul\":1066:1101   */\n      eq\n        /* \"#utility.yul\":1056:1119   */\n      tag_101\n      jumpi\n        /* \"#utility.yul\":1115:1116   */\n      0x00\n        /* \"#utility.yul\":1112:1113   */\n      0x00\n        /* \"#utility.yul\":1105:1117   */\n      revert\n        /* \"#utility.yul\":1056:1119   */\n    tag_101:\n        /* \"#utility.yul\":1003:1125   */\n      pop\n      jump\t// out\n        /* \"#utility.yul\":1131:1270   */\n    tag_71:\n        /* \"#utility.yul\":1177:1182   */\n      0x00\n        /* \"#utility.yul\":1215:1221   */\n      dup2\n        /* \"#utility.yul\":1202:1222   */\n      calldataload\n        /* \"#utility.yul\":1193:1222   */\n      swap1\n      pop\n        /* \"#utility.yul\":1231:1264   */\n      tag_103\n        /* \"#utility.yul\":1258:1263   */\n      dup2\n        /* \"#utility.yul\":1231:1264   */\n      tag_70\n      jump\t// in\n    tag_103:\n        /* \"#utility.yul\":1131:1270   */\n      swap3\n      swap2\n      pop\n      pop\n      jump\t// out\n        /* \"#utility.yul\":1276:1605   */\n    tag_18:\n        /* \"#utility.yul\":1335:1341   */\n      0x00\n        /* \"#utility.yul\":1384:1386   */\n      0x20\n        /* \"#utility.yul\":1372:1381   */\n      dup3\n        /* \"#utility.yul\":1363:1370   */\n      dup5\n        /* \"#utility.yul\":1359:1382   */\n      sub\n        /* \"#utility.yul\":1355:1387   */\n      slt\n        /* \"#utility.yul\":1352:1471   */\n      iszero\n      tag_105\n      jumpi\n        /* \"#utility.yul\":1390:1469   */\n      tag_106\n      tag_66\n      jump\t// in\n    tag_106:\n        /* \"#utility.yul\":1352:1471   */\n    tag_105:\n        /* \"#utility.yul\":1510:1511   */\n      0x00\n        /* \"#utility.yul\":1535:1588   */\n      tag_107\n        /* \"#utility.yul\":1580:1587   */\n      dup5\n        /* \"#utility.yul\":1571:1577   */\n      dup3\n        /* \"#utility.yul\":1560:1569   */\n      dup6\n        /* \"#utility.yul\":1556:1578   */\n      add\n        /* \"#utility.yul\":1535:1588   */\n      tag_71\n      jump\t// in\n    tag_107:\n        /* \"#utility.yul\":1525:1588   */\n      swap2\n      pop\n        /* \"#utility.yul\":1481:1598   */\n      pop\n        /* \"#utility.yul\":1276:1605   */\n      swap3\n      swap2\n      pop\n      pop\n      jump\t// out\n        /* \"#utility.yul\":1611:1733   */\n    tag_72:\n        /* \"#utility.yul\":1684:1708   */\n      tag_109\n        /* \"#utility.yul\":1702:1707   */\n      dup2\n        /* \"#utility.yul\":1684:1708   */\n      tag_63\n      jump\t// in\n    tag_109:\n        /* \"#utility.yul\":1677:1682   */\n      dup2\n        /* \"#utility.yul\":1674:1709   */\n      eq\n        /* \"#utility.yul\":1664:1727   */\n      tag_110\n      jumpi\n        /* \"#utility.yul\":1723:1724   */\n      0x00\n        /* \"#utility.yul\":1720:1721   */\n      0x00\n        /* \"#utility.yul\":1713:1725   */\n      revert\n        /* \"#utility.yul\":1664:1727   */\n    tag_110:\n        /* \"#utility.yul\":1611:1733   */\n      pop\n      jump\t// out\n        /* \"#utility.yul\":1739:1878   */\n    tag_73:\n        /* \"#utility.yul\":1785:1790   */\n      0x00\n        /* \"#utility.yul\":1823:1829   */\n      dup2\n        /* \"#utility.yul\":1810:1830   */\n      calldataload\n        /* \"#utility.yul\":1801:1830   */\n      swap1\n      pop\n        /* \"#utility.yul\":1839:1872   */\n      tag_112\n        /* \"#utility.yul\":1866:1871   */\n      dup2\n        /* \"#utility.yul\":1839:1872   */\n      tag_72\n      jump\t// in\n    tag_112:\n        /* \"#utility.yul\":1739:1878   */\n      swap3\n      swap2\n      pop\n      pop\n      jump\t// out\n        /* \"#utility.yul\":1884:2213   */\n    tag_26:\n        /* \"#utility.yul\":1943:1949   */\n      0x00\n        /* \"#utility.yul\":1992:1994   */\n      0x20\n        /* \"#utility.yul\":1980:1989   */\n      dup3\n        /* \"#utility.yul\":1971:1978   */\n      dup5\n        /* \"#utility.yul\":1967:1990   */\n      sub\n        /* \"#utility.yul\":1963:1995   */\n      slt\n        /* \"#utility.yul\":1960:2079   */\n      iszero\n      tag_114\n      jumpi\n        /* \"#utility.yul\":1998:2077   */\n      tag_115\n      tag_66\n      jump\t// in\n    tag_115:\n        /* \"#utility.yul\":1960:2079   */\n    tag_114:\n        /* \"#utility.yul\":2118:2119   */\n      0x00\n        /* \"#utility.yul\":2143:2196   */\n      tag_116\n        /* \"#utility.yul\":2188:2195   */\n      dup5\n        /* \"#utility.yul\":2179:2185   */\n      dup3\n        /* \"#utility.yul\":2168:2177   */\n      dup6\n        /* \"#utility.yul\":2164:2186   */\n      add\n        /* \"#utility.yul\":2143:2196   */\n      tag_73\n      jump\t// in\n    tag_116:\n        /* \"#utility.yul\":2133:2196   */\n      swap2\n      pop\n        /* \"#utility.yul\":2089:2206   */\n      pop\n        /* \"#utility.yul\":1884:2213   */\n      swap3\n      swap2\n      pop\n      pop\n      jump\t// out\n        /* \"#utility.yul\":2219:2337   */\n    tag_74:\n        /* \"#utility.yul\":2306:2330   */\n      tag_118\n        /* \"#utility.yul\":2324:2329   */\n      dup2\n        /* \"#utility.yul\":2306:2330   */\n      tag_69\n      jump\t// in\n    tag_118:\n        /* \"#utility.yul\":2301:2304   */\n      dup3\n        /* \"#utility.yul\":2294:2331   */\n      mstore\n        /* \"#utility.yul\":2219:2337   */\n      pop\n      pop\n      jump\t// out\n        /* \"#utility.yul\":2343:2565   */\n    tag_29:\n        /* \"#utility.yul\":2436:2440   */\n      0x00\n        /* \"#utility.yul\":2474:2476   */\n      0x20\n        /* \"#utility.yul\":2463:2472   */\n      dup3\n        /* \"#utility.yul\":2459:2477   */\n      add\n        /* \"#utility.yul\":2451:2477   */\n      swap1\n      pop\n        /* \"#utility.yul\":2487:2558   */\n      tag_120\n        /* \"#utility.yul\":2555:2556   */\n      0x00\n        /* \"#utility.yul\":2544:2553   */\n      dup4\n        /* \"#utility.yul\":2540:2557   */\n      add\n        /* \"#utility.yul\":2531:2537   */\n      dup5\n        /* \"#utility.yul\":2487:2558   */\n      tag_74\n      jump\t// in\n    tag_120:\n        /* \"#utility.yul\":2343:2565   */\n      swap3\n      swap2\n      pop\n      pop\n      jump\t// out\n        /* \"#utility.yul\":2571:2751   */\n    tag_36:\n        /* \"#utility.yul\":2619:2696   */\n      0x4e487b7100000000000000000000000000000000000000000000000000000000\n        /* \"#utility.yul\":2616:2617   */\n      0x00\n        /* \"#utility.yul\":2609:2697   */\n      mstore\n        /* \"#utility.yul\":2716:2720   */\n      0x32\n        /* \"#utility.yul\":2713:2714   */\n      0x04\n        /* \"#utility.yul\":2706:2721   */\n      mstore\n        /* \"#utility.yul\":2740:2744   */\n      0x24\n        /* \"#utility.yul\":2737:2738   */\n      0x00\n        /* \"#utility.yul\":2730:2745   */\n      revert\n        /* \"#utility.yul\":2757:2926   */\n    tag_75:\n        /* \"#utility.yul\":2841:2852   */\n      0x00\n        /* \"#utility.yul\":2875:2881   */\n      dup3\n        /* \"#utility.yul\":2870:2873   */\n      dup3\n        /* \"#utility.yul\":2863:2882   */\n      mstore\n        /* \"#utility.yul\":2915:2919   */\n      0x20\n        /* \"#utility.yul\":2910:2913   */\n      dup3\n        /* \"#utility.yul\":2906:2920   */\n      add\n        /* \"#utility.yul\":2891:2920   */\n      swap1\n      pop\n        /* \"#utility.yul\":2757:2926   */\n      swap3\n      swap2\n      pop\n      pop\n      jump\t// out\n        /* \"#utility.yul\":2932:3104   */\n    tag_76:\n        /* \"#utility.yul\":3072:3096   */\n      0x6469646e27742073656e6420656e6f7567682065746800000000000000000000\n        /* \"#utility.yul\":3068:3069   */\n      0x00\n        /* \"#utility.yul\":3060:3066   */\n      dup3\n        /* \"#utility.yul\":3056:3070   */\n      add\n        /* \"#utility.yul\":3049:3097   */\n      mstore\n        /* \"#utility.yul\":2932:3104   */\n      pop\n      jump\t// out\n        /* \"#utility.yul\":3110:3476   */\n    tag_77:\n        /* \"#utility.yul\":3252:3255   */\n      0x00\n        /* \"#utility.yul\":3273:3340   */\n      tag_125\n        /* \"#utility.yul\":3337:3339   */\n      0x16\n        /* \"#utility.yul\":3332:3335   */\n      dup4\n        /* \"#utility.yul\":3273:3340   */\n      tag_75\n      jump\t// in\n    tag_125:\n        /* \"#utility.yul\":3266:3340   */\n      swap2\n      pop\n        /* \"#utility.yul\":3349:3442   */\n      tag_126\n        /* \"#utility.yul\":3438:3441   */\n      dup3\n        /* \"#utility.yul\":3349:3442   */\n      tag_76\n      jump\t// in\n    tag_126:\n        /* \"#utility.yul\":3467:3469   */\n      0x20\n        /* \"#utility.yul\":3462:3465   */\n      dup3\n        /* \"#utility.yul\":3458:3470   */\n      add\n        /* \"#utility.yul\":3451:3470   */\n      swap1\n      pop\n        /* \"#utility.yul\":3110:3476   */\n      swap2\n      swap1\n      pop\n      jump\t// out\n        /* \"#utility.yul\":3482:3901   */\n    tag_43:\n        /* \"#utility.yul\":3648:3652   */\n      0x00\n        /* \"#utility.yul\":3686:3688   */\n      0x20\n        /* \"#utility.yul\":3675:3684   */\n      dup3\n        /* \"#utility.yul\":3671:3689   */\n      add\n        /* \"#utility.yul\":3663:3689   */\n      swap1\n      pop\n        /* \"#utility.yul\":3735:3744   */\n      dup2\n        /* \"#utility.yul\":3729:3733   */\n      dup2\n        /* \"#utility.yul\":3725:3745   */\n      sub\n        /* \"#utility.yul\":3721:3722   */\n      0x00\n        /* \"#utility.yul\":3710:3719   */\n      dup4\n        /* \"#utility.yul\":3706:3723   */\n      add\n        /* \"#utility.yul\":3699:3746   */\n      mstore\n        /* \"#utility.yul\":3763:3894   */\n      tag_128\n        /* \"#utility.yul\":3889:3893   */\n      dup2\n        /* \"#utility.yul\":3763:3894   */\n      tag_77\n      jump\t// in\n    tag_128:\n        /* \"#utility.yul\":3755:3894   */\n      swap1\n      pop\n        /* \"#utility.yul\":3482:3901   */\n      swap2\n      swap1\n      pop\n      jump\t// out\n        /* \"#utility.yul\":3907:4087   */\n    tag_78:\n        /* \"#utility.yul\":3955:4032   */\n      0x4e487b7100000000000000000000000000000000000000000000000000000000\n        /* \"#utility.yul\":3952:3953   */\n      0x00\n        /* \"#utility.yul\":3945:4033   */\n      mstore\n        /* \"#utility.yul\":4052:4056   */\n      0x11\n        /* \"#utility.yul\":4049:4050   */\n      0x04\n        /* \"#utility.yul\":4042:4057   */\n      mstore\n        /* \"#utility.yul\":4076:4080   */\n      0x24\n        /* \"#utility.yul\":4073:4074   */\n      0x00\n        /* \"#utility.yul\":4066:4081   */\n      revert\n        /* \"#utility.yul\":4093:4284   */\n    tag_46:\n        /* \"#utility.yul\":4133:4136   */\n      0x00\n        /* \"#utility.yul\":4152:4172   */\n      tag_131\n        /* \"#utility.yul\":4170:4171   */\n      dup3\n        /* \"#utility.yul\":4152:4172   */\n      tag_63\n      jump\t// in\n    tag_131:\n        /* \"#utility.yul\":4147:4172   */\n      swap2\n      pop\n        /* \"#utility.yul\":4186:4206   */\n      tag_132\n        /* \"#utility.yul\":4204:4205   */\n      dup4\n        /* \"#utility.yul\":4186:4206   */\n      tag_63\n      jump\t// in\n    tag_132:\n        /* \"#utility.yul\":4181:4206   */\n      swap3\n      pop\n        /* \"#utility.yul\":4229:4230   */\n      dup3\n        /* \"#utility.yul\":4226:4227   */\n      dup3\n        /* \"#utility.yul\":4222:4231   */\n      add\n        /* \"#utility.yul\":4215:4231   */\n      swap1\n      pop\n        /* \"#utility.yul\":4250:4253   */\n      dup1\n        /* \"#utility.yul\":4247:4248   */\n      dup3\n        /* \"#utility.yul\":4244:4254   */\n      gt\n        /* \"#utility.yul\":4241:4277   */\n      iszero\n      tag_133\n      jumpi\n        /* \"#utility.yul\":4257:4275   */\n      tag_134\n      tag_78\n      jump\t// in\n    tag_134:\n        /* \"#utility.yul\":4241:4277   */\n    tag_133:\n        /* \"#utility.yul\":4093:4284   */\n      swap3\n      swap2\n      pop\n      pop\n      jump\t// out\n        /* \"#utility.yul\":4290:4700   */\n    tag_53:\n        /* \"#utility.yul\":4330:4337   */\n      0x00\n        /* \"#utility.yul\":4353:4373   */\n      tag_136\n        /* \"#utility.yul\":4371:4372   */\n      dup3\n        /* \"#utility.yul\":4353:4373   */\n      tag_63\n      jump\t// in\n    tag_136:\n        /* \"#utility.yul\":4348:4373   */\n      swap2\n      pop\n        /* \"#utility.yul\":4387:4407   */\n      tag_137\n        /* \"#utility.yul\":4405:4406   */\n      dup4\n        /* \"#utility.yul\":4387:4407   */\n      tag_63\n      jump\t// in\n    tag_137:\n        /* \"#utility.yul\":4382:4407   */\n      swap3\n      pop\n        /* \"#utility.yul\":4442:4443   */\n      dup3\n        /* \"#utility.yul\":4439:4440   */\n      dup3\n        /* \"#utility.yul\":4435:4444   */\n      mul\n        /* \"#utility.yul\":4464:4494   */\n      tag_138\n        /* \"#utility.yul\":4482:4493   */\n      dup2\n        /* \"#utility.yul\":4464:4494   */\n      tag_63\n      jump\t// in\n    tag_138:\n        /* \"#utility.yul\":4453:4494   */\n      swap2\n      pop\n        /* \"#utility.yul\":4643:4644   */\n      dup3\n        /* \"#utility.yul\":4634:4641   */\n      dup3\n        /* \"#utility.yul\":4630:4645   */\n      div\n        /* \"#utility.yul\":4627:4628   */\n      dup5\n        /* \"#utility.yul\":4624:4646   */\n      eq\n        /* \"#utility.yul\":4604:4605   */\n      dup4\n        /* \"#utility.yul\":4597:4606   */\n      iszero\n        /* \"#utility.yul\":4577:4660   */\n      or\n        /* \"#utility.yul\":4554:4693   */\n      tag_139\n      jumpi\n        /* \"#utility.yul\":4673:4691   */\n      tag_140\n      tag_78\n      jump\t// in\n    tag_140:\n        /* \"#utility.yul\":4554:4693   */\n    tag_139:\n        /* \"#utility.yul\":4338:4700   */\n      pop\n        /* \"#utility.yul\":4290:4700   */\n      swap3\n      swap2\n      pop\n      pop\n      jump\t// out\n        /* \"#utility.yul\":4706:4886   */\n    tag_79:\n        /* \"#utility.yul\":4754:4831   */\n      0x4e487b7100000000000000000000000000000000000000000000000000000000\n        /* \"#utility.yul\":4751:4752   */\n      0x00\n        /* \"#utility.yul\":4744:4832   */\n      mstore\n        /* \"#utility.yul\":4851:4855   */\n      0x12\n        /* \"#utility.yul\":4848:4849   */\n      0x04\n        /* \"#utility.yul\":4841:4856   */\n      mstore\n        /* \"#utility.yul\":4875:4879   */\n      0x24\n        /* \"#utility.yul\":4872:4873   */\n      0x00\n        /* \"#utility.yul\":4865:4880   */\n      revert\n        /* \"#utility.yul\":4892:5077   */\n    tag_55:\n        /* \"#utility.yul\":4932:4933   */\n      0x00\n        /* \"#utility.yul\":4949:4969   */\n      tag_143\n        /* \"#utility.yul\":4967:4968   */\n      dup3\n        /* \"#utility.yul\":4949:4969   */\n      tag_63\n      jump\t// in\n    tag_143:\n        /* \"#utility.yul\":4944:4969   */\n      swap2\n      pop\n        /* \"#utility.yul\":4983:5003   */\n      tag_144\n        /* \"#utility.yul\":5001:5002   */\n      dup4\n        /* \"#utility.yul\":4983:5003   */\n      tag_63\n      jump\t// in\n    tag_144:\n        /* \"#utility.yul\":4978:5003   */\n      swap3\n      pop\n        /* \"#utility.yul\":5022:5023   */\n      dup3\n        /* \"#utility.yul\":5012:5047   */\n      tag_145\n      jumpi\n        /* \"#utility.yul\":5027:5045   */\n      tag_146\n      tag_79\n      jump\t// in\n    tag_146:\n        /* \"#utility.yul\":5012:5047   */\n    tag_145:\n        /* \"#utility.yul\":5069:5070   */\n      dup3\n        /* \"#utility.yul\":5066:5067   */\n      dup3\n        /* \"#utility.yul\":5062:5071   */\n      div\n        /* \"#utility.yul\":5057:5071   */\n      swap1\n      pop\n        /* \"#utility.yul\":4892:5077   */\n      swap3\n      swap2\n      pop\n      pop\n      jump\t// out\n        /* \"#utility.yul\":5083:5188   */\n    tag_80:\n        /* \"#utility.yul\":5119:5126   */\n      0x00\n        /* \"#utility.yul\":5159:5181   */\n      0xffffffffffffffffffff\n        /* \"#utility.yul\":5152:5157   */\n      dup3\n        /* \"#utility.yul\":5148:5182   */\n      and\n        /* \"#utility.yul\":5137:5182   */\n      swap1\n      pop\n        /* \"#utility.yul\":5083:5188   */\n      swap2\n      swap1\n      pop\n      jump\t// out\n        /* \"#utility.yul\":5194:5314   */\n    tag_81:\n        /* \"#utility.yul\":5266:5289   */\n      tag_149\n        /* \"#utility.yul\":5283:5288   */\n      dup2\n        /* \"#utility.yul\":5266:5289   */\n      tag_80\n      jump\t// in\n    tag_149:\n        /* \"#utility.yul\":5259:5264   */\n      dup2\n        /* \"#utility.yul\":5256:5290   */\n      eq\n        /* \"#utility.yul\":5246:5308   */\n      tag_150\n      jumpi\n        /* \"#utility.yul\":5304:5305   */\n      0x00\n        /* \"#utility.yul\":5301:5302   */\n      0x00\n        /* \"#utility.yul\":5294:5306   */\n      revert\n        /* \"#utility.yul\":5246:5308   */\n    tag_150:\n        /* \"#utility.yul\":5194:5314   */\n      pop\n      jump\t// out\n        /* \"#utility.yul\":5320:5461   */\n    tag_82:\n        /* \"#utility.yul\":5376:5381   */\n      0x00\n        /* \"#utility.yul\":5407:5413   */\n      dup2\n        /* \"#utility.yul\":5401:5414   */\n      mload\n        /* \"#utility.yul\":5392:5414   */\n      swap1\n      pop\n        /* \"#utility.yul\":5423:5455   */\n      tag_152\n        /* \"#utility.yul\":5449:5454   */\n      dup2\n        /* \"#utility.yul\":5423:5455   */\n      tag_81\n      jump\t// in\n    tag_152:\n        /* \"#utility.yul\":5320:5461   */\n      swap3\n      swap2\n      pop\n      pop\n      jump\t// out\n        /* \"#utility.yul\":5467:5543   */\n    tag_83:\n        /* \"#utility.yul\":5503:5510   */\n      0x00\n        /* \"#utility.yul\":5532:5537   */\n      dup2\n        /* \"#utility.yul\":5521:5537   */\n      swap1\n      pop\n        /* \"#utility.yul\":5467:5543   */\n      swap2\n      swap1\n      pop\n      jump\t// out\n        /* \"#utility.yul\":5549:5669   */\n    tag_84:\n        /* \"#utility.yul\":5621:5644   */\n      tag_155\n        /* \"#utility.yul\":5638:5643   */\n      dup2\n        /* \"#utility.yul\":5621:5644   */\n      tag_83\n      jump\t// in\n    tag_155:\n        /* \"#utility.yul\":5614:5619   */\n      dup2\n        /* \"#utility.yul\":5611:5645   */\n      eq\n        /* \"#utility.yul\":5601:5663   */\n      tag_156\n      jumpi\n        /* \"#utility.yul\":5659:5660   */\n      0x00\n        /* \"#utility.yul\":5656:5657   */\n      0x00\n        /* \"#utility.yul\":5649:5661   */\n      revert\n        /* \"#utility.yul\":5601:5663   */\n    tag_156:\n        /* \"#utility.yul\":5549:5669   */\n      pop\n      jump\t// out\n        /* \"#utility.yul\":5675:5816   */\n    tag_85:\n        /* \"#utility.yul\":5731:5736   */\n      0x00\n        /* \"#utility.yul\":5762:5768   */\n      dup2\n        /* \"#utility.yul\":5756:5769   */\n      mload\n        /* \"#utility.yul\":5747:5769   */\n      swap1\n      pop\n        /* \"#utility.yul\":5778:5810   */\n      tag_158\n        /* \"#utility.yul\":5804:5809   */\n      dup2\n        /* \"#utility.yul\":5778:5810   */\n      tag_84\n      jump\t// in\n    tag_158:\n        /* \"#utility.yul\":5675:5816   */\n      swap3\n      swap2\n      pop\n      pop\n      jump\t// out\n        /* \"#utility.yul\":5822:5965   */\n    tag_86:\n        /* \"#utility.yul\":5879:5884   */\n      0x00\n        /* \"#utility.yul\":5910:5916   */\n      dup2\n        /* \"#utility.yul\":5904:5917   */\n      mload\n        /* \"#utility.yul\":5895:5917   */\n      swap1\n      pop\n        /* \"#utility.yul\":5926:5959   */\n      tag_160\n        /* \"#utility.yul\":5953:5958   */\n      dup2\n        /* \"#utility.yul\":5926:5959   */\n      tag_72\n      jump\t// in\n    tag_160:\n        /* \"#utility.yul\":5822:5965   */\n      swap3\n      swap2\n      pop\n      pop\n      jump\t// out\n        /* \"#utility.yul\":5971:6942   */\n    tag_60:\n        /* \"#utility.yul\":6074:6080   */\n      0x00\n        /* \"#utility.yul\":6082:6088   */\n      0x00\n        /* \"#utility.yul\":6090:6096   */\n      0x00\n        /* \"#utility.yul\":6098:6104   */\n      0x00\n        /* \"#utility.yul\":6106:6112   */\n      0x00\n        /* \"#utility.yul\":6155:6158   */\n      0xa0\n        /* \"#utility.yul\":6143:6152   */\n      dup7\n        /* \"#utility.yul\":6134:6141   */\n      dup9\n        /* \"#utility.yul\":6130:6153   */\n      sub\n        /* \"#utility.yul\":6126:6159   */\n      slt\n        /* \"#utility.yul\":6123:6243   */\n      iszero\n      tag_162\n      jumpi\n        /* \"#utility.yul\":6162:6241   */\n      tag_163\n      tag_66\n      jump\t// in\n    tag_163:\n        /* \"#utility.yul\":6123:6243   */\n    tag_162:\n        /* \"#utility.yul\":6282:6283   */\n      0x00\n        /* \"#utility.yul\":6307:6370   */\n      tag_164\n        /* \"#utility.yul\":6362:6369   */\n      dup9\n        /* \"#utility.yul\":6353:6359   */\n      dup3\n        /* \"#utility.yul\":6342:6351   */\n      dup10\n        /* \"#utility.yul\":6338:6360   */\n      add\n        /* \"#utility.yul\":6307:6370   */\n      tag_82\n      jump\t// in\n    tag_164:\n        /* \"#utility.yul\":6297:6370   */\n      swap6\n      pop\n        /* \"#utility.yul\":6253:6380   */\n      pop\n        /* \"#utility.yul\":6419:6421   */\n      0x20\n        /* \"#utility.yul\":6445:6508   */\n      tag_165\n        /* \"#utility.yul\":6500:6507   */\n      dup9\n        /* \"#utility.yul\":6491:6497   */\n      dup3\n        /* \"#utility.yul\":6480:6489   */\n      dup10\n        /* \"#utility.yul\":6476:6498   */\n      add\n        /* \"#utility.yul\":6445:6508   */\n      tag_85\n      jump\t// in\n    tag_165:\n        /* \"#utility.yul\":6435:6508   */\n      swap5\n      pop\n        /* \"#utility.yul\":6390:6518   */\n      pop\n        /* \"#utility.yul\":6557:6559   */\n      0x40\n        /* \"#utility.yul\":6583:6647   */\n      tag_166\n        /* \"#utility.yul\":6639:6646   */\n      dup9\n        /* \"#utility.yul\":6630:6636   */\n      dup3\n        /* \"#utility.yul\":6619:6628   */\n      dup10\n        /* \"#utility.yul\":6615:6637   */\n      add\n        /* \"#utility.yul\":6583:6647   */\n      tag_86\n      jump\t// in\n    tag_166:\n        /* \"#utility.yul\":6573:6647   */\n      swap4\n      pop\n        /* \"#utility.yul\":6528:6657   */\n      pop\n        /* \"#utility.yul\":6696:6698   */\n      0x60\n        /* \"#utility.yul\":6722:6786   */\n      tag_167\n        /* \"#utility.yul\":6778:6785   */\n      dup9\n        /* \"#utility.yul\":6769:6775   */\n      dup3\n        /* \"#utility.yul\":6758:6767   */\n      dup10\n        /* \"#utility.yul\":6754:6776   */\n      add\n        /* \"#utility.yul\":6722:6786   */\n      tag_86\n      jump\t// in\n    tag_167:\n        /* \"#utility.yul\":6712:6786   */\n      swap3\n      pop\n        /* \"#utility.yul\":6667:6796   */\n      pop\n        /* \"#utility.yul\":6835:6838   */\n      0x80\n        /* \"#utility.yul\":6862:6925   */\n      tag_168\n        /* \"#utility.yul\":6917:6924   */\n      dup9\n        /* \"#utility.yul\":6908:6914   */\n      dup3\n        /* \"#utility.yul\":6897:6906   */\n      dup10\n        /* \"#utility.yul\":6893:6915   */\n      add\n        /* \"#utility.yul\":6862:6925   */\n      tag_82\n      jump\t// in\n    tag_168:\n        /* \"#utility.yul\":6852:6925   */\n      swap2\n      pop\n        /* \"#utility.yul\":6806:6935   */\n      pop\n        /* \"#utility.yul\":5971:6942   */\n      swap3\n      swap6\n      pop\n      swap3\n      swap6\n      swap1\n      swap4\n      pop\n      jump\t// out\n        /* \"#utility.yul\":6948:7504   */\n    tag_62:\n        /* \"#utility.yul\":6987:6994   */\n      0x00\n        /* \"#utility.yul\":7010:7029   */\n      tag_170\n        /* \"#utility.yul\":7027:7028   */\n      dup3\n        /* \"#utility.yul\":7010:7029   */\n      tag_83\n      jump\t// in\n    tag_170:\n        /* \"#utility.yul\":7005:7029   */\n      swap2\n      pop\n        /* \"#utility.yul\":7043:7062   */\n      tag_171\n        /* \"#utility.yul\":7060:7061   */\n      dup4\n        /* \"#utility.yul\":7043:7062   */\n      tag_83\n      jump\t// in\n    tag_171:\n        /* \"#utility.yul\":7038:7062   */\n      swap3\n      pop\n        /* \"#utility.yul\":7097:7098   */\n      dup3\n        /* \"#utility.yul\":7094:7095   */\n      dup3\n        /* \"#utility.yul\":7090:7099   */\n      mul\n        /* \"#utility.yul\":7119:7148   */\n      tag_172\n        /* \"#utility.yul\":7136:7147   */\n      dup2\n        /* \"#utility.yul\":7119:7148   */\n      tag_83\n      jump\t// in\n    tag_172:\n        /* \"#utility.yul\":7108:7148   */\n      swap2\n      pop\n        /* \"#utility.yul\":7206:7272   */\n      0x8000000000000000000000000000000000000000000000000000000000000000\n        /* \"#utility.yul\":7203:7204   */\n      dup5\n        /* \"#utility.yul\":7200:7273   */\n      eq\n        /* \"#utility.yul\":7196:7197   */\n      0x00\n        /* \"#utility.yul\":7193:7194   */\n      dup5\n        /* \"#utility.yul\":7189:7198   */\n      slt\n        /* \"#utility.yul\":7185:7274   */\n      and\n        /* \"#utility.yul\":7182:7297   */\n      iszero\n      tag_173\n      jumpi\n        /* \"#utility.yul\":7277:7295   */\n      tag_174\n      tag_78\n      jump\t// in\n    tag_174:\n        /* \"#utility.yul\":7182:7297   */\n    tag_173:\n        /* \"#utility.yul\":7447:7448   */\n      dup3\n        /* \"#utility.yul\":7438:7445   */\n      dup3\n        /* \"#utility.yul\":7433:7449   */\n      sdiv\n        /* \"#utility.yul\":7430:7431   */\n      dup5\n        /* \"#utility.yul\":7427:7450   */\n      eq\n        /* \"#utility.yul\":7407:7408   */\n      dup4\n        /* \"#utility.yul\":7400:7409   */\n      iszero\n        /* \"#utility.yul\":7380:7464   */\n      or\n        /* \"#utility.yul\":7357:7497   */\n      tag_175\n      jumpi\n        /* \"#utility.yul\":7477:7495   */\n      tag_176\n      tag_78\n      jump\t// in\n    tag_176:\n        /* \"#utility.yul\":7357:7497   */\n    tag_175:\n        /* \"#utility.yul\":6995:7504   */\n      pop\n        /* \"#utility.yul\":6948:7504   */\n      swap3\n      swap2\n      pop\n      pop\n      jump\t// out\n\n    auxdata: 0xa2646970667358221220da55f9d514a970efcd9971ce9f1fdd02a66bc17be2b21d2709ccd98be04ccc1464736f6c634300081d0033\n}\n",
				"bytecode": {
					"linkReferences": {},
					"object": "6080604052674563918244f400005f553480156019575f5ffd5b50610869806100275f395ff3fe608060405260043610610049575f3560e01c80632a33d35c1461004d5780633ccfd60b146100775780633e47d6f31461008d578063b60d4288146100c9578063dc0d3dff146100d3575b5f5ffd5b348015610058575f5ffd5b5061006161010f565b60405161006e91906103fe565b60405180910390f35b348015610082575f5ffd5b5061008b610114565b005b348015610098575f5ffd5b506100b360048036038101906100ae9190610475565b6101b8565b6040516100c091906103fe565b60405180910390f35b6100d16101cd565b005b3480156100de575f5ffd5b506100f960048036038101906100f491906104ca565b6102ce565b6040516101069190610504565b60405180910390f35b5f5481565b5f5f90505b6001805490508110156101b5575f6001828154811061013b5761013a61051d565b5b905f5260205f20015f9054906101000a900473ffffffffffffffffffffffffffffffffffffffff1690505f60025f8373ffffffffffffffffffffffffffffffffffffffff1673ffffffffffffffffffffffffffffffffffffffff1681526020019081526020015f2081905550508080600101915050610119565b50565b6002602052805f5260405f205f915090505481565b5f546101d834610309565b1015610219576040517f08c379a0000000000000000000000000000000000000000000000000000000008152600401610210906105a4565b60405180910390fd5b600133908060018154018082558091505060019003905f5260205f20015f9091909190916101000a81548173ffffffffffffffffffffffffffffffffffffffff021916908373ffffffffffffffffffffffffffffffffffffffff1602179055503460025f3373ffffffffffffffffffffffffffffffffffffffff1673ffffffffffffffffffffffffffffffffffffffff1681526020019081526020015f205f8282546102c591906105ef565b92505081905550565b600181815481106102dd575f80fd5b905f5260205f20015f915054906101000a900473ffffffffffffffffffffffffffffffffffffffff1681565b5f5f610313610341565b90505f670de0b6b3a7640000848361032b9190610622565b6103359190610690565b90508092505050919050565b5f5f73694aa1769357215de4fac081bf1f309adc32530690505f8173ffffffffffffffffffffffffffffffffffffffff1663feaf968c6040518163ffffffff1660e01b815260040160a060405180830381865afa1580156103a4573d5f5f3e3d5ffd5b505050506040513d601f19601f820116820180604052508101906103c89190610746565b5050509150506402540be400816103df91906107bd565b9250505090565b5f819050919050565b6103f8816103e6565b82525050565b5f6020820190506104115f8301846103ef565b92915050565b5f5ffd5b5f73ffffffffffffffffffffffffffffffffffffffff82169050919050565b5f6104448261041b565b9050919050565b6104548161043a565b811461045e575f5ffd5b50565b5f8135905061046f8161044b565b92915050565b5f6020828403121561048a57610489610417565b5b5f61049784828501610461565b91505092915050565b6104a9816103e6565b81146104b3575f5ffd5b50565b5f813590506104c4816104a0565b92915050565b5f602082840312156104df576104de610417565b5b5f6104ec848285016104b6565b91505092915050565b6104fe8161043a565b82525050565b5f6020820190506105175f8301846104f5565b92915050565b7f4e487b71000000000000000000000000000000000000000000000000000000005f52603260045260245ffd5b5f82825260208201905092915050565b7f6469646e27742073656e6420656e6f75676820657468000000000000000000005f82015250565b5f61058e60168361054a565b91506105998261055a565b602082019050919050565b5f6020820190508181035f8301526105bb81610582565b9050919050565b7f4e487b71000000000000000000000000000000000000000000000000000000005f52601160045260245ffd5b5f6105f9826103e6565b9150610604836103e6565b925082820190508082111561061c5761061b6105c2565b5b92915050565b5f61062c826103e6565b9150610637836103e6565b9250828202610645816103e6565b9150828204841483151761065c5761065b6105c2565b5b5092915050565b7f4e487b71000000000000000000000000000000000000000000000000000000005f52601260045260245ffd5b5f61069a826103e6565b91506106a5836103e6565b9250826106b5576106b4610663565b5b828204905092915050565b5f69ffffffffffffffffffff82169050919050565b6106de816106c0565b81146106e8575f5ffd5b50565b5f815190506106f9816106d5565b92915050565b5f819050919050565b610711816106ff565b811461071b575f5ffd5b50565b5f8151905061072c81610708565b92915050565b5f81519050610740816104a0565b92915050565b5f5f5f5f5f60a0868803121561075f5761075e610417565b5b5f61076c888289016106eb565b955050602061077d8882890161071e565b945050604061078e88828901610732565b935050606061079f88828901610732565b92505060806107b0888289016106eb565b9150509295509295909350565b5f6107c7826106ff565b91506107d2836106ff565b92508282026107e0816106ff565b91507f800000000000000000000000000000000000000000000000000000000000000084145f84121615610817576108166105c2565b5b828205841483151761082c5761082b6105c2565b5b509291505056fea2646970667358221220da55f9d514a970efcd9971ce9f1fdd02a66bc17be2b21d2709ccd98be04ccc1464736f6c634300081d0033",
					"opcodes": "PUSH1 0x80 PUSH1 0x40 MSTORE PUSH8 0x4563918244F40000 PUSH0 SSTORE CALLVALUE DUP1 ISZERO PUSH1 0x19 JUMPI PUSH0 PUSH0 REVERT JUMPDEST POP PUSH2 0x869 DUP1 PUSH2 0x27 PUSH0 CODECOPY PUSH0 RETURN INVALID PUSH1 0x80 PUSH1 0x40 MSTORE PUSH1 0x4 CALLDATASIZE LT PUSH2 0x49 JUMPI PUSH0 CALLDATALOAD PUSH1 0xE0 SHR DUP1 PUSH4 0x2A33D35C EQ PUSH2 0x4D JUMPI DUP1 PUSH4 0x3CCFD60B EQ PUSH2 0x77 JUMPI DUP1 PUSH4 0x3E47D6F3 EQ PUSH2 0x8D JUMPI DUP1 PUSH4 0xB60D4288 EQ PUSH2 0xC9 JUMPI DUP1 PUSH4 0xDC0D3DFF EQ PUSH2 0xD3 JUMPI JUMPDEST PUSH0 PUSH0 REVERT JUMPDEST CALLVALUE DUP1 ISZERO PUSH2 0x58 JUMPI PUSH0 PUSH0 REVERT JUMPDEST POP PUSH2 0x61 PUSH2 0x10F JUMP JUMPDEST PUSH1 0x40 MLOAD PUSH2 0x6E SWAP2 SWAP1 PUSH2 0x3FE JUMP JUMPDEST PUSH1 0x40 MLOAD DUP1 SWAP2 SUB SWAP1 RETURN JUMPDEST CALLVALUE DUP1 ISZERO PUSH2 0x82 JUMPI PUSH0 PUSH0 REVERT JUMPDEST POP PUSH2 0x8B PUSH2 0x114 JUMP JUMPDEST STOP JUMPDEST CALLVALUE DUP1 ISZERO PUSH2 0x98 JUMPI PUSH0 PUSH0 REVERT JUMPDEST POP PUSH2 0xB3 PUSH1 0x4 DUP1 CALLDATASIZE SUB DUP2 ADD SWAP1 PUSH2 0xAE SWAP2 SWAP1 PUSH2 0x475 JUMP JUMPDEST PUSH2 0x1B8 JUMP JUMPDEST PUSH1 0x40 MLOAD PUSH2 0xC0 SWAP2 SWAP1 PUSH2 0x3FE JUMP JUMPDEST PUSH1 0x40 MLOAD DUP1 SWAP2 SUB SWAP1 RETURN JUMPDEST PUSH2 0xD1 PUSH2 0x1CD JUMP JUMPDEST STOP JUMPDEST CALLVALUE DUP1 ISZERO PUSH2 0xDE JUMPI PUSH0 PUSH0 REVERT JUMPDEST POP PUSH2 0xF9 PUSH1 0x4 DUP1 CALLDATASIZE SUB DUP2 ADD SWAP1 PUSH2 0xF4 SWAP2 SWAP1 PUSH2 0x4CA JUMP JUMPDEST PUSH2 0x2CE JUMP JUMPDEST PUSH1 0x40 MLOAD PUSH2 0x106 SWAP2 SWAP1 PUSH2 0x504 JUMP JUMPDEST PUSH1 0x40 MLOAD DUP1 SWAP2 SUB SWAP1 RETURN JUMPDEST PUSH0 SLOAD DUP2 JUMP JUMPDEST PUSH0 PUSH0 SWAP1 POP JUMPDEST PUSH1 0x1 DUP1 SLOAD SWAP1 POP DUP2 LT ISZERO PUSH2 0x1B5 JUMPI PUSH0 PUSH1 0x1 DUP3 DUP2 SLOAD DUP2 LT PUSH2 0x13B JUMPI PUSH2 0x13A PUSH2 0x51D JUMP JUMPDEST JUMPDEST SWAP1 PUSH0 MSTORE PUSH1 0x20 PUSH0 KECCAK256 ADD PUSH0 SWAP1 SLOAD SWAP1 PUSH2 0x100 EXP SWAP1 DIV PUSH20 0xFFFFFFFFFFFFFFFFFFFFFFFFFFFFFFFFFFFFFFFF AND SWAP1 POP PUSH0 PUSH1 0x2 PUSH0 DUP4 PUSH20 0xFFFFFFFFFFFFFFFFFFFFFFFFFFFFFFFFFFFFFFFF AND PUSH20 0xFFFFFFFFFFFFFFFFFFFFFFFFFFFFFFFFFFFFFFFF AND DUP2 MSTORE PUSH1 0x20 ADD SWAP1 DUP2 MSTORE PUSH1 0x20 ADD PUSH0 KECCAK256 DUP2 SWAP1 SSTORE POP POP DUP1 DUP1 PUSH1 0x1 ADD SWAP2 POP POP PUSH2 0x119 JUMP JUMPDEST POP JUMP JUMPDEST PUSH1 0x2 PUSH1 0x20 MSTORE DUP1 PUSH0 MSTORE PUSH1 0x40 PUSH0 KECCAK256 PUSH0 SWAP2 POP SWAP1 POP SLOAD DUP2 JUMP JUMPDEST PUSH0 SLOAD PUSH2 0x1D8 CALLVALUE PUSH2 0x309 JUMP JUMPDEST LT ISZERO PUSH2 0x219 JUMPI PUSH1 0x40 MLOAD PUSH32 0x8C379A000000000000000000000000000000000000000000000000000000000 DUP2 MSTORE PUSH1 0x4 ADD PUSH2 0x210 SWAP1 PUSH2 0x5A4 JUMP JUMPDEST PUSH1 0x40 MLOAD DUP1 SWAP2 SUB SWAP1 REVERT JUMPDEST PUSH1 0x1 CALLER SWAP1 DUP1 PUSH1 0x1 DUP2 SLOAD ADD DUP1 DUP3 SSTORE DUP1 SWAP2 POP POP PUSH1 0x1 SWAP1 SUB SWAP1 PUSH0 MSTORE PUSH1 0x20 PUSH0 KECCAK256 ADD PUSH0 SWAP1 SWAP2 SWAP1 SWAP2 SWAP1 SWAP2 PUSH2 0x100 EXP DUP2 SLOAD DUP2 PUSH20 0xFFFFFFFFFFFFFFFFFFFFFFFFFFFFFFFFFFFFFFFF MUL NOT AND SWAP1 DUP4 PUSH20 0xFFFFFFFFFFFFFFFFFFFFFFFFFFFFFFFFFFFFFFFF AND MUL OR SWAP1 SSTORE POP CALLVALUE PUSH1 0x2 PUSH0 CALLER PUSH20 0xFFFFFFFFFFFFFFFFFFFFFFFFFFFFFFFFFFFFFFFF AND PUSH20 0xFFFFFFFFFFFFFFFFFFFFFFFFFFFFFFFFFFFFFFFF AND DUP2 MSTORE PUSH1 0x20 ADD SWAP1 DUP2 MSTORE PUSH1 0x20 ADD PUSH0 KECCAK256 PUSH0 DUP3 DUP3 SLOAD PUSH2 0x2C5 SWAP2 SWAP1 PUSH2 0x5EF JUMP JUMPDEST SWAP3 POP POP DUP2 SWAP1 SSTORE POP JUMP JUMPDEST PUSH1 0x1 DUP2 DUP2 SLOAD DUP2 LT PUSH2 0x2DD JUMPI PUSH0 DUP1 REVERT JUMPDEST SWAP1 PUSH0 MSTORE PUSH1 0x20 PUSH0 KECCAK256 ADD PUSH0 SWAP2 POP SLOAD SWAP1 PUSH2 0x100 EXP SWAP1 DIV PUSH20 0xFFFFFFFFFFFFFFFFFFFFFFFFFFFFFFFFFFFFFFFF AND DUP2 JUMP JUMPDEST PUSH0 PUSH0 PUSH2 0x313 PUSH2 0x341 JUMP JUMPDEST SWAP1 POP PUSH0 PUSH8 0xDE0B6B3A7640000 DUP5 DUP4 PUSH2 0x32B SWAP2 SWAP1 PUSH2 0x622 JUMP JUMPDEST PUSH2 0x335 SWAP2 SWAP1 PUSH2 0x690 JUMP JUMPDEST SWAP1 POP DUP1 SWAP3 POP POP POP SWAP2 SWAP1 POP JUMP JUMPDEST PUSH0 PUSH0 PUSH20 0x694AA1769357215DE4FAC081BF1F309ADC325306 SWAP1 POP PUSH0 DUP2 PUSH20 0xFFFFFFFFFFFFFFFFFFFFFFFFFFFFFFFFFFFFFFFF AND PUSH4 0xFEAF968C PUSH1 0x40 MLOAD DUP2 PUSH4 0xFFFFFFFF AND PUSH1 0xE0 SHL DUP2 MSTORE PUSH1 0x4 ADD PUSH1 0xA0 PUSH1 0x40 MLOAD DUP1 DUP4 SUB DUP2 DUP7 GAS STATICCALL ISZERO DUP1 ISZERO PUSH2 0x3A4 JUMPI RETURNDATASIZE PUSH0 PUSH0 RETURNDATACOPY RETURNDATASIZE PUSH0 REVERT JUMPDEST POP POP POP POP PUSH1 0x40 MLOAD RETURNDATASIZE PUSH1 0x1F NOT PUSH1 0x1F DUP3 ADD AND DUP3 ADD DUP1 PUSH1 0x40 MSTORE POP DUP2 ADD SWAP1 PUSH2 0x3C8 SWAP2 SWAP1 PUSH2 0x746 JUMP JUMPDEST POP POP POP SWAP2 POP POP PUSH5 0x2540BE400 DUP2 PUSH2 0x3DF SWAP2 SWAP1 PUSH2 0x7BD JUMP JUMPDEST SWAP3 POP POP POP SWAP1 JUMP JUMPDEST PUSH0 DUP2 SWAP1 POP SWAP2 SWAP1 POP JUMP JUMPDEST PUSH2 0x3F8 DUP2 PUSH2 0x3E6 JUMP JUMPDEST DUP3 MSTORE POP POP JUMP JUMPDEST PUSH0 PUSH1 0x20 DUP3 ADD SWAP1 POP PUSH2 0x411 PUSH0 DUP4 ADD DUP5 PUSH2 0x3EF JUMP JUMPDEST SWAP3 SWAP2 POP POP JUMP JUMPDEST PUSH0 PUSH0 REVERT JUMPDEST PUSH0 PUSH20 0xFFFFFFFFFFFFFFFFFFFFFFFFFFFFFFFFFFFFFFFF DUP3 AND SWAP1 POP SWAP2 SWAP1 POP JUMP JUMPDEST PUSH0 PUSH2 0x444 DUP3 PUSH2 0x41B JUMP JUMPDEST SWAP1 POP SWAP2 SWAP1 POP JUMP JUMPDEST PUSH2 0x454 DUP2 PUSH2 0x43A JUMP JUMPDEST DUP2 EQ PUSH2 0x45E JUMPI PUSH0 PUSH0 REVERT JUMPDEST POP JUMP JUMPDEST PUSH0 DUP2 CALLDATALOAD SWAP1 POP PUSH2 0x46F DUP2 PUSH2 0x44B JUMP JUMPDEST SWAP3 SWAP2 POP POP JUMP JUMPDEST PUSH0 PUSH1 0x20 DUP3 DUP5 SUB SLT ISZERO PUSH2 0x48A JUMPI PUSH2 0x489 PUSH2 0x417 JUMP JUMPDEST JUMPDEST PUSH0 PUSH2 0x497 DUP5 DUP3 DUP6 ADD PUSH2 0x461 JUMP JUMPDEST SWAP2 POP POP SWAP3 SWAP2 POP POP JUMP JUMPDEST PUSH2 0x4A9 DUP2 PUSH2 0x3E6 JUMP JUMPDEST DUP2 EQ PUSH2 0x4B3 JUMPI PUSH0 PUSH0 REVERT JUMPDEST POP JUMP JUMPDEST PUSH0 DUP2 CALLDATALOAD SWAP1 POP PUSH2 0x4C4 DUP2 PUSH2 0x4A0 JUMP JUMPDEST SWAP3 SWAP2 POP POP JUMP JUMPDEST PUSH0 PUSH1 0x20 DUP3 DUP5 SUB SLT ISZERO PUSH2 0x4DF JUMPI PUSH2 0x4DE PUSH2 0x417 JUMP JUMPDEST JUMPDEST PUSH0 PUSH2 0x4EC DUP5 DUP3 DUP6 ADD PUSH2 0x4B6 JUMP JUMPDEST SWAP2 POP POP SWAP3 SWAP2 POP POP JUMP JUMPDEST PUSH2 0x4FE DUP2 PUSH2 0x43A JUMP JUMPDEST DUP3 MSTORE POP POP JUMP JUMPDEST PUSH0 PUSH1 0x20 DUP3 ADD SWAP1 POP PUSH2 0x517 PUSH0 DUP4 ADD DUP5 PUSH2 0x4F5 JUMP JUMPDEST SWAP3 SWAP2 POP POP JUMP JUMPDEST PUSH32 0x4E487B7100000000000000000000000000000000000000000000000000000000 PUSH0 MSTORE PUSH1 0x32 PUSH1 0x4 MSTORE PUSH1 0x24 PUSH0 REVERT JUMPDEST PUSH0 DUP3 DUP3 MSTORE PUSH1 0x20 DUP3 ADD SWAP1 POP SWAP3 SWAP2 POP POP JUMP JUMPDEST PUSH32 0x6469646E27742073656E6420656E6F7567682065746800000000000000000000 PUSH0 DUP3 ADD MSTORE POP JUMP JUMPDEST PUSH0 PUSH2 0x58E PUSH1 0x16 DUP4 PUSH2 0x54A JUMP JUMPDEST SWAP2 POP PUSH2 0x599 DUP3 PUSH2 0x55A JUMP JUMPDEST PUSH1 0x20 DUP3 ADD SWAP1 POP SWAP2 SWAP1 POP JUMP JUMPDEST PUSH0 PUSH1 0x20 DUP3 ADD SWAP1 POP DUP2 DUP2 SUB PUSH0 DUP4 ADD MSTORE PUSH2 0x5BB DUP2 PUSH2 0x582 JUMP JUMPDEST SWAP1 POP SWAP2 SWAP1 POP JUMP JUMPDEST PUSH32 0x4E487B7100000000000000000000000000000000000000000000000000000000 PUSH0 MSTORE PUSH1 0x11 PUSH1 0x4 MSTORE PUSH1 0x24 PUSH0 REVERT JUMPDEST PUSH0 PUSH2 0x5F9 DUP3 PUSH2 0x3E6 JUMP JUMPDEST SWAP2 POP PUSH2 0x604 DUP4 PUSH2 0x3E6 JUMP JUMPDEST SWAP3 POP DUP3 DUP3 ADD SWAP1 POP DUP1 DUP3 GT ISZERO PUSH2 0x61C JUMPI PUSH2 0x61B PUSH2 0x5C2 JUMP JUMPDEST JUMPDEST SWAP3 SWAP2 POP POP JUMP JUMPDEST PUSH0 PUSH2 0x62C DUP3 PUSH2 0x3E6 JUMP JUMPDEST SWAP2 POP PUSH2 0x637 DUP4 PUSH2 0x3E6 JUMP JUMPDEST SWAP3 POP DUP3 DUP3 MUL PUSH2 0x645 DUP2 PUSH2 0x3E6 JUMP JUMPDEST SWAP2 POP DUP3 DUP3 DIV DUP5 EQ DUP4 ISZERO OR PUSH2 0x65C JUMPI PUSH2 0x65B PUSH2 0x5C2 JUMP JUMPDEST JUMPDEST POP SWAP3 SWAP2 POP POP JUMP JUMPDEST PUSH32 0x4E487B7100000000000000000000000000000000000000000000000000000000 PUSH0 MSTORE PUSH1 0x12 PUSH1 0x4 MSTORE PUSH1 0x24 PUSH0 REVERT JUMPDEST PUSH0 PUSH2 0x69A DUP3 PUSH2 0x3E6 JUMP JUMPDEST SWAP2 POP PUSH2 0x6A5 DUP4 PUSH2 0x3E6 JUMP JUMPDEST SWAP3 POP DUP3 PUSH2 0x6B5 JUMPI PUSH2 0x6B4 PUSH2 0x663 JUMP JUMPDEST JUMPDEST DUP3 DUP3 DIV SWAP1 POP SWAP3 SWAP2 POP POP JUMP JUMPDEST PUSH0 PUSH10 0xFFFFFFFFFFFFFFFFFFFF DUP3 AND SWAP1 POP SWAP2 SWAP1 POP JUMP JUMPDEST PUSH2 0x6DE DUP2 PUSH2 0x6C0 JUMP JUMPDEST DUP2 EQ PUSH2 0x6E8 JUMPI PUSH0 PUSH0 REVERT JUMPDEST POP JUMP JUMPDEST PUSH0 DUP2 MLOAD SWAP1 POP PUSH2 0x6F9 DUP2 PUSH2 0x6D5 JUMP JUMPDEST SWAP3 SWAP2 POP POP JUMP JUMPDEST PUSH0 DUP2 SWAP1 POP SWAP2 SWAP1 POP JUMP JUMPDEST PUSH2 0x711 DUP2 PUSH2 0x6FF JUMP JUMPDEST DUP2 EQ PUSH2 0x71B JUMPI PUSH0 PUSH0 REVERT JUMPDEST POP JUMP JUMPDEST PUSH0 DUP2 MLOAD SWAP1 POP PUSH2 0x72C DUP2 PUSH2 0x708 JUMP JUMPDEST SWAP3 SWAP2 POP POP JUMP JUMPDEST PUSH0 DUP2 MLOAD SWAP1 POP PUSH2 0x740 DUP2 PUSH2 0x4A0 JUMP JUMPDEST SWAP3 SWAP2 POP POP JUMP JUMPDEST PUSH0 PUSH0 PUSH0 PUSH0 PUSH0 PUSH1 0xA0 DUP7 DUP9 SUB SLT ISZERO PUSH2 0x75F JUMPI PUSH2 0x75E PUSH2 0x417 JUMP JUMPDEST JUMPDEST PUSH0 PUSH2 0x76C DUP9 DUP3 DUP10 ADD PUSH2 0x6EB JUMP JUMPDEST SWAP6 POP POP PUSH1 0x20 PUSH2 0x77D DUP9 DUP3 DUP10 ADD PUSH2 0x71E JUMP JUMPDEST SWAP5 POP POP PUSH1 0x40 PUSH2 0x78E DUP9 DUP3 DUP10 ADD PUSH2 0x732 JUMP JUMPDEST SWAP4 POP POP PUSH1 0x60 PUSH2 0x79F DUP9 DUP3 DUP10 ADD PUSH2 0x732 JUMP JUMPDEST SWAP3 POP POP PUSH1 0x80 PUSH2 0x7B0 DUP9 DUP3 DUP10 ADD PUSH2 0x6EB JUMP JUMPDEST SWAP2 POP POP SWAP3 SWAP6 POP SWAP3 SWAP6 SWAP1 SWAP4 POP JUMP JUMPDEST PUSH0 PUSH2 0x7C7 DUP3 PUSH2 0x6FF JUMP JUMPDEST SWAP2 POP PUSH2 0x7D2 DUP4 PUSH2 0x6FF JUMP JUMPDEST SWAP3 POP DUP3 DUP3 MUL PUSH2 0x7E0 DUP2 PUSH2 0x6FF JUMP JUMPDEST SWAP2 POP PUSH32 0x8000000000000000000000000000000000000000000000000000000000000000 DUP5 EQ PUSH0 DUP5 SLT AND ISZERO PUSH2 0x817 JUMPI PUSH2 0x816 PUSH2 0x5C2 JUMP JUMPDEST JUMPDEST DUP3 DUP3 SDIV DUP5 EQ DUP4 ISZERO OR PUSH2 0x82C JUMPI PUSH2 0x82B PUSH2 0x5C2 JUMP JUMPDEST JUMPDEST POP SWAP3 SWAP2 POP POP JUMP INVALID LOG2 PUSH5 0x6970667358 0x22 SLT KECCAK256 0xDA SSTORE EXTDELEGATECALL 0xD5 EQ 0xA9 PUSH17 0xEFCD9971CE9F1FDD02A66BC17BE2B21D27 MULMOD 0xCC 0xD9 DUP12 RJUMP 0x4CCC EQ PUSH5 0x736F6C6343 STOP ADDMOD SAR STOP CALLER "
				},
				"gasEstimates": {
					"creation": {
						"codeDepositCost": "430600",
						"executionCost": "22571",
						"totalCost": "453171"
					},
					"external": {
						"MinimumUSD()": "2402",
						"addressToAmountFunded(address)": "2824",
						"fund()": "infinite",
						"funders(uint256)": "5010",
						"withdraw()": "infinite"
					}
				},
				"methodIdentifiers": {
					"MinimumUSD()": "2a33d35c",
					"addressToAmountFunded(address)": "3e47d6f3",
					"fund()": "b60d4288",
					"funders(uint256)": "dc0d3dff",
					"withdraw()": "3ccfd60b"
				}
			},
			"storageLayout": {
				"storage": [
					{
						"astId": 55,
						"contract": "contracts/FundMe.sol:FundMe",
						"label": "MinimumUSD",
						"offset": 0,
						"slot": "0",
						"type": "t_uint256"
					},
					{
						"astId": 58,
						"contract": "contracts/FundMe.sol:FundMe",
						"label": "funders",
						"offset": 0,
						"slot": "1",
						"type": "t_array(t_address)dyn_storage"
					},
					{
						"astId": 62,
						"contract": "contracts/FundMe.sol:FundMe",
						"label": "addressToAmountFunded",
						"offset": 0,
						"slot": "2",
						"type": "t_mapping(t_address,t_uint256)"
					}
				],
				"types": {
					"t_address": {
						"encoding": "inplace",
						"label": "address",
						"numberOfBytes": "20"
					},
					"t_array(t_address)dyn_storage": {
						"base": "t_address",
						"encoding": "dynamic_array",
						"label": "address[]",
						"numberOfBytes": "32"
					},
					"t_mapping(t_address,t_uint256)": {
						"encoding": "mapping",
						"key": "t_address",
						"label": "mapping(address => uint256)",
						"numberOfBytes": "32",
						"value": "t_uint256"
					},
					"t_uint256": {
						"encoding": "inplace",
						"label": "uint256",
						"numberOfBytes": "32"
					}
				}
			},
			"userdoc": {
				"kind": "user",
				"methods": {},
				"version": 1
			}
		}
	}
}