{
	"data": {
		"bytecode": {
			"linkReferences": {},
			"object": "6080604052348015600e575f5ffd5b50610c0e8061001c5f395ff3fe608060405234801561000f575f5ffd5b506004361061007a575f3560e01c8063365b98b211610059578063365b98b2146100ea57806356a7d90a1461011b5780636057361d14610137578063df986725146101535761007a565b8062ce8e3e1461007e57806306c62c2c1461009c5780632e64cec1146100cc575b5f5ffd5b610086610171565b604051610093919061056b565b60405180910390f35b6100b660048036038101906100b191906106c8565b610266565b6040516100c3919061071e565b60405180910390f35b6100d4610293565b6040516100e1919061071e565b60405180910390f35b61010460048036038101906100ff9190610761565b61029b565b6040516101129291906107d4565b60405180910390f35b61013560048036038101906101309190610802565b610350565b005b610151600480360381019061014c9190610761565b6103d4565b005b61015b6103e9565b604051610168919061071e565b60405180910390f35b60606001805480602002602001604051908101604052809291908181526020015f905b8282101561025d578382905f5260205f2090600202016040518060400160405290815f82015481526020016001820180546101ce90610889565b80601f01602080910402602001604051908101604052809291908181526020018280546101fa90610889565b80156102455780601f1061021c57610100808354040283529160200191610245565b820191905f5260205f20905b81548152906001019060200180831161022857829003601f168201915b50505050508152505081526020019060010190610194565b50505050905090565b6002818051602081018201805184825260208301602085012081835280955050505050505f915090505481565b5f5f54905090565b600181815481106102aa575f80fd5b905f5260205f2090600202015f91509050805f0154908060010180546102cf90610889565b80601f01602080910402602001604051908101604052809291908181526020018280546102fb90610889565b80156103465780601f1061031d57610100808354040283529160200191610346565b820191905f5260205f20905b81548152906001019060200180831161032957829003601f168201915b5050505050905082565b6001604051806040016040528084815260200183815250908060018154018082558091505060019003905f5260205f2090600202015f909190919091505f820151815f015560208201518160010190816103aa9190610a59565b505050816002826040516103be9190610b62565b9081526020016040518091039020819055505050565b6005816103e19190610ba5565b5f8190555050565b5f5481565b5f81519050919050565b5f82825260208201905092915050565b5f819050602082019050919050565b5f819050919050565b61042981610417565b82525050565b5f81519050919050565b5f82825260208201905092915050565b8281835e5f83830152505050565b5f601f19601f8301169050919050565b5f6104718261042f565b61047b8185610439565b935061048b818560208601610449565b61049481610457565b840191505092915050565b5f604083015f8301516104b45f860182610420565b50602083015184820360208601526104cc8282610467565b9150508091505092915050565b5f6104e4838361049f565b905092915050565b5f602082019050919050565b5f610502826103ee565b61050c81856103f8565b93508360208202850161051e85610408565b805f5b85811015610559578484038952815161053a85826104d9565b9450610545836104ec565b925060208a01995050600181019050610521565b50829750879550505050505092915050565b5f6020820190508181035f83015261058381846104f8565b905092915050565b5f604051905090565b5f5ffd5b5f5ffd5b5f5ffd5b5f5ffd5b7f4e487b71000000000000000000000000000000000000000000000000000000005f52604160045260245ffd5b6105da82610457565b810181811067ffffffffffffffff821117156105f9576105f86105a4565b5b80604052505050565b5f61060b61058b565b905061061782826105d1565b919050565b5f67ffffffffffffffff821115610636576106356105a4565b5b61063f82610457565b9050602081019050919050565b828183375f83830152505050565b5f61066c6106678461061c565b610602565b905082815260208101848484011115610688576106876105a0565b5b61069384828561064c565b509392505050565b5f82601f8301126106af576106ae61059c565b5b81356106bf84826020860161065a565b91505092915050565b5f602082840312156106dd576106dc610594565b5b5f82013567ffffffffffffffff8111156106fa576106f9610598565b5b6107068482850161069b565b91505092915050565b61071881610417565b82525050565b5f6020820190506107315f83018461070f565b92915050565b61074081610417565b811461074a575f5ffd5b50565b5f8135905061075b81610737565b92915050565b5f6020828403121561077657610775610594565b5b5f6107838482850161074d565b91505092915050565b5f82825260208201905092915050565b5f6107a68261042f565b6107b0818561078c565b93506107c0818560208601610449565b6107c981610457565b840191505092915050565b5f6040820190506107e75f83018561070f565b81810360208301526107f9818461079c565b90509392505050565b5f5f6040838503121561081857610817610594565b5b5f6108258582860161074d565b925050602083013567ffffffffffffffff81111561084657610845610598565b5b6108528582860161069b565b9150509250929050565b7f4e487b71000000000000000000000000000000000000000000000000000000005f52602260045260245ffd5b5f60028204905060018216806108a057607f821691505b6020821081036108b3576108b261085c565b5b50919050565b5f819050815f5260205f209050919050565b5f6020601f8301049050919050565b5f82821b905092915050565b5f600883026109157fffffffffffffffffffffffffffffffffffffffffffffffffffffffffffffffff826108da565b61091f86836108da565b95508019841693508086168417925050509392505050565b5f819050919050565b5f61095a61095561095084610417565b610937565b610417565b9050919050565b5f819050919050565b61097383610940565b61098761097f82610961565b8484546108e6565b825550505050565b5f5f905090565b61099e61098f565b6109a981848461096a565b505050565b5b818110156109cc576109c15f82610996565b6001810190506109af565b5050565b601f821115610a11576109e2816108b9565b6109eb846108cb565b810160208510156109fa578190505b610a0e610a06856108cb565b8301826109ae565b50505b505050565b5f82821c905092915050565b5f610a315f1984600802610a16565b1980831691505092915050565b5f610a498383610a22565b9150826002028217905092915050565b610a628261042f565b67ffffffffffffffff811115610a7b57610a7a6105a4565b5b610a858254610889565b610a908282856109d0565b5f60209050601f831160018114610ac1575f8415610aaf578287015190505b610ab98582610a3e565b865550610b20565b601f198416610acf866108b9565b5f5b82811015610af657848901518255600182019150602085019450602081019050610ad1565b86831015610b135784890151610b0f601f891682610a22565b8355505b6001600288020188555050505b505050505050565b5f81905092915050565b5f610b3c8261042f565b610b468185610b28565b9350610b56818560208601610449565b80840191505092915050565b5f610b6d8284610b32565b915081905092915050565b7f4e487b71000000000000000000000000000000000000000000000000000000005f52601160045260245ffd5b5f610baf82610417565b9150610bba83610417565b9250828201905080821115610bd257610bd1610b78565b5b9291505056fea2646970667358221220188ec88e989584d338507c2636b588887ce922f13f9e0e4620c51604a41e550864736f6c634300081d0033",
			"opcodes": "PUSH1 0x80 PUSH1 0x40 MSTORE CALLVALUE DUP1 ISZERO PUSH1 0xE JUMPI PUSH0 PUSH0 REVERT JUMPDEST POP PUSH2 0xC0E DUP1 PUSH2 0x1C PUSH0 CODECOPY PUSH0 RETURN INVALID PUSH1 0x80 PUSH1 0x40 MSTORE CALLVALUE DUP1 ISZERO PUSH2 0xF JUMPI PUSH0 PUSH0 REVERT JUMPDEST POP PUSH1 0x4 CALLDATASIZE LT PUSH2 0x7A JUMPI PUSH0 CALLDATALOAD PUSH1 0xE0 SHR DUP1 PUSH4 0x365B98B2 GT PUSH2 0x59 JUMPI DUP1 PUSH4 0x365B98B2 EQ PUSH2 0xEA JUMPI DUP1 PUSH4 0x56A7D90A EQ PUSH2 0x11B JUMPI DUP1 PUSH4 0x6057361D EQ PUSH2 0x137 JUMPI DUP1 PUSH4 0xDF986725 EQ PUSH2 0x153 JUMPI PUSH2 0x7A JUMP JUMPDEST DUP1 PUSH3 0xCE8E3E EQ PUSH2 0x7E JUMPI DUP1 PUSH4 0x6C62C2C EQ PUSH2 0x9C JUMPI DUP1 PUSH4 0x2E64CEC1 EQ PUSH2 0xCC JUMPI JUMPDEST PUSH0 PUSH0 REVERT JUMPDEST PUSH2 0x86 PUSH2 0x171 JUMP JUMPDEST PUSH1 0x40 MLOAD PUSH2 0x93 SWAP2 SWAP1 PUSH2 0x56B JUMP JUMPDEST PUSH1 0x40 MLOAD DUP1 SWAP2 SUB SWAP1 RETURN JUMPDEST PUSH2 0xB6 PUSH1 0x4 DUP1 CALLDATASIZE SUB DUP2 ADD SWAP1 PUSH2 0xB1 SWAP2 SWAP1 PUSH2 0x6C8 JUMP JUMPDEST PUSH2 0x266 JUMP JUMPDEST PUSH1 0x40 MLOAD PUSH2 0xC3 SWAP2 SWAP1 PUSH2 0x71E JUMP JUMPDEST PUSH1 0x40 MLOAD DUP1 SWAP2 SUB SWAP1 RETURN JUMPDEST PUSH2 0xD4 PUSH2 0x293 JUMP JUMPDEST PUSH1 0x40 MLOAD PUSH2 0xE1 SWAP2 SWAP1 PUSH2 0x71E JUMP JUMPDEST PUSH1 0x40 MLOAD DUP1 SWAP2 SUB SWAP1 RETURN JUMPDEST PUSH2 0x104 PUSH1 0x4 DUP1 CALLDATASIZE SUB DUP2 ADD SWAP1 PUSH2 0xFF SWAP2 SWAP1 PUSH2 0x761 JUMP JUMPDEST PUSH2 0x29B JUMP JUMPDEST PUSH1 0x40 MLOAD PUSH2 0x112 SWAP3 SWAP2 SWAP1 PUSH2 0x7D4 JUMP JUMPDEST PUSH1 0x40 MLOAD DUP1 SWAP2 SUB SWAP1 RETURN JUMPDEST PUSH2 0x135 PUSH1 0x4 DUP1 CALLDATASIZE SUB DUP2 ADD SWAP1 PUSH2 0x130 SWAP2 SWAP1 PUSH2 0x802 JUMP JUMPDEST PUSH2 0x350 JUMP JUMPDEST STOP JUMPDEST PUSH2 0x151 PUSH1 0x4 DUP1 CALLDATASIZE SUB DUP2 ADD SWAP1 PUSH2 0x14C SWAP2 SWAP1 PUSH2 0x761 JUMP JUMPDEST PUSH2 0x3D4 JUMP JUMPDEST STOP JUMPDEST PUSH2 0x15B PUSH2 0x3E9 JUMP JUMPDEST PUSH1 0x40 MLOAD PUSH2 0x168 SWAP2 SWAP1 PUSH2 0x71E JUMP JUMPDEST PUSH1 0x40 MLOAD DUP1 SWAP2 SUB SWAP1 RETURN JUMPDEST PUSH1 0x60 PUSH1 0x1 DUP1 SLOAD DUP1 PUSH1 0x20 MUL PUSH1 0x20 ADD PUSH1 0x40 MLOAD SWAP1 DUP2 ADD PUSH1 0x40 MSTORE DUP1 SWAP3 SWAP2 SWAP1 DUP2 DUP2 MSTORE PUSH1 0x20 ADD PUSH0 SWAP1 JUMPDEST DUP3 DUP3 LT ISZERO PUSH2 0x25D JUMPI DUP4 DUP3 SWAP1 PUSH0 MSTORE PUSH1 0x20 PUSH0 KECCAK256 SWAP1 PUSH1 0x2 MUL ADD PUSH1 0x40 MLOAD DUP1 PUSH1 0x40 ADD PUSH1 0x40 MSTORE SWAP1 DUP2 PUSH0 DUP3 ADD SLOAD DUP2 MSTORE PUSH1 0x20 ADD PUSH1 0x1 DUP3 ADD DUP1 SLOAD PUSH2 0x1CE SWAP1 PUSH2 0x889 JUMP JUMPDEST DUP1 PUSH1 0x1F ADD PUSH1 0x20 DUP1 SWAP2 DIV MUL PUSH1 0x20 ADD PUSH1 0x40 MLOAD SWAP1 DUP2 ADD PUSH1 0x40 MSTORE DUP1 SWAP3 SWAP2 SWAP1 DUP2 DUP2 MSTORE PUSH1 0x20 ADD DUP3 DUP1 SLOAD PUSH2 0x1FA SWAP1 PUSH2 0x889 JUMP JUMPDEST DUP1 ISZERO PUSH2 0x245 JUMPI DUP1 PUSH1 0x1F LT PUSH2 0x21C JUMPI PUSH2 0x100 DUP1 DUP4 SLOAD DIV MUL DUP4 MSTORE SWAP2 PUSH1 0x20 ADD SWAP2 PUSH2 0x245 JUMP JUMPDEST DUP3 ADD SWAP2 SWAP1 PUSH0 MSTORE PUSH1 0x20 PUSH0 KECCAK256 SWAP1 JUMPDEST DUP2 SLOAD DUP2 MSTORE SWAP1 PUSH1 0x1 ADD SWAP1 PUSH1 0x20 ADD DUP1 DUP4 GT PUSH2 0x228 JUMPI DUP3 SWAP1 SUB PUSH1 0x1F AND DUP3 ADD SWAP2 JUMPDEST POP POP POP POP POP DUP2 MSTORE POP POP DUP2 MSTORE PUSH1 0x20 ADD SWAP1 PUSH1 0x1 ADD SWAP1 PUSH2 0x194 JUMP JUMPDEST POP POP POP POP SWAP1 POP SWAP1 JUMP JUMPDEST PUSH1 0x2 DUP2 DUP1 MLOAD PUSH1 0x20 DUP2 ADD DUP3 ADD DUP1 MLOAD DUP5 DUP3 MSTORE PUSH1 0x20 DUP4 ADD PUSH1 0x20 DUP6 ADD KECCAK256 DUP2 DUP4 MSTORE DUP1 SWAP6 POP POP POP POP POP POP PUSH0 SWAP2 POP SWAP1 POP SLOAD DUP2 JUMP JUMPDEST PUSH0 PUSH0 SLOAD SWAP1 POP SWAP1 JUMP JUMPDEST PUSH1 0x1 DUP2 DUP2 SLOAD DUP2 LT PUSH2 0x2AA JUMPI PUSH0 DUP1 REVERT JUMPDEST SWAP1 PUSH0 MSTORE PUSH1 0x20 PUSH0 KECCAK256 SWAP1 PUSH1 0x2 MUL ADD PUSH0 SWAP2 POP SWAP1 POP DUP1 PUSH0 ADD SLOAD SWAP1 DUP1 PUSH1 0x1 ADD DUP1 SLOAD PUSH2 0x2CF SWAP1 PUSH2 0x889 JUMP JUMPDEST DUP1 PUSH1 0x1F ADD PUSH1 0x20 DUP1 SWAP2 DIV MUL PUSH1 0x20 ADD PUSH1 0x40 MLOAD SWAP1 DUP2 ADD PUSH1 0x40 MSTORE DUP1 SWAP3 SWAP2 SWAP1 DUP2 DUP2 MSTORE PUSH1 0x20 ADD DUP3 DUP1 SLOAD PUSH2 0x2FB SWAP1 PUSH2 0x889 JUMP JUMPDEST DUP1 ISZERO PUSH2 0x346 JUMPI DUP1 PUSH1 0x1F LT PUSH2 0x31D JUMPI PUSH2 0x100 DUP1 DUP4 SLOAD DIV MUL DUP4 MSTORE SWAP2 PUSH1 0x20 ADD SWAP2 PUSH2 0x346 JUMP JUMPDEST DUP3 ADD SWAP2 SWAP1 PUSH0 MSTORE PUSH1 0x20 PUSH0 KECCAK256 SWAP1 JUMPDEST DUP2 SLOAD DUP2 MSTORE SWAP1 PUSH1 0x1 ADD SWAP1 PUSH1 0x20 ADD DUP1 DUP4 GT PUSH2 0x329 JUMPI DUP3 SWAP1 SUB PUSH1 0x1F AND DUP3 ADD SWAP2 JUMPDEST POP POP POP POP POP SWAP1 POP DUP3 JUMP JUMPDEST PUSH1 0x1 PUSH1 0x40 MLOAD DUP1 PUSH1 0x40 ADD PUSH1 0x40 MSTORE DUP1 DUP5 DUP2 MSTORE PUSH1 0x20 ADD DUP4 DUP2 MSTORE POP SWAP1 DUP1 PUSH1 0x1 DUP2 SLOAD ADD DUP1 DUP3 SSTORE DUP1 SWAP2 POP POP PUSH1 0x1 SWAP1 SUB SWAP1 PUSH0 MSTORE PUSH1 0x20 PUSH0 KECCAK256 SWAP1 PUSH1 0x2 MUL ADD PUSH0 SWAP1 SWAP2 SWAP1 SWAP2 SWAP1 SWAP2 POP PUSH0 DUP3 ADD MLOAD DUP2 PUSH0 ADD SSTORE PUSH1 0x20 DUP3 ADD MLOAD DUP2 PUSH1 0x1 ADD SWAP1 DUP2 PUSH2 0x3AA SWAP2 SWAP1 PUSH2 0xA59 JUMP JUMPDEST POP POP POP DUP2 PUSH1 0x2 DUP3 PUSH1 0x40 MLOAD PUSH2 0x3BE SWAP2 SWAP1 PUSH2 0xB62 JUMP JUMPDEST SWAP1 DUP2 MSTORE PUSH1 0x20 ADD PUSH1 0x40 MLOAD DUP1 SWAP2 SUB SWAP1 KECCAK256 DUP2 SWAP1 SSTORE POP POP POP JUMP JUMPDEST PUSH1 0x5 DUP2 PUSH2 0x3E1 SWAP2 SWAP1 PUSH2 0xBA5 JUMP JUMPDEST PUSH0 DUP2 SWAP1 SSTORE POP POP JUMP JUMPDEST PUSH0 SLOAD DUP2 JUMP JUMPDEST PUSH0 DUP2 MLOAD SWAP1 POP SWAP2 SWAP1 POP JUMP JUMPDEST PUSH0 DUP3 DUP3 MSTORE PUSH1 0x20 DUP3 ADD SWAP1 POP SWAP3 SWAP2 POP POP JUMP JUMPDEST PUSH0 DUP2 SWAP1 POP PUSH1 0x20 DUP3 ADD SWAP1 POP SWAP2 SWAP1 POP JUMP JUMPDEST PUSH0 DUP2 SWAP1 POP SWAP2 SWAP1 POP JUMP JUMPDEST PUSH2 0x429 DUP2 PUSH2 0x417 JUMP JUMPDEST DUP3 MSTORE POP POP JUMP JUMPDEST PUSH0 DUP2 MLOAD SWAP1 POP SWAP2 SWAP1 POP JUMP JUMPDEST PUSH0 DUP3 DUP3 MSTORE PUSH1 0x20 DUP3 ADD SWAP1 POP SWAP3 SWAP2 POP POP JUMP JUMPDEST DUP3 DUP2 DUP4 MCOPY PUSH0 DUP4 DUP4 ADD MSTORE POP POP POP JUMP JUMPDEST PUSH0 PUSH1 0x1F NOT PUSH1 0x1F DUP4 ADD AND SWAP1 POP SWAP2 SWAP1 POP JUMP JUMPDEST PUSH0 PUSH2 0x471 DUP3 PUSH2 0x42F JUMP JUMPDEST PUSH2 0x47B DUP2 DUP6 PUSH2 0x439 JUMP JUMPDEST SWAP4 POP PUSH2 0x48B DUP2 DUP6 PUSH1 0x20 DUP7 ADD PUSH2 0x449 JUMP JUMPDEST PUSH2 0x494 DUP2 PUSH2 0x457 JUMP JUMPDEST DUP5 ADD SWAP2 POP POP SWAP3 SWAP2 POP POP JUMP JUMPDEST PUSH0 PUSH1 0x40 DUP4 ADD PUSH0 DUP4 ADD MLOAD PUSH2 0x4B4 PUSH0 DUP7 ADD DUP3 PUSH2 0x420 JUMP JUMPDEST POP PUSH1 0x20 DUP4 ADD MLOAD DUP5 DUP3 SUB PUSH1 0x20 DUP7 ADD MSTORE PUSH2 0x4CC DUP3 DUP3 PUSH2 0x467 JUMP JUMPDEST SWAP2 POP POP DUP1 SWAP2 POP POP SWAP3 SWAP2 POP POP JUMP JUMPDEST PUSH0 PUSH2 0x4E4 DUP4 DUP4 PUSH2 0x49F JUMP JUMPDEST SWAP1 POP SWAP3 SWAP2 POP POP JUMP JUMPDEST PUSH0 PUSH1 0x20 DUP3 ADD SWAP1 POP SWAP2 SWAP1 POP JUMP JUMPDEST PUSH0 PUSH2 0x502 DUP3 PUSH2 0x3EE JUMP JUMPDEST PUSH2 0x50C DUP2 DUP6 PUSH2 0x3F8 JUMP JUMPDEST SWAP4 POP DUP4 PUSH1 0x20 DUP3 MUL DUP6 ADD PUSH2 0x51E DUP6 PUSH2 0x408 JUMP JUMPDEST DUP1 PUSH0 JUMPDEST DUP6 DUP2 LT ISZERO PUSH2 0x559 JUMPI DUP5 DUP5 SUB DUP10 MSTORE DUP2 MLOAD PUSH2 0x53A DUP6 DUP3 PUSH2 0x4D9 JUMP JUMPDEST SWAP5 POP PUSH2 0x545 DUP4 PUSH2 0x4EC JUMP JUMPDEST SWAP3 POP PUSH1 0x20 DUP11 ADD SWAP10 POP POP PUSH1 0x1 DUP2 ADD SWAP1 POP PUSH2 0x521 JUMP JUMPDEST POP DUP3 SWAP8 POP DUP8 SWAP6 POP POP POP POP POP POP SWAP3 SWAP2 POP POP JUMP JUMPDEST PUSH0 PUSH1 0x20 DUP3 ADD SWAP1 POP DUP2 DUP2 SUB PUSH0 DUP4 ADD MSTORE PUSH2 0x583 DUP2 DUP5 PUSH2 0x4F8 JUMP JUMPDEST SWAP1 POP SWAP3 SWAP2 POP POP JUMP JUMPDEST PUSH0 PUSH1 0x40 MLOAD SWAP1 POP SWAP1 JUMP JUMPDEST PUSH0 PUSH0 REVERT JUMPDEST PUSH0 PUSH0 REVERT JUMPDEST PUSH0 PUSH0 REVERT JUMPDEST PUSH0 PUSH0 REVERT JUMPDEST PUSH32 0x4E487B7100000000000000000000000000000000000000000000000000000000 PUSH0 MSTORE PUSH1 0x41 PUSH1 0x4 MSTORE PUSH1 0x24 PUSH0 REVERT JUMPDEST PUSH2 0x5DA DUP3 PUSH2 0x457 JUMP JUMPDEST DUP2 ADD DUP2 DUP2 LT PUSH8 0xFFFFFFFFFFFFFFFF DUP3 GT OR ISZERO PUSH2 0x5F9 JUMPI PUSH2 0x5F8 PUSH2 0x5A4 JUMP JUMPDEST JUMPDEST DUP1 PUSH1 0x40 MSTORE POP POP POP JUMP JUMPDEST PUSH0 PUSH2 0x60B PUSH2 0x58B JUMP JUMPDEST SWAP1 POP PUSH2 0x617 DUP3 DUP3 PUSH2 0x5D1 JUMP JUMPDEST SWAP2 SWAP1 POP JUMP JUMPDEST PUSH0 PUSH8 0xFFFFFFFFFFFFFFFF DUP3 GT ISZERO PUSH2 0x636 JUMPI PUSH2 0x635 PUSH2 0x5A4 JUMP JUMPDEST JUMPDEST PUSH2 0x63F DUP3 PUSH2 0x457 JUMP JUMPDEST SWAP1 POP PUSH1 0x20 DUP2 ADD SWAP1 POP SWAP2 SWAP1 POP JUMP JUMPDEST DUP3 DUP2 DUP4 CALLDATACOPY PUSH0 DUP4 DUP4 ADD MSTORE POP POP POP JUMP JUMPDEST PUSH0 PUSH2 0x66C PUSH2 0x667 DUP5 PUSH2 0x61C JUMP JUMPDEST PUSH2 0x602 JUMP JUMPDEST SWAP1 POP DUP3 DUP2 MSTORE PUSH1 0x20 DUP2 ADD DUP5 DUP5 DUP5 ADD GT ISZERO PUSH2 0x688 JUMPI PUSH2 0x687 PUSH2 0x5A0 JUMP JUMPDEST JUMPDEST PUSH2 0x693 DUP5 DUP3 DUP6 PUSH2 0x64C JUMP JUMPDEST POP SWAP4 SWAP3 POP POP POP JUMP JUMPDEST PUSH0 DUP3 PUSH1 0x1F DUP4 ADD SLT PUSH2 0x6AF JUMPI PUSH2 0x6AE PUSH2 0x59C JUMP JUMPDEST JUMPDEST DUP2 CALLDATALOAD PUSH2 0x6BF DUP5 DUP3 PUSH1 0x20 DUP7 ADD PUSH2 0x65A JUMP JUMPDEST SWAP2 POP POP SWAP3 SWAP2 POP POP JUMP JUMPDEST PUSH0 PUSH1 0x20 DUP3 DUP5 SUB SLT ISZERO PUSH2 0x6DD JUMPI PUSH2 0x6DC PUSH2 0x594 JUMP JUMPDEST JUMPDEST PUSH0 DUP3 ADD CALLDATALOAD PUSH8 0xFFFFFFFFFFFFFFFF DUP2 GT ISZERO PUSH2 0x6FA JUMPI PUSH2 0x6F9 PUSH2 0x598 JUMP JUMPDEST JUMPDEST PUSH2 0x706 DUP5 DUP3 DUP6 ADD PUSH2 0x69B JUMP JUMPDEST SWAP2 POP POP SWAP3 SWAP2 POP POP JUMP JUMPDEST PUSH2 0x718 DUP2 PUSH2 0x417 JUMP JUMPDEST DUP3 MSTORE POP POP JUMP JUMPDEST PUSH0 PUSH1 0x20 DUP3 ADD SWAP1 POP PUSH2 0x731 PUSH0 DUP4 ADD DUP5 PUSH2 0x70F JUMP JUMPDEST SWAP3 SWAP2 POP POP JUMP JUMPDEST PUSH2 0x740 DUP2 PUSH2 0x417 JUMP JUMPDEST DUP2 EQ PUSH2 0x74A JUMPI PUSH0 PUSH0 REVERT JUMPDEST POP JUMP JUMPDEST PUSH0 DUP2 CALLDATALOAD SWAP1 POP PUSH2 0x75B DUP2 PUSH2 0x737 JUMP JUMPDEST SWAP3 SWAP2 POP POP JUMP JUMPDEST PUSH0 PUSH1 0x20 DUP3 DUP5 SUB SLT ISZERO PUSH2 0x776 JUMPI PUSH2 0x775 PUSH2 0x594 JUMP JUMPDEST JUMPDEST PUSH0 PUSH2 0x783 DUP5 DUP3 DUP6 ADD PUSH2 0x74D JUMP JUMPDEST SWAP2 POP POP SWAP3 SWAP2 POP POP JUMP JUMPDEST PUSH0 DUP3 DUP3 MSTORE PUSH1 0x20 DUP3 ADD SWAP1 POP SWAP3 SWAP2 POP POP JUMP JUMPDEST PUSH0 PUSH2 0x7A6 DUP3 PUSH2 0x42F JUMP JUMPDEST PUSH2 0x7B0 DUP2 DUP6 PUSH2 0x78C JUMP JUMPDEST SWAP4 POP PUSH2 0x7C0 DUP2 DUP6 PUSH1 0x20 DUP7 ADD PUSH2 0x449 JUMP JUMPDEST PUSH2 0x7C9 DUP2 PUSH2 0x457 JUMP JUMPDEST DUP5 ADD SWAP2 POP POP SWAP3 SWAP2 POP POP JUMP JUMPDEST PUSH0 PUSH1 0x40 DUP3 ADD SWAP1 POP PUSH2 0x7E7 PUSH0 DUP4 ADD DUP6 PUSH2 0x70F JUMP JUMPDEST DUP2 DUP2 SUB PUSH1 0x20 DUP4 ADD MSTORE PUSH2 0x7F9 DUP2 DUP5 PUSH2 0x79C JUMP JUMPDEST SWAP1 POP SWAP4 SWAP3 POP POP POP JUMP JUMPDEST PUSH0 PUSH0 PUSH1 0x40 DUP4 DUP6 SUB SLT ISZERO PUSH2 0x818 JUMPI PUSH2 0x817 PUSH2 0x594 JUMP JUMPDEST JUMPDEST PUSH0 PUSH2 0x825 DUP6 DUP3 DUP7 ADD PUSH2 0x74D JUMP JUMPDEST SWAP3 POP POP PUSH1 0x20 DUP4 ADD CALLDATALOAD PUSH8 0xFFFFFFFFFFFFFFFF DUP2 GT ISZERO PUSH2 0x846 JUMPI PUSH2 0x845 PUSH2 0x598 JUMP JUMPDEST JUMPDEST PUSH2 0x852 DUP6 DUP3 DUP7 ADD PUSH2 0x69B JUMP JUMPDEST SWAP2 POP POP SWAP3 POP SWAP3 SWAP1 POP JUMP JUMPDEST PUSH32 0x4E487B7100000000000000000000000000000000000000000000000000000000 PUSH0 MSTORE PUSH1 0x22 PUSH1 0x4 MSTORE PUSH1 0x24 PUSH0 REVERT JUMPDEST PUSH0 PUSH1 0x2 DUP3 DIV SWAP1 POP PUSH1 0x1 DUP3 AND DUP1 PUSH2 0x8A0 JUMPI PUSH1 0x7F DUP3 AND SWAP2 POP JUMPDEST PUSH1 0x20 DUP3 LT DUP2 SUB PUSH2 0x8B3 JUMPI PUSH2 0x8B2 PUSH2 0x85C JUMP JUMPDEST JUMPDEST POP SWAP2 SWAP1 POP JUMP JUMPDEST PUSH0 DUP2 SWAP1 POP DUP2 PUSH0 MSTORE PUSH1 0x20 PUSH0 KECCAK256 SWAP1 POP SWAP2 SWAP1 POP JUMP JUMPDEST PUSH0 PUSH1 0x20 PUSH1 0x1F DUP4 ADD DIV SWAP1 POP SWAP2 SWAP1 POP JUMP JUMPDEST PUSH0 DUP3 DUP3 SHL SWAP1 POP SWAP3 SWAP2 POP POP JUMP JUMPDEST PUSH0 PUSH1 0x8 DUP4 MUL PUSH2 0x915 PUSH32 0xFFFFFFFFFFFFFFFFFFFFFFFFFFFFFFFFFFFFFFFFFFFFFFFFFFFFFFFFFFFFFFFF DUP3 PUSH2 0x8DA JUMP JUMPDEST PUSH2 0x91F DUP7 DUP4 PUSH2 0x8DA JUMP JUMPDEST SWAP6 POP DUP1 NOT DUP5 AND SWAP4 POP DUP1 DUP7 AND DUP5 OR SWAP3 POP POP POP SWAP4 SWAP3 POP POP POP JUMP JUMPDEST PUSH0 DUP2 SWAP1 POP SWAP2 SWAP1 POP JUMP JUMPDEST PUSH0 PUSH2 0x95A PUSH2 0x955 PUSH2 0x950 DUP5 PUSH2 0x417 JUMP JUMPDEST PUSH2 0x937 JUMP JUMPDEST PUSH2 0x417 JUMP JUMPDEST SWAP1 POP SWAP2 SWAP1 POP JUMP JUMPDEST PUSH0 DUP2 SWAP1 POP SWAP2 SWAP1 POP JUMP JUMPDEST PUSH2 0x973 DUP4 PUSH2 0x940 JUMP JUMPDEST PUSH2 0x987 PUSH2 0x97F DUP3 PUSH2 0x961 JUMP JUMPDEST DUP5 DUP5 SLOAD PUSH2 0x8E6 JUMP JUMPDEST DUP3 SSTORE POP POP POP POP JUMP JUMPDEST PUSH0 PUSH0 SWAP1 POP SWAP1 JUMP JUMPDEST PUSH2 0x99E PUSH2 0x98F JUMP JUMPDEST PUSH2 0x9A9 DUP2 DUP5 DUP5 PUSH2 0x96A JUMP JUMPDEST POP POP POP JUMP JUMPDEST JUMPDEST DUP2 DUP2 LT ISZERO PUSH2 0x9CC JUMPI PUSH2 0x9C1 PUSH0 DUP3 PUSH2 0x996 JUMP JUMPDEST PUSH1 0x1 DUP2 ADD SWAP1 POP PUSH2 0x9AF JUMP JUMPDEST POP POP JUMP JUMPDEST PUSH1 0x1F DUP3 GT ISZERO PUSH2 0xA11 JUMPI PUSH2 0x9E2 DUP2 PUSH2 0x8B9 JUMP JUMPDEST PUSH2 0x9EB DUP5 PUSH2 0x8CB JUMP JUMPDEST DUP2 ADD PUSH1 0x20 DUP6 LT ISZERO PUSH2 0x9FA JUMPI DUP2 SWAP1 POP JUMPDEST PUSH2 0xA0E PUSH2 0xA06 DUP6 PUSH2 0x8CB JUMP JUMPDEST DUP4 ADD DUP3 PUSH2 0x9AE JUMP JUMPDEST POP POP JUMPDEST POP POP POP JUMP JUMPDEST PUSH0 DUP3 DUP3 SHR SWAP1 POP SWAP3 SWAP2 POP POP JUMP JUMPDEST PUSH0 PUSH2 0xA31 PUSH0 NOT DUP5 PUSH1 0x8 MUL PUSH2 0xA16 JUMP JUMPDEST NOT DUP1 DUP4 AND SWAP2 POP POP SWAP3 SWAP2 POP POP JUMP JUMPDEST PUSH0 PUSH2 0xA49 DUP4 DUP4 PUSH2 0xA22 JUMP JUMPDEST SWAP2 POP DUP3 PUSH1 0x2 MUL DUP3 OR SWAP1 POP SWAP3 SWAP2 POP POP JUMP JUMPDEST PUSH2 0xA62 DUP3 PUSH2 0x42F JUMP JUMPDEST PUSH8 0xFFFFFFFFFFFFFFFF DUP2 GT ISZERO PUSH2 0xA7B JUMPI PUSH2 0xA7A PUSH2 0x5A4 JUMP JUMPDEST JUMPDEST PUSH2 0xA85 DUP3 SLOAD PUSH2 0x889 JUMP JUMPDEST PUSH2 0xA90 DUP3 DUP3 DUP6 PUSH2 0x9D0 JUMP JUMPDEST PUSH0 PUSH1 0x20 SWAP1 POP PUSH1 0x1F DUP4 GT PUSH1 0x1 DUP2 EQ PUSH2 0xAC1 JUMPI PUSH0 DUP5 ISZERO PUSH2 0xAAF JUMPI DUP3 DUP8 ADD MLOAD SWAP1 POP JUMPDEST PUSH2 0xAB9 DUP6 DUP3 PUSH2 0xA3E JUMP JUMPDEST DUP7 SSTORE POP PUSH2 0xB20 JUMP JUMPDEST PUSH1 0x1F NOT DUP5 AND PUSH2 0xACF DUP7 PUSH2 0x8B9 JUMP JUMPDEST PUSH0 JUMPDEST DUP3 DUP2 LT ISZERO PUSH2 0xAF6 JUMPI DUP5 DUP10 ADD MLOAD DUP3 SSTORE PUSH1 0x1 DUP3 ADD SWAP2 POP PUSH1 0x20 DUP6 ADD SWAP5 POP PUSH1 0x20 DUP2 ADD SWAP1 POP PUSH2 0xAD1 JUMP JUMPDEST DUP7 DUP4 LT ISZERO PUSH2 0xB13 JUMPI DUP5 DUP10 ADD MLOAD PUSH2 0xB0F PUSH1 0x1F DUP10 AND DUP3 PUSH2 0xA22 JUMP JUMPDEST DUP4 SSTORE POP JUMPDEST PUSH1 0x1 PUSH1 0x2 DUP9 MUL ADD DUP9 SSTORE POP POP POP JUMPDEST POP POP POP POP POP POP JUMP JUMPDEST PUSH0 DUP2 SWAP1 POP SWAP3 SWAP2 POP POP JUMP JUMPDEST PUSH0 PUSH2 0xB3C DUP3 PUSH2 0x42F JUMP JUMPDEST PUSH2 0xB46 DUP2 DUP6 PUSH2 0xB28 JUMP JUMPDEST SWAP4 POP PUSH2 0xB56 DUP2 DUP6 PUSH1 0x20 DUP7 ADD PUSH2 0x449 JUMP JUMPDEST DUP1 DUP5 ADD SWAP2 POP POP SWAP3 SWAP2 POP POP JUMP JUMPDEST PUSH0 PUSH2 0xB6D DUP3 DUP5 PUSH2 0xB32 JUMP JUMPDEST SWAP2 POP DUP2 SWAP1 POP SWAP3 SWAP2 POP POP JUMP JUMPDEST PUSH32 0x4E487B7100000000000000000000000000000000000000000000000000000000 PUSH0 MSTORE PUSH1 0x11 PUSH1 0x4 MSTORE PUSH1 0x24 PUSH0 REVERT JUMPDEST PUSH0 PUSH2 0xBAF DUP3 PUSH2 0x417 JUMP JUMPDEST SWAP2 POP PUSH2 0xBBA DUP4 PUSH2 0x417 JUMP JUMPDEST SWAP3 POP DUP3 DUP3 ADD SWAP1 POP DUP1 DUP3 GT ISZERO PUSH2 0xBD2 JUMPI PUSH2 0xBD1 PUSH2 0xB78 JUMP JUMPDEST JUMPDEST SWAP3 SWAP2 POP POP JUMP INVALID LOG2 PUSH5 0x6970667358 0x22 SLT KECCAK256 XOR DUP15 0xC8 DUP15 SWAP9 SWAP6 DUP5 0xD3 CODESIZE POP PUSH29 0x2636B588887CE922F13F9E0E4620C51604A41E550864736F6C63430008 SAR STOP CALLER "
		},
		"gasEstimates": {
			"creation": {
				"codeDepositCost": "617200",
				"executionCost": "649",
				"totalCost": "617849"
			},
			"external": {
				"addFriend(uint256,string)": "infinite",
				"getUsers()": "infinite",
				"myFavNumber()": "2490",
				"nameToFavNum(string)": "infinite",
				"retrieve()": "2476",
				"store(uint256)": "infinite",
				"users(uint256)": "infinite"
			}
		},
		"methodIdentifiers": {
			"addFriend(uint256,string)": "56a7d90a",
			"getUsers()": "00ce8e3e",
			"myFavNumber()": "df986725",
			"nameToFavNum(string)": "06c62c2c",
			"retrieve()": "2e64cec1",
			"store(uint256)": "6057361d",
			"users(uint256)": "365b98b2"
		}
	},
	"abi": [
		{
			"inputs": [
				{
					"internalType": "uint256",
					"name": "_favNum",
					"type": "uint256"
				},
				{
					"internalType": "string",
					"name": "_name",
					"type": "string"
				}
			],
			"name": "addFriend",
			"outputs": [],
			"stateMutability": "nonpayable",
			"type": "function"
		},
		{
			"inputs": [],
			"name": "getUsers",
			"outputs": [
				{
					"components": [
						{
							"internalType": "uint256",
							"name": "favNum",
							"type": "uint256"
						},
						{
							"internalType": "string",
							"name": "name",
							"type": "string"
						}
					],
					"internalType": "struct SimpleStorage.Person[]",
					"name": "",
					"type": "tuple[]"
				}
			],
			"stateMutability": "view",
			"type": "function"
		},
		{
			"inputs": [],
			"name": "myFavNumber",
			"outputs": [
				{
					"internalType": "uint256",
					"name": "",
					"type": "uint256"
				}
			],
			"stateMutability": "view",
			"type": "function"
		},
		{
			"inputs": [
				{
					"internalType": "string",
					"name": "",
					"type": "string"
				}
			],
			"name": "nameToFavNum",
			"outputs": [
				{
					"internalType": "uint256",
					"name": "",
					"type": "uint256"
				}
			],
			"stateMutability": "view",
			"type": "function"
		},
		{
			"inputs": [],
			"name": "retrieve",
			"outputs": [
				{
					"internalType": "uint256",
					"name": "",
					"type": "uint256"
				}
			],
			"stateMutability": "view",
			"type": "function"
		},
		{
			"inputs": [
				{
					"internalType": "uint256",
					"name": "_number",
					"type": "uint256"
				}
			],
			"name": "store",
			"outputs": [],
			"stateMutability": "nonpayable",
			"type": "function"
		},
		{
			"inputs": [
				{
					"internalType": "uint256",
					"name": "",
					"type": "uint256"
				}
			],
			"name": "users",
			"outputs": [
				{
					"internalType": "uint256",
					"name": "favNum",
					"type": "uint256"
				},
				{
					"internalType": "string",
					"name": "name",
					"type": "string"
				}
			],
			"stateMutability": "view",
			"type": "function"
		}
	]
}